:020000040800F2
:10000000804E002081020008E72900089926000898
:10001000E529000819090008F33200080000000073
:10002000000000000000000000000000C101000806
:100030009D0D0008000000001D020008A52B00080F
:100040009B0200089B0200089B0200089B0200081C
:100050009B0200089B0200089B0200089B0200080C
:100060009B0200089B0200089B0200089B020008FC
:100070009B0200089B0200089B0200089B020008EC
:100080009B0200089B0200089B0200082909000847
:100090001D0900089B0200089B0200089B02000843
:1000A0009B0200089B0200089B0200089B020008BC
:1000B0009B0200089B0200089B0200089B020008AC
:1000C0009B0200089B0200089B0200089B0200089C
:1000D0009B0200089B0200089B0200089B0200088C
:1000E0009B0200089B0200089B0200089B0200087C
:1000F0009B0200089B0200089B0200089B0200086C
:100100009B0200089B0200089B0200089B0200085B
:100110009B0200089B0200089B0200089B0200084B
:100120009B020008B90B00089B0200089B02000814
:100130009B0200089B0200089B020008410900087E
:10014000350900089B0200089B0200089B0200087A
:100150009B0200089B0200089B0200088D320008E9
:100160009B0200089B0200089B0200089B020008FB
:100170009B0200089B0200089B0200080000000090
:100180009B0200089B0200089B0200089B020008DB
:100190009B0200089B0200089B0200089B020008CB
:1001A00000000000000000009B020008DFF80CD0F7
:1001B00000F0A0FB00480047A9410008804E002045
:1001C0002C4B19680868B0E8F04F80F30988BFF33A
:1001D0006F8F4FF0000080F311887047000000001F
:1001E00008480068006880F308884FF0000080F33A
:1001F000148862B661B6BFF34F8FBFF36F8F00DF15
:1002000000BF00BF08ED00E0DFF80C00016841F41A
:1002100070010160704700BF88ED00E0EFF30980D6
:10022000BFF36F8F134B1A681EF0100F08BF20ED3D
:10023000108A20E9F04F106009B44FF0500080F3AD
:100240001188BFF34F8FBFF36F8F04F099FE4FF00B
:10025000000080F3118809BC19680868B0E8F04F05
:100260001EF0100F08BFB0EC108A80F30988BFF3AE
:100270006F8F704760000020EFF30580704700002B
:100280000648804706480047FEE7FEE7FEE7FEE730
:10029000FEE7FEE7FEE7FEE7FEE7FEE7412C00088B
:1002A000AD0100082DE9F05F0546002092469B460F
:1002B00088460646814640241BE02846414647467C
:1002C000224600F031FA53465A46C01A914110D3E3
:1002D00011461846224600F018FA2D1A67EB01085D
:1002E0004F4622460120002100F00FFA17EB0009CB
:1002F0004E41201EA4F10104DFDC484631462A4667
:100300004346BDE8F09F40EA01039B0703D009E0A4
:1003100008C9121F08C0042AFAD203E011F8013BF1
:1003200000F8013B521EF9D27047D2B201E000F84A
:10033000012B491EFBD270470022F6E710B5134689
:100340000A4604461946FFF7F0FF204610BD2DE986
:10035000FE4F804681EA0300C00F0C46009021F05A
:10036000004123F00045B8EB0200A94105D2404608
:10037000214690461C460B46024623F0004010439F
:1003800047D0270DC7F30A00C3F30A510290401A61
:10039000019040286BDAC3F3130040F4801B0098EF
:1003A000924620B10023D2EB030A63EB0B0B0198BA
:1003B0005946C0F14002504600F0A7F906460D46E6
:1003C00050465946019A00F0BFF910EB0800614110
:1003D000002487EA115284EAE7731A4340D0009A56
:1003E00062B3019A012A4FEA075215DC001B61EB48
:1003F00002014FF0004202EA0752CDE90042001C20
:1004000041F5801132462B4600F0F6F903B0BDE805
:10041000F08F40462146F9E7001B61EB0201001C0A
:1004200041F5801300185B412018A2F5001747EB37
:10043000030140EAD570B6196D4111E06D084FEA2D
:10044000360645EAC0754FEA0752001B61EB020110
:10045000001C41F5801149084FEA30000019514154
:1004600032462B4603B0BDE8F04F00F0B6B9009815
:10047000012240000023D0EB020263EBE0730098FE
:1004800021464FEAE074B8EB000061EB0401E9E7B4
:1004900083F000435BE781F0004158E72DE9FE4F10
:1004A00081EA030404F0004421F0004100944FF07D
:1004B000000B23F0004350EA01045ED052EA03042B
:1004C0005BD0C3F30A54C1F30A552C44A4F2F334AD
:1004D0000194A0FB0254C1F3130141F48011C3F352
:1004E000130343F4801301FB024400FB034E840A10
:1004F000970A44EA815447EA8357A4FB07680295A8
:100500008D0A05FB07854FEA932C04FB0C54270545
:10051000029D4FEA065847EA1637B5EB08056EEB21
:10052000070C870E920E47EA811742EA8312A7FB57
:100530000201B6EB0B0164EB00042B0D43EA0C3314
:100540005E1844EB1C50DA465146E7FB0201C5F346
:1005500013044FEA0B3343EA14534FEA0432019C6D
:1005600043EA0603A4F10C040294009CCDE900B414
:1005700000F042F903B0BDE8F08F00200146F9E732
:100580002DE9F04D81EA030404F0004B21F0004511
:1005900014464FF0000A23F0004150EA050220D033
:1005A00054EA01021DD0C5F30A570246C5F31303EE
:1005B000C1F31300C1F30A5640F4801543F48013CD
:1005C000A7EB0608101BD64608F2FD3873EB0500B2
:1005D00002D308F1010801E092185B41B8F1000F65
:1005E00003DA00200146BDE8F08D00204FF48011B1
:1005F000064684460EE0171B73EB050705D3121B56
:1006000063EB050306434CEA010C49084FEA30004E
:1006100092185B4150EA0107EDD152EA030012D073
:1006200082EA040083EA0501084305D0101BAB41B0
:1006300006D20122002306E000224FF0004302E030
:100640006FF0010253101AEB06004CEB085110EB4F
:100650000A0041EB0B01BDE8F04D00F0BEB80EB54D
:10066000C10F80EAE0700844CA07002140F233431A
:100670008DE80E000A460B4600F0BEF803B000BD40
:1006800000F0004230F000400AD0C10D01F5607169
:10069000C0F3160042EA0151C208400711437047F7
:1006A00000200146704701F0004330B421F00041C2
:1006B00050EA010206D00A0DA2F56072C1F31301DF
:1006C000002A02DC30BC00207047440F44EAC10419
:1006D000C100E01830BC00EBC25000F047B830B5A4
:1006E0000B46014600202022012409E021FA02F5F0
:1006F0009D4205D303FA02F5491B04FA02F528448A
:10070000151EA2F10102F1DC30BD202A04DB203AE3
:1007100000FA02F1002070479140C2F1200320FA54
:1007200003F3194390407047202A04DB203A21FA52
:1007300002F00021704721FA02F3D040C2F12002FA
:100740009140084319467047202A06DBCB17203A10
:1007500041FA02F043EAE07306E041FA02F3D040C6
:10076000C2F1200291400843194670470029A8BFF2
:100770007047401C490008BF20F00100704710B4CA
:10078000B0FA80FC00FA0CF050EA010404BF10BC7F
:10079000704749B1CCF1200421FA04F411FA0CF1AC
:1007A00018BF012121430843A3EB0C01CB1D4FEAE5
:1007B00000614FEA102042BF002010BC704700EBE0
:1007C000C35010440029A4BF10BC7047401C49000E
:1007D00008BF20F0010010BC704710B5141E73F163
:1007E000000408DA401C41F1000192185B411A43F1
:1007F00001D120F0010010BD2DE9F04D92469B463D
:1008000011B1B1FA81F202E0B0FA80F220329046E2
:10081000FFF77BFF04460F4640EA0A0041EA0B015E
:1008200053465A46084313D0114653EA010019D0E3
:10083000C8F140025046FFF777FF05460E46504686
:1008400059464246FFF761FF084305D0012004E006
:1008500020463946BDE8F08D0020054346EAE076A3
:100860002C4337430A986305E40AA0EB08000022F2
:10087000FD0A44EA47540A3002D500200146E9E760
:10088000010510196941DDE9084500196941BDE814
:10089000F04DA2E7C1F30A52C1F3130140F2FF3356
:1008A00041F480119A4202DA00200146704740F27A
:1008B00033439A42A2F2334202DC5242FFF734BF82
:1008C000FFF723BF30B5041E71F1000404DB4FF0C5
:1008D0000044404264EB0101141E73F1000405DB87
:1008E0001C464FF00043524263EB0403994208BF99
:1008F000904230BD064C074D06E0E06840F0010331
:1009000094E8070098471034AC42F6D3FFF752FC46
:100910004854000868540008FEE70000014800F051
:10092000BCBB000074090020014800F0B6BB000009
:1009300074090020014800F0B0BB00009C090020B1
:10094000014800F0AABB00009C09002010B503F08C
:100950004BF9BDE8104003F075B9000070B50C46C6
:10096000054663A100F004F918B1204603F0D6FC57
:10097000B6E060A1284600F0FBF818B1204603F06D
:100980000DFDADE05CA1284600F0F2F818B120465C
:1009900003F022FDA4E059A1284600F0E9F8002860
:1009A000E6D157A1284600F0E3F80028E0D155A190
:1009B000284600F0DDF80028DAD153A1284600F0DF
:1009C000D7F80028D4D151A1284600F0D1F800284A
:1009D000CED14FA1284600F0CBF80028C8D14DA1B8
:1009E000284600F0C5F800287AD14BA1284600F02F
:1009F000BFF8002874D149A1284600F0B9F80028B2
:100A00006ED147A1284600F0B3F8002868D145A16F
:100A1000284600F0ADF8002862D143A1284600F036
:100A2000A7F800285CD141A1284600F0A1F80028D1
:100A300056D13FA1284600F09BF8002850D13DA197
:100A4000284600F095F800284AD13BA1284600F03E
:100A50008FF8002844D139A1284600F089F80028F1
:100A60003ED137A1284600F083F8C8BB35A12846FF
:100A700000F07EF8A0BB34A1284600F079F878BBDE
:100A800032A1284600F074F850BB31A1284600F08E
:100A90006FF810B103F06CFB22E02EA1284600F0A5
:100AA00067F8E8B92CA1284600F062F8C0B92BA17C
:100AB000284600F05DF898B929A1284600F058F8BA
:100AC00070B928A1284600F053F848B926A1284655
:100AD00000F04EF820B925A1284600F049F808B1E9
:100AE000002070BD2146284603F0C2F8F8E7000058
:100AF0002A3100002A3200002A3300002A34000084
:100B00002A3500002A3600002A3700002A38000063
:100B10002A39000023310000233200002333000073
:100B2000233400002335000023360000403100004C
:100B300040320000403300004034000040350000E7
:100B400040360000403700004038000040390000C7
:100B5000243100002432000024330000243400003B
:100B60002436000024370000243800002439000017
:100B700030B50C46054601F0F9FF0346204601F06A
:100B8000F5FF83420AD1002004E0295C225C9142F7
:100B900004D1401C9842F8DB012030BD002030BD5C
:100BA0000022835C23B18B54521C642AF9DB00E0E1
:100BB0008B5401207047000008B5064800F060FD26
:100BC0000548007800F0A2F8044800680168406811
:100BD000009008BD300D002038080020F00C0020E7
:100BE00001681823CAB2103AB2FBF3F2054B6FF357
:100BF0000901032A9B5CC36500D9091D816508466C
:100C000070470000F853000810B5014600208B69BA
:100C10008A6A4FF0C07453B1B3F5005F15D072B15A
:100C2000012A0CD0022A0AD0032A09D104E01AB101
:100C3000012A06D0022A03D1C96AC90100D50120C0
:100C400010BDC96AA142FAD010BD002AF7D0012A0E
:100C5000F2D0022AF3D0032AF3D010BD30B50468D5
:100C6000256825F480252560046863608368402B2F
:100C7000036803D099600068C26030BD9A60006864
:100C8000C16030BD2DE9F04781460027012601F003
:100C90006DFF050034D00024DFF868802DE0621C71
:100CA0002146484601F06AFF17A1FFF761FF88B1AE
:100CB00022463946484601F061FF01F0BDFE10EEC4
:100CC000100AFFF7DDFC08EBC602671CC2E9000151
:100CD000761C11E0281B01280ED12A4639464846C9
:100CE00001F04CFF01F0A8FE10EE100AFFF7C8FC5F
:100CF00008EBC602C2E90001641CAC42CFDB3046FF
:100D0000BDE8F087980300202000000070B521495D
:100D1000214B28280A780BD012B19854521C0A7023
:100D200029280BD10024D0B225461C540C700BE0AE
:100D3000002AF2D1282018700120087070BD5819BF
:100D4000407858556D1CEDB2134801F00FFF401E5E
:100D5000A842F4DC104801F009FF18440E4A00F8DC
:100D6000024C503AA2F114010B4801F03DFE0A4832
:100D70005038FFF787FF014607486438FFF7EEFD5C
:100D80000549002050390C54401CC0B26428FAD3E5
:100D900070BD000000000020CC02002070477047AA
:100DA00002460020431E115C202904D011B1401CD2
:100DB0006428F8DB1846704790F82020012A07D0F5
:100DC000022A05D0416A41F4802141620120704726
:100DD000006842690A43426100207047F0B590F80C
:100DE00020500468A468012D05D0022D03D0416A6B
:100DF00041F4802153E014F0406F01D1E5004BD560
:100E0000C4F30164022C03D9416A41F4000146E0B5
:100E10000125A5401D608D684FF4C0739DB1CE685B
:100E200035434E6845EAC605066803EB0417F551DD
:100E30004FF4C275076805EB04150E697E51097DF4
:100E4000012905D009E00E88CD6845EA4655EBE753
:100E500001684E5946F480764E511179D2F805500A
:100E60004FF4C67641EA0525016806EB04168D515C
:100E70001178D2F801204FF4C47541EA02210268CA
:100E800005EB04155151006803EB0411425842F080
:100E9000010242500020F0BD416A41F4001141625C
:100EA0000120F0BD10B590F82020012A07D0022AB9
:100EB00005D0416A41F480214162012010BD3B48C8
:100EC000D0F8002242F00102C0F80022D0F800223F
:100ED00022F47C52C0F80022D0F800224B6A42EA89
:100EE0000322C0F800220A7D02F01F0301229A406B
:100EF000D0F81C329343C0F81C32CB69B3B9D0F898
:100F00000C329343C0F80C328C894B6864F31F4356
:100F10004C6900EBC404C4F840320C890B6864F3DC
:100F20001F434C6900EBC404C4F84432CB69012B65
:100F300016D1D0F80C321343C0F80C320C884B6831
:100F400064F31F434C6900EBC404C4F840320C89BD
:100F5000CB6864F31F434C6900EBC404C4F844320B
:100F60008B69002BD0F804320ED01343C0F8043242
:100F70000B69002BD0F8143208D01343C0F8143298
:100F8000096A012904D008E09343EFE79343F5E7AA
:100F9000D0F81C121143C0F81C12D0F8001221F036
:100FA0000101C0F80012002010BD000000640040E4
:100FB000704730B590F82040012C05D0022C03D0AA
:100FC000416A41F480215DE00468002955D024691C
:100FD000A40754D04FF4D874056804EB01142D59BC
:100FE00015F00405956005682D594ED0ED08556043
:100FF00005682C59C4F34004D4604FF4DA740568D2
:1010000004EB01142D5905F00F05156105682D59E4
:10101000C5F30725956105682C59240C54614FF4DC
:10102000DC72046802EB0112A4581C700468A45816
:10103000240A5C700468A458240C9C700468A258AC
:10104000120EDA704FF4DE72046802EB0112A4583B
:101050001C710468A458240A5C710468A458240C08
:101060009C710468A258120EDA71006881B101699E
:1010700041F020010161002030BDE468A8E7416A29
:1010800041F400114162012030BD6D0D1560AFE7E4
:10109000C16841F02001C160EDE72DE9F05F054630
:1010A000006800244669D0F804908768D0F80CB036
:1010B000D0F810A0D0F81880F10748D0F90714D064
:1010C00001218160B80703D5284600F08CFA0CE0B6
:1010D000780702D54FF4006407E0380702D54FF4D3
:1010E000805402E0284600F07DFAF80516D52968FC
:1010F0004FF480708860B80503D5284600F075FA73
:101100000CE0780502D544F4005407E0380502D518
:1011100044F4804402E0284600F066FAF80316D54D
:1011200029684FF480308860B80303D5284600F062
:101130005EFA0CE0780302D544F4004407E038037B
:1011400002D544F4803402E0284600F04FFA30071C
:1011500007D55FEACB6004D52968102044F40074F9
:10116000C86070074FF0080707D55FEA0B7004D519
:101170002868C760284600F0A9F9B00706D5286896
:10118000C068800702D0284600F0A2F9700607D593
:101190005FEACA6004D52968102044F480640861BD
:1011A000B00607D55FEA0A7004D5286807612846AB
:1011B00000F0E8F9F00606D528680069800702D03B
:1011C000284600F0E0F9B00308D55FEAC96005D50C
:1011D000296810204860284600F0D6F9F00307D5AA
:1011E0005FEA097004D528684760284600F000FAD5
:1011F000300446D55FEA497040D5F00504D55FEA72
:10120000C87001D044F00104B00504D55FEA8870CD
:1012100001D544F00204700504D55FEA487001D599
:1012200044F00404300529D518F0700F26D008F0DA
:101230007000402815D006DC102809D020280AD0DC
:10124000302816D10AE050280ED0602811D10EE0C7
:1012500044F008040DE044F010040AE044F02004D7
:1012600007E044F0400404E044F0800401E044F46A
:1012700080742868816921F07001816129680420E7
:101280004860002C05D0686A204368622846FFF752
:101290008FFEBDE8F09F70B5040003D094F82000E5
:1012A00010B104E0012070BD204600F081F82068F4
:1012B000016821F00201016000F056FC0546052698
:1012C00004E000F051FC401B0A2811D82068406857
:1012D0008007F6D42068016841F00101016000F048
:1012E00043FC05460BE000F03FFC401B0A2806D9F2
:1012F000606A40F40030606284F82060D2E72068C1
:101300004068C007EFD0207E0128206801683DD0EA
:1013100021F080010160607E01282068016838D0DA
:1013200021F040010160A07E01282068016833D0CF
:1013300021F020010160E07E0128206801682ED0A4
:1013400041F010010160207F01282068016829D048
:1013500021F008010160607F01282068016824D025
:1013600021F004010160D4E902010843D4E9041228
:10137000114308436168491E08432168C861002081
:101380006062012084F82000002070BD41F08001DF
:10139000C0E741F04001C5E741F02001CAE721F074
:1013A0001001CFE741F00801D4E741F00401D9E78B
:1013B000F0B587B0044614216846FEF7BDFF3E4BEA
:1013C0003E48DFF8F0E01968D4F800C03B4A032536
:1013D0000226092710300024491CF4452AD119603F
:1013E000012907D1016841F000710160006800F037
:1013F00000700590106840F0080010601068CDE99A
:10140000005600F00800CDE9047069462C48CDE98B
:10141000024500F0BDFA00220521132000F016FC61
:10142000132000F005FC00220521142000F00EFC22
:1014300014203AE0DFF88CE0F44538D1D0F800C051
:101440004CF0806CC0F800C0D0F800C001290CF04E
:10145000806CCDF814C0196007D1016841F00071AB
:101460000160006800F000700590106840F0020014
:101470001060106802AB00F0020005906020CDE91A
:10148000000683E8B00069460F4800F081FA0022A8
:1014900005213F2000F0DAFB3F2000F0C9FB0022CD
:1014A0000521402000F0D2FB402000F0C1FB07B036
:1014B000F0BD0000006400403C00002030380240D5
:1014C000000C024000680040000402407047000029
:1014D00070B5054600682449244C254E92B08842D8
:1014E00020D10EAB6A4600212248FFF762FD00982A
:1014F000A0F50070013803D0012801D0022811D1D5
:1015000000980EA9401EC0B2207000EBC00006EB90
:10151000C00002F0DBFD052002F010FE16494888ED
:10152000401C48801549286888421AD110AB07AA88
:1015300000211348FFF73DFD0798A0F5007007381C
:1015400001D001280DD1079810A9C01FC0B260704A
:1015500000EBC00006EBC00002F0B8FD012002F075
:10156000EDFD12B070BD00000064004028000020B6
:10157000D006002074090020D40800200068004034
:101580009C090020704770477047000070B5044602
:1015900090F82000012804D0606A40F400206062C6
:1015A00018E0022084F820002068016821F0010181
:1015B000016000F0D9FA05460EE000BF00F0D4FA51
:1015C000401B0A2808D9606A40F400306062052098
:1015D00084F82000012070BD20684068C007EDD16C
:1015E000606270BD704770477047704770477047C2
:1015F00070472DE9F0410446876D00F0B5FA0646C4
:1016000094F835000025022806D08020606584F813
:1016100034500120BDE8F0812068016821F01601F6
:1016200001602068416921F080014161206C08B9A6
:10163000A06C20B12068016821F0080101602068D9
:10164000016821F0010101600BE000F08DFA801BC0
:10165000052806D92020606504F8345F03206070F7
:10166000D8E720680068C007EFD194F85C103F20ED
:101670008840B86004F8345F012060700020C9E73A
:101680002DE9F84304464FF00009CDF80090634877
:101690004FF41651A56D0068B0FBF1F72E6894F871
:1016A0005C10082000FA01F131420FD021680A686D
:1016B00052070BD50A6822F004020A6094F85C1005
:1016C0008840A860606D40F00100606594F85C108F
:1016D0004FF0010808FA01F0304208D0216849694A
:1016E000090604D5A860606D40F00200606594F8BA
:1016F0005C1004208840304208D0216809688907BE
:1017000004D5A860606D40F00400606594F85C103A
:1017100010208840304218D021680968090714D584
:10172000A86020680168490304D50068000308D553
:10173000A16C07E00168C90503D4016821F0080124
:101740000160216C09B12046884794F85C10202084
:101750008840304231D021680968C9062DD5A8607B
:1017600094F8350005282068016806D0490347D55C
:10177000006800031DD4616C1CE021F016010160BB
:101780002068416921F080014161206C08B9A06C9A
:1017900020B12068016821F00801016094F85C1014
:1017A0003F208840A86084F8349084F83580216D0B
:1017B0001FE0E16B09B120468847606D00282BD0FF
:1017C000606DC00714D0052084F8350020680168DA
:1017D00021F0010101600098401C0090B84203D83C
:1017E00020680068C007F6D184F8349084F835800A
:1017F000E16C002910D001B02046BDE8F043084755
:101800000168C905D5D4016821F01001016084F890
:10181000349084F83580CCE7BDE8F8835C00002084
:101820002DE9F041044600F09FF906465CB1002521
:1018300084F83450022084F835002068016821F0D3
:10184000010101600DE00120BDE8F08100F08CF99C
:10185000801B052805D920206065032084F8350009
:10186000F2E720680068C007F0D1226811682048BC
:101870000140D4E901031843D4E903363343184344
:1018800063691843A3691843E3691843236A18433B
:101890000843616A042903D1D4E90B1319430843AF
:1018A000106020684069666A20F0070130460E43E8
:1018B000012704280CD1A06A0643E06A40B1204603
:1018C000FFF7A2F920B14020606584F83570BAE7CF
:1018D000206846612046FFF783F994F85C203F2199
:1018E00091408160656584F835700020ACE70000A8
:1018F0003F8010F02DE9F0410446866D90F83400E9
:10190000002501280DD0012084F8340094F83570AA
:101910000020012F07D084F8340002252846BDE8B6
:10192000F0810220FBE7022784F8357060652046CD
:10193000FFF794F994F85C103F208840B06020686D
:10194000016841F0160101602068416941F08001A1
:101950004161206C20B12068016841F008010160FC
:101960002068016841F001010160D7E770B50446C5
:1019700000F0FAF80546601C02D0044800780444E0
:1019800000F0F2F8401BA042FAD370BD50000020D6
:101990002DE9F84FDFF890B100224FF001084FF029
:1019A000030A4FF00F090BF1040E00BF0B6808FA91
:1019B00002F42340A3426ED14D68022D01D0122DB6
:1019C0000ED1D50800EB850CDCF820505607F70E39
:1019D00009FA07F6B5430E69BE402E43CCF82060E5
:1019E000066855000F790AFA05FC07F0030726EA96
:1019F0000C06AF40374307604E68012E05D0022E1B
:101A000003D0112E01D0122E0ED18768CE6827EA9E
:101A10000C07AE403E4386604668A6430C79C4F38B
:101A20000014944034434460C4688E6824EA0C0473
:101A3000AE402643C6604C68E4006FD53B4C256839
:101A400045F480452560246822F0030504F48044B1
:101A50000094374C2E19D6F8084895072F0F09FA2D
:101A600007F5AC43334DA84201D100252EE0324D9D
:101A7000A84201D1012529E0304DA84201D102251B
:101A800024E02F4DA84201D103251FE02D4DA8428F
:101A900002D104251AE041E02B4DA84201D10525D1
:101AA00014E02A4DA84201D106250FE0284DA84296
:101AB00001D107250AE0274DA84201D1082505E0FC
:101AC000254DA84201D1092500E00A25BD40254346
:101AD000C6F80858DBF800405D464E689C43F603A4
:101AE00000D51C432C60DEF8004075464E689C43D0
:101AF000B60300D51C432C600B4D08352C684E688E
:101B00009C43F60200D51C432C60074D0C352C6815
:101B10004E689C43B60200D51C432C60521C102A10
:101B2000FFF444AFBDE8F88F003C01404438024068
:101B30000030014000000240000402400008024062
:101B4000000C024000100240001402400018024045
:101B5000001C024000200240002402400AB18161C2
:101B600070470904FBE700000148806870470000E7
:101B7000500000200248816802781144816070475B
:101B8000500000200B4810B5016841F4007101605D
:101B9000016841F480610160016841F48071016075
:101BA000032000F073F80F2000F006F800F024F88E
:101BB000002010BD003C024070B50D4D04464FF4AE
:101BC0007A712878B1FBF0F00A490968B1FBF0F0AE
:101BD00000F05CFB48B9102C07D200222146501EB1
:101BE00000F034F800206C6070BD012070BD000072
:101BF000500000205C0000200C4882B0016841F4D5
:101C000080410160006800F4804000900748001F98
:101C1000016841F0805101600068002200F08050AE
:101C200000900F21901E02B000F010B8443802401E
:101C3000002809DB00F01F020121914040098000CB
:101C400000F1E020C0F8001170470000F0B40E4B26
:101C50001B680C46C3F30223C3F10705042D00D90A
:101C60000425191D072901D2002300E0DB1E0126EF
:101C700006FA05F1491E214099409E40761E164005
:101C80003143F0BC01F046BB0CED00E0064900F02A
:101C9000070208684FF6FF03184040EA0220034A93
:101CA00010430860704700000CED00E00000FA05EA
:101CB0002DE9F0470E46050065D0DFF81481D8F80D
:101CC0000000F7B200F00F00B04207D288F80070B1
:101CD000D8F8000000F00F00B04254D128683D4C05
:101CE000810712D5400703D5206840F4E0502060FA
:101CF0002878000703D5206840F460402060206801
:101D0000A96820F0F000084320602878C0072DD093
:101D1000304968680839012812D0022813D00328F6
:101D200011D00968890700292DDA216821F0030103
:101D300001432160FFF718FF814641F2883A0EE027
:101D400009688903EFE709688901ECE7FFF70CFFF1
:101D5000A0EB0901514502D90320BDE8F0872068B6
:101D6000696800F00C00B0EB810FEFD1D8F80010DB
:101D7000404601F00F01B14207D90770006800F03A
:101D80000F00B04201D00120E7E72878400705D5D1
:101D90002068E96820F4E0500843206028780007B4
:101DA00006D52068296920F4604040EAC10020601F
:101DB00000F036F82168084AC1F30311515CC840AD
:101DC000064908600F20FFF7F7FE0020C5E7000076
:101DD000003C024008380240005400085C0000202B
:101DE0000448054900680968044AC1F38221515C2E
:101DF000C84070475C0000200838024010540008BA
:101E00000448054900680968044AC1F34231515C3D
:101E1000C84070475C000020083802401054000899
:101E2000154810B5006810F00C02144813D014497E
:101E3000042A0FD0082A0ED10F4C241F22682368D1
:101E400002F03F025B0207D52068C0F38810A0FBB8
:101E5000010106E0084610BD2168C1F38811A1FB0D
:101E600000010023FEF71EFA2168C1F30141491C5D
:101E70004900B0FBF1F010BD083802400024F40026
:101E8000001BB7002DE9F84F050076D02878DFF861
:101E9000F8B2BE4CC00749D0DBF800105846C1F379
:101EA0008101012908D00068C0F3810002280AD10D
:101EB000201D0068400206D52068800336D568687A
:101EC0000028E2D032E06868B0F5803F10D0B0F56D
:101ED000A02F206810D020F480302060206820F4EB
:101EE000802020606868A0B1FFF73EFE06460CE047
:101EF000206840F48030F4E740F480202060F7E769
:101F0000FFF732FE801B642873D820688003F7D562
:101F10000CE0FFF729FE064605E000BFFFF724FEB0
:101F2000801B6428F0D820688003F7D42878DFF875
:101F3000608280074FF000093ED5DBF8001058465C
:101F400011F00C0F09D00068C0F3810002280BD1FA
:101F50008D48001F0068400206D42068800715D510
:101F6000E868012809D111E0E868B8B10120C8F893
:101F70000000FFF7F9FD064605E002E1FFF7F4FD7A
:101F8000801B0228C0D820688007F7D520682969FF
:101F900020F0F80040EAC10020600DE0C8F8009091
:101FA000FFF7E2FD064604E0FFF7DEFD801B022896
:101FB0001FD820688007F7D42878000722D5724EF2
:101FC000744869696C3671B101210160FFF7CCFD7D
:101FD000074604E0FFF7C8FDC01B022809D8306897
:101FE0008007F7D50EE0C0F80090FFF7BDFD07466B
:101FF00005E083E0FFF7B8FDC01B02287ED83068FB
:102000008007F7D42878400768D5DFF87CA100273F
:102010000AF1380ADAF80000C0000BD4DAF8001030
:1020200041F08051CAF80010DAF80000012700F0F2
:1020300080500090584E3068C00510D4306840F48D
:1020400080703060FFF790FD009005E0FFF78CFD99
:102050000099401A022851D83068C005F6D54A4E7A
:10206000A868683601280FD00528306810D020F005
:1020700001003060306820F004003060A868B8B11A
:10208000FFF772FD00900FE0306840F00100F4E7C8
:1020900040F004003060F7E7FFF766FD0099411A51
:1020A00041F28830814264D830688007F4D50EE070
:1020B000FFF75AFD009007E0FFF756FD0099411A1F
:1020C00041F28830814254D830688007F4D42FB16F
:1020D000DAF8001021F08051CAF80010A869C0B3E6
:1020E000DBF80010C1F3810102294AD002284846DA
:1020F00007D0C8F86000FFF737FD00E039E005467B
:102100003AE04746C8F86000FFF72EFD064604E0B7
:10211000FFF72AFD801B02282BD820688001F7D406
:10212000D5E907010843A96A1C4A490802EB0141A5
:102130006A6A41EA8211084395F82C1040EA01616D
:102140001148001F016001203866FFF70DFD0546AC
:1021500005E014E0FFF708FD401B022809D82068BD
:102160008001F7D50BE000BFFFF7FEFC401B022803
:1021700002D90320BDE8F88F20688001F4D4002044
:10218000F8E70120F6E70000083802400038024076
:1021900000004742800E4742007000400000FFFFF1
:1021A00070B5040005D00025A56294F8510010B167
:1021B00006E0012070BD84F85050204600F030F851
:1021C000022084F851002068016821F0400101607C
:1021D000D4E901010843D4E90312114308436169BA
:1021E0000843218B01F400710843E1690843216A27
:1021F0000843A16A084321680860A069042101EA34
:102200001040616A0843216848602068C16921F470
:102210000061C1616565012084F85100002070BD36
:1022200010B586B0044614216846FEF785F81449B7
:102230002068884221D113480021026842F48012AC
:102240000260006800F4801005900E48143802689F
:1022500042F020020260006800F0200005904FF478
:10226000607000900220CDE9010103200390052059
:10227000049069460448FFF78BFB06B010BD0000D0
:1022800000500140443802400014024010B5401E86
:10229000B0F1807F01D3012010BD4FF0E0246061D8
:1022A0000F21601701F036F80020A061072020619F
:1022B000002010BD10B586B0044614216846FEF714
:1022C0003BF80E492068884215D10D48002102686C
:1022D00042F080020260006800F08000059040201B
:1022E00000900220CDE901010920CDE903106946E3
:1022F0000448FFF74DFB06B010BD00000018004079
:1023000030380240001C024070B5044690F83C0092
:102310000D4601280DD0012684F83C60022084F887
:102320003D0042B1042A18D0082A2AD00C2A4DD1E7
:1023300039E0022070BD206800F010FD206881693E
:1023400041F0080181612068816921F00401816107
:10235000206881692A69114311E0206800F02EFD90
:102360002068816941F4006181612068816921F4FC
:1023700080618161206881692A6941EA0221816165
:1023800024E0206800F050FD2068C16941F0080198
:10239000C1612068C16921F00401C1612068C1697F
:1023A0002A69114311E0206800F072FD2068C169BC
:1023B00041F40061C1612068C16921F48061C1619B
:1023C0002068C1692A6941EA0221C16184F83D603F
:1023D000002084F83C0070BD10B5040003D094F8D0
:1023E0003D0010B107E0012010BD002084F83C0042
:1023F000204600F00DF8022084F83D00211D2068E1
:1024000000F048FC012084F83D00002010BD0000D1
:1024100008B500680649884208D10648016841F0BD
:1024200040010160006800F04000009008BD00001D
:10243000001800404038024010B504460068416969
:1024400094F83920C1F3C011212A0BD151B141694F
:1024500021F080014161206B08B1FFF7CAF82046E6
:1024600000F094FD2068416994F83A20C1F380118E
:10247000222A0BD151B1416921F040014161606BC9
:1024800008B1FFF7B6F8204600F072FD002010BD3D
:1024900008B5C16B082903D1006801684068009045
:1024A00008BD70B5040004D094F83900002510B1BF
:1024B00006E0012070BD84F83850204600F022F874
:1024C000242084F839002068C16821F40051C160DB
:1024D000204600F085FD2068016921F490410161EA
:1024E0002068416921F02A0141612068C16841F4F6
:1024F0000051C160E563202084F8390084F83A0077
:10250000002070BDF0B587B0064614216846FDF77F
:1025100013FFDFF8CCC030680025324902220123C6
:102520000324082760451AD12E481030056845F06D
:1025300080450560006800F080400590086840F024
:10254000100008600868694600F010000590E0017E
:102550008DE89D002448FFF71BFA07B0F0BDDFF8B7
:102560008CC06045F9D11F481430D0F800C04CF041
:10257000200CC0F800C0006800F02000059008683A
:1025800040F0400008600868694600F0400005908F
:102590004FF484408DE89D001548FFF7F9F9164C7B
:1025A000144820608005C4E901054FF48060C4E947
:1025B000035080106561C4E90650256220466562BB
:1025C000FFF72EF908B1FEF7EAFB7463002205213C
:1025D0004720A663FFF73AFB4720FFF729FBBCE73C
:1025E00000780040303802400010024000140140E2
:1025F0000018024028640240300D0020F8B504465F
:1026000090F83A0020283CD1C1B3BAB394F838000E
:10261000012836D0012084F83800A162A285002567
:10262000E563222084F83A00636B1748D863636B34
:1026300016481864636B1648D864606B13460565CA
:102640000846666B216802463046091DFFF752F9BD
:10265000206801684168009184F83850C16841F4ED
:102660008071C1602068416941F0010141612068C9
:10267000416941F0400141610020F8BDFFE70120C0
:10268000FBE70220F9E700002B2F0008672F000866
:10269000E12E000870477047FEE70000104810B5B3
:1026A0000E4901600321416000214FF40022816046
:1026B000C0E903124FF440124261017601224276D2
:1026C0008176C17601774177FEF7E5FD002803D0DA
:1026D000BDE81040FEF763BB10BD00000064004081
:1026E00074090020104810B50E49016003214160B3
:1026F00000214FF400228160C0E903124FF4401220
:1027000042610176012242768176C1760177417776
:10271000FEF7C1FD002803D0BDE81040FEF73FBB27
:1027200010BD0000006800409C090020094808B561
:10273000016841F4800101600068002200F480001B
:10274000009005213920FFF781FABDE808403920C3
:10275000FFF76EBA3038024010B59CB01C22164903
:102760006846FDF7D0FD0021684601F072FE134C6B
:1027700011491C2220601C3107A8FDF7C4FD00216F
:1027800007A801F066FE0C4960601C2238310EA8D3
:10279000FDF7B9FD00210EA801F05BFE0649A0601F
:1027A0001C22543115A8FDF7AEFD002115A801F03B
:1027B00050FEE0601CB010BD8853000840000020AF
:1027C0002DE9F04387B014216846FDF7B5FD3C487C
:1027D0000024016841F002010160016801F002017A
:1027E0000591016841F040010160016801F040017C
:1027F0000591016841F008010160016801F00801DC
:102800000591016841F480710160016801F48071F3
:102810000591016841F080010160016801F08001CB
:102820000591016841F020010160016801F020017B
:102830000591016841F0100101600068DFF88480B3
:1028400000F0100044F24006059000223146404658
:10285000FFF784F9DFF870904FF4006700223946E3
:102860004846FFF77BF90125CDE900546946174832
:102870000294FFF78DF80096CDE901546946404671
:102880000394FFF785F84FF4E050CDE90004694662
:102890000F480294FFF77CF8E803CDE9000469468D
:1028A0000C480294FFF774F80097CDE9015469468B
:1028B00048460394FFF76CF807B0BDE8F0830000CA
:1028C0003038024000140240001002400020024054
:1028D000001C0240000C0240104810B50E49016077
:1028E0004FF48271416000218160C1604FF4007239
:1028F0000161C0E905123022C0E90721416281620D
:102900000A21C162FFF74CFC002803D0BDE810404B
:10291000FEF745BA10BD000000500140180C002021
:1029200010B588B01C216846FDF706FD10480F4918
:102930000024C0E900148460C46004618461FFF76E
:102940004BFD08B1FEF72BFA6020CDE9000402949C
:102950000022694606480494FFF7D6FC08B1FEF74A
:102960001EFA0348FFF7A6FC08B010BD001800408F
:10297000700C00200C4810B50A4901604FF4E13199
:102980004160002181600C22C160C0E904128161B4
:10299000C161FFF786FD002803D0BDE81040FEF7B7
:1029A000FEB910BD00780040B00C00200C4810B5F6
:1029B0000A4901604FF4E1314160002181600C223D
:1029C000C160C0E904128161C161FFF76AFD00289E
:1029D00003D0BDE81040FEF7E2B910BD001401407D
:1029E000F00C0020FEE77047F0B514460E4607468F
:1029F000FEF7D6F90346384600F0B8F80146002045
:102A000002E03A5C3254401C9842FADB0025F5544F
:102A1000581C06E0A0EB030C3A5CA444401C0CF8E4
:102A2000012C8842F6DB65545B1C04D131463846E4
:102A3000FEF7B6F82570F0BD2DE9F04106462DED04
:102A4000088B4FF000089FED438B4446B0EE489A48
:102A5000F0EE689A305D58B1A0F130010A2903D335
:102A60002E2801D02D2803D1641CE4B20A2CF1D306
:102A7000002504E0705D2E2803D06D1CEDB2A54248
:102A8000F8D300279FED35AB15E0F05D2D2818D069
:102A90003038FDF7E4FD41EC1B0B53EC1A2B51ECE5
:102AA000190BFDF7FBFC53EC1B2BFDF750FC41EC25
:102AB000190B7F1CFFB2AF42E7D37F1CFDB22F463C
:102AC00018E04FF00108F4E7705D30380A2813D29F
:102AD000FDF7C5FD41EC1B0B53EC1A2B51EC180B09
:102AE000FDF7DCFC53EC1B2BFDF731FC41EC180B24
:102AF0006D1CEDB2A542E7D300259FED1AABE41B98
:102B00000AE000BF53EC1A2B51EC180BFDF7C6FC82
:102B100041EC180B6D1CEDB2AC42F3DC53EC182BFE
:102B200051EC190BFDF713FC41EC100BB8F1000F41
:102B300005D051EC100B81F0004141EC100B51EC31
:102B4000100BFDF7B0FDBDEC088B00EE100ABDE8E0
:102B5000F081000000000000000000000000000004
:102B6000000024409A9999999999B93F014600200B
:102B70000A5C401C002AFBD1401E704770B50B4612
:102B8000074C04E0E618C55C761A5B1C357093426E
:102B9000F8DB00202244511A0870014870BD000083
:102BA0003003002010B5FEF7E5FF02F00BFB012813
:102BB00003D0BDE8104002F097BA10BD30B593B015
:102BC00030216846FDF7B8FB14210CA8FDF7B4FBD3
:102BD00019480025016841F080510160006800F04B
:102BE000805011901548016841F44041016000682F
:102BF000022400F440401190012000900004019054
:102C00008001CDE9064006200890A820CDE90904FE
:102C100004200B906846FFF735F90CA90F2081E8D6
:102C200031004FF4A0500F90E002109005210CA845
:102C3000FFF73EF813B030BD40380240007000404E
:102C40001048016841F4700101600F48016841F0CB
:102C5000010101600C4A00210832116002680B4B2F
:102C60001A400260031D0A4A1A60026822F4802298
:102C7000026005480C30016002495806803908603E
:102C80007047000088ED00E000380240FFFFF6FECC
:102C900010300024F0B50268254C264D264E274FF3
:102CA000274B4FF0804CA04209D0604507D0A84286
:102CB00005D0B04203D0B84201D0984204D122F0EE
:102CC000700E4A6842EA0E02A0421BD0604519D03D
:102CD000A84217D0B04215D0B84213D0984211D0B4
:102CE000184DA8420ED0184DA8420BD0174DA8423F
:102CF00008D0174DA84205D0164DA84202D0164D57
:102D0000A84203D122F44075CA682A434D6922F0D3
:102D100080022A4302608A68C2620A688262A04214
:102D200001D0984201D10969016301214161F0BDDF
:102D3000000001400004004000080040000C00407A
:102D400000040140004001400044014000480140AF
:102D500000180040001C004000200040F0B5026A4E
:102D600022F001020262036A42688469124E24F072
:102D700073050C682C4323F002058B682B430D4D23
:102D8000A84201D0B04205D123F00807CB683B43ED
:102D900023F00403A84201D0B04205D14D6922F4CA
:102DA000407215438A692A434260846149684163DD
:102DB0000362F0BD0000014000040140F0B5026A6A
:102DC00022F010020262026A436884690D6824F4EA
:102DD000E64444EA05248D6822F0200242EA051206
:102DE0000F4D104EA84201D0B04206D1CF6822F05C
:102DF000800242EA071222F04002A84201D0B0420B
:102E000007D14D6923F4406343EA85038D6943EAA2
:102E1000850343608461496881630262F0BD0000FC
:102E20000000014000040140F0B5026A22F4807203
:102E30000262026A4368C46922F4007224F07305D6
:102E40000C68124E2C438D6842EA05220E4DA842B2
:102E500001D0B04206D1CF6822F4006242EA0722D4
:102E600022F48062A84201D0B04207D14D6923F418
:102E7000405343EA05138D6943EA05134360C46177
:102E80004968C1630262F0BD0000014000040140D6
:102E900030B5026A22F480520262046A4268C36951
:102EA0000D6823F4E64343EA05238D6824F40054B7
:102EB00044EA0534084DA84202D0084DA84204D186
:102EC0004D6922F4804242EA85124260C36149683A
:102ED0000164046230BD00000000014000040140B4
:102EE00070B5846B2068406994F83910C0F3C01045
:102EF0000025212904D118B1E584204600F046F8C8
:102F00002068406994F83A10C0F38010222904D157
:102F100018B1E585204600F02BF8E06B40F010007A
:102F2000E0632046FFF7B4FA70BD10B50146806B30
:102F300009680968C90513D40021C1850168CA68F8
:102F400022F48072CA6001684A6922F001024A6173
:102F500001684A6922F040024A61202180F83A1053
:102F6000FFF798FB10BD10B5806BFFF794FB10BD09
:102F70000168CA6822F49072CA6001684A6922F046
:102F800001024A61202180F83A1070470168CA683E
:102F900022F0C002CA60202180F83910704700007A
:102FA00008B500680B49884212D10B4800680168D7
:102FB000C943C9060CD40168406800900648FFF771
:102FC0003BFABDE80840012204490348FFF716BB5D
:102FD00008BD000000140140F00C0020380800205B
:102FE0002DE9F041044600680169E26821F440518E
:102FF000114301612169A068E269084361691143D5
:1030000022680843D16849F20C6399430143D160B7
:1030100020684169A26921F4407111434161E2696C
:103020006425B2F5004F9748974922684FF032085F
:103030003FD08A4201D082427CD1FEF7E1FE00EB14
:10304000C00101EB001061688900B0FBF1F6FEF7EA
:10305000D7FE00EBC00101EB001061688900B0FBF6
:10306000F1F0B0FBF5F06FF01801484306EB80017A
:1030700008EB0110B0FBF5F000F0F006FEF7C0FE23
:1030800000EBC00101EB001061688900B0FBF1F0BA
:10309000B0FBF5F006EB0016FEF7B2FE00EBC00148
:1030A00001EB001061688900B0FBF1F7FEF7A8FEA4
:1030B000D2E08A4201D082423DD1FEF7A1FE00EB70
:1030C000C00101EB001061684900B0FBF1F0B0FBFA
:1030D000F5F00601FEF794FE00EBC00101EB0010D5
:1030E00061684900B0FBF1F7FEF78AFE00EBC00112
:1030F00001EB001061684900B0FBF1F0B0FBF5F0A6
:103100006FF01801484307EB800108EBC100B0FBEA
:10311000F5F000F0F80006EB4006FEF771FE00EB5C
:10312000C00101EB001061684900B0FBF1F7FEF748
:1031300067FE3CE055E0FEF753FE00EBC00101EBFB
:10314000001061684900B0FBF1F0B0FBF5F006013A
:10315000FEF746FE00EBC00101EB0010616849007C
:10316000B0FBF1F7FEF73CFE00EBC00101EB0010F5
:1031700061684900B0FBF1F0B0FBF5F06FF01801A9
:10318000484307EB800108EBC100B0FBF5F000F00D
:10319000F80006EB4006FEF723FE00EBC00101EB52
:1031A000001061684900B0FBF1F7FEF719FE00EB73
:1031B000C00101EB001061684900B0FBF1F0B0FB09
:1031C000F5F06FF01801484307EB800108EBC100F0
:1031D000B0FBF5F000F00700216830448860BDE8DE
:1031E000F081FEF7FDFD00EBC00101EB001061680E
:1031F0008900B0FBF1F6FEF7F3FD00EBC00101EB37
:10320000001061688900B0FBF1F0B0FBF5F06FF0E1
:103210001801484306EB800108EB0110B0FBF5F004
:1032200000F0F006FEF7DCFD00EBC00101EB001042
:1032300061688900B0FBF1F0B0FBF5F006EB001619
:10324000FEF7CEFD00EBC00101EB001061688900C4
:10325000B0FBF1F7FEF7C4FD00EBC00101EB00107D
:1032600061688900B0FBF1F0B0FBF5F06FF0180178
:10327000484307EB800108EB0110B0FBF5F000F0CC
:103280000F00A9E700140140001001400148FFF7BA
:1032900087BE0000F00C00200123024A02490348C7
:1032A00000F006B838080020300D0020F00C002097
:1032B0002DE9F041044600680F461D464168164658
:1032C0003846FEF717FB2068416941F04001416133
:1032D0002068C16841F01001C1602A46314620468D
:1032E000FFF78CF92068416941F001014161BDE8B7
:1032F000F081FEE70FB4054B10B503A9044A02980C
:1033000000F0DAF810BC5DF814FB00005941000829
:10331000C00000200907090E002804DB00F1E020AE
:1033200080F80014704700F00F0000F1E02080F8F2
:10333000141D704702E008C8121F08C1002AFAD104
:1033400070477047002001E001C1121F002AFBD125
:10335000704700002DE9FF5FDDE90220010DDDF877
:1033600038B0024318D044F61050A1F2FF31414367
:103370000D140F98012820D0A5EB0B00401C5FEA2C
:10338000000A4FF00004474EDFF81C91A04650465B
:1033900016D5CAF1000728E00F98012443A201289E
:1033A00008D0002100980F9BC0E90021C0E902432A
:1033B000BDE8FF9F6FEA0B01F4E7CBF10000DEE709
:1033C000074612E0F80707D02246334640464946F2
:1033D000FDF764F880468946224633461046194672
:1033E000FDF75CF804460E467F10002FEAD1DDE9B8
:1033F0000201BAF1000F42464B4602DAFDF74EF8E1
:1034000001E0FDF7BDF804460E460022284BFDF70B
:1034100059FA03D84FF0FF30014607E00022254B50
:1034200020463146FCF793FFFDF734FA102409E0FB
:10343000002C0ADB0A220023FCF734FF019B303208
:103440001A55641E50EA0102F2D1641C019AC4F1BB
:10345000110314440F9A012A03D0012208430DD10D
:103460000AE0084304D000204FF0110B0F9080E7D2
:10347000A3EB0B056D1E0DE05B4504DD4FF0000274
:1034800005F1010504E003DA4FF00002A5F10105A2
:10349000002AECD000980F99C0E90231C0E900453C
:1034A00086E70000000024400000F03F30000000EC
:1034B0000000F0430000E03F2DE9FF4F95B09B4630
:1034C0008946064600250FE2252877D100242746A5
:1034D000F84A0121059400E0044316F8013F203B1F
:1034E00001FA03F01042F7D130782A2811D06FF09A
:1034F0002F033078A0F13002092A16D8059A44F03B
:10350000020402EB820203EB42021044761C059097
:10351000EFE759F8042B0592002A03DA504244F4ED
:103520000054059044F00204761C30782E2816D101
:1035300016F8010F44F004042A280DD06FF02F0272
:103540003078A0F13003092B09D807EB870302EB91
:103550004303C718761CF3E759F8047B761C3078D0
:103560006C280FD006DC4C2817D068280DD06A28AC
:1035700014D104E0742810D07A280FD10DE044F45F
:1035800000140AE044F4801401E044F4401472781A
:10359000824202D104F58014761C761C30786628AD
:1035A0000BD013DC582877D009DC002875D04528CB
:1035B000F6D04628F4D047281AD19DE118E06328B8
:1035C00035D0642879D0652812D195E1702873D060
:1035D00008DC6728F1D069286FD06E280DD06F28DD
:1035E00006D1B5E073282CD0752875D0782874D012
:1035F0005A46179990476D1C75E1C4F30250022892
:1036000009D003280DD0D9F8001004280DD00D6082
:1036100009F1040967E1D9F80010EA17C1E900527D
:10362000F6E7D9F800100D80F2E70D70F0E719F811
:10363000041B8DF8001000208DF80100EA460120DF
:1036400003E059F804AB4FF0FF3061074FF0000181
:1036500002D40DE008F101018846B9420FDA804535
:10366000F8DB1AF808100029F4D108E008F101018C
:1036700088468142FADB1AF808100029F6D105982D
:103680005B46A0EB080721463846179A00F094FAEB
:10369000284400EB080507E04DE029E10DE01AF8A9
:1036A000010B5A4617999047B8F10108F7D25B46CB
:1036B00021463846179A13E142E00A220092C4F3E9
:1036C00002524FF0000A022A08D059F804CB032A0C
:1036D0004FEAEC710AD00DE029E02AE009F1070178
:1036E00021F00702F2E802C1914609E00FFA8CFCD2
:1036F0004FEAEC71042A03D14FFA8CFC4FEAEC71CB
:10370000002907DA0A460021DCF1000C61EB020116
:103710002D2202E0220504D52B228DF8042001225F
:1037200003E0E20701D02022F7E7904659E00A21A2
:1037300002E010220DE010214FF0000A00910BE092
:1037400010224FF0000A44F004040827009203E01E
:1037500008224FF0000A0092C4F30252022A05D058
:1037600059F804CB0021032A08D009E009F1070128
:1037700021F00702F2E802C1914605E01FFA8CFC35
:10378000042A01D10CF0FF0C4FF00008220728D5C5
:10379000702806D0009B83F0100353EA0A0305D07B
:1037A0000EE040228DF80420012208E05CEA0102CC
:1037B00006D030228DF804208DF8050002229046B4
:1037C000009B83F0080353EA0A030AD15CEA010272
:1037D00001D1620705D530228DF804204FF0010891
:1037E0007F1E582804D034A003900EA802900DE04C
:1037F00036A0F9E753466046009AFCF753FD84462D
:103800000398825C0298401E029002705CEA0100FC
:10381000F0D1029806A9081A00F1200A600702D523
:1038200024F4803400E00127574502DDA7EB0A00AD
:1038300000E0002000EB0A01009005984144401A86
:103840000590E00306D45B462146179A059800F0E0
:10385000B3F90544002706E001A85A46C05D179950
:1038600090476D1C7F1C4745F6DBE0030CD55B469B
:103870002146179A059800F09FF9054404E030208E
:103880005A46179990476D1C0099481E00900029D0
:10389000F5DC08E0029802995A460078491C02912A
:1038A000179990476D1CBAF10001AAF1010AF1DCE9
:1038B00065E10000092801003031323334353637F4
:1038C000383961626364656600000000303132336C
:1038D000343536373839414243444546000000000C
:1038E00000F058F90544761C307800287FF4ECADE0
:1038F00019B02846BDE8F08F620700D4062709F109
:10390000070222F0070CFCE80223E14603F000481E
:103910005FEA080C02D00FF2702C0DE05FEA045C45
:1039200002D50FF2682C07E05FEAC47C02D00FF2E8
:10393000602C01E0AFF2700C4FF0FF3823F0004331
:10394000CDF850C065280CD006DC452809D04628A3
:103950001DD047283DD13DE0662818D067287ED18C
:1039600038E00021112F01DB112000E0781CCDE9A7
:10397000000106A90EA8FFF7EDFCDDE90F010E9A84
:1039800003910021009207F1010A04914DE04FF0EC
:1039900000400097CDE9011006A90EA8FFF7DAFC58
:1039A000DDE90F0203920E9B11990022DDF80CA0B5
:1039B0000093049211B9791C00EB010AB7EB0A00DD
:1039C00004D4C0F1FF3007F1010A0490AAEB07000C
:1039D000019044E0012F00DA01270021112F01DDC1
:1039E000112000E03846CDE9000106A90EA8FFF736
:1039F000B1FCDDE90F010E9A0391002104910092C0
:103A0000BA4621070CD40399514500DA8A46BAF127
:103A1000010F05DD009AAAF10101515C302908D09F
:103A2000B84202DA10F1040F06DA0121CDE90110E3
:103A300015E0AAF10101E9E7002805DC0499014439
:103A40000491AAEB000102E0411C514500DD8A46C9
:103A50000499401A401C01904FF00040029020074A
:103A600004D40198504501DBCDF8048000208DF886
:103A70004F0002980DF14F07B0F1004F25D02B20D9
:103A80000E9002984FF0020800280CDA4042029093
:103A90002D200E9007E00A210298FCF720FE30311D
:103AA000029007F8011DB8F10001A8F10108F2DC4D
:103AB00002980028EFD1791E0E980870307800F037
:103AC000200040F0450007F8020D12A8C01B00F1CD
:103AD00007081498007800B1012000EB0A01019852
:103AE00001EBE07105984144401A401E0590E00347
:103AF00006D45B462146179A059800F05DF8054408
:103B00001498007818B15A46179990476D1CE00335
:103B100024D55B462146179A059800F04DF80544D8
:103B20001CE00498002807DBDDE90301884203DD7F
:103B30000098405C179901E0179930205A46904749
:103B4000049805F10105401C04900198401E019065
:103B500004D12E205A46179990476D1CBAF10001E6
:103B6000AAF1010ADDDC05E017F8010B5A461799A6
:103B700090476D1CB8F10001A8F10108F4DC5B4628
:103B80002146179A0598ABE62D0000002B00000097
:103B9000200000002DE9F041044600251E4617468E
:103BA000880404D405E039462020B0476D1C641E0B
:103BB000F9D52846BDE8F0812DE9F04104460025FD
:103BC0001E469046C80301D5302700E02027880410
:103BD00004D505E041463846B0476D1C641EF9D552
:103BE0002846BDE8F081000070B58AB000240125A8
:103BF00003940E26CDE9085605940194029400948E
:103C000069460E480494CDE90645FDF74BF9CDE928
:103C1000065444F2E00000904FF48240019046F2D6
:103C20002000029003AA089546F2400082E8510065
:103C300069460348FDF736F90AB070BD74090020E3
:103C40009C09002010B50848FDF7A0FC0221064899
:103C5000FDF7B2F80548FDF799FCBDE810400221D8
:103C60000248FDF7A9B80000740900209C09002053
:103C70002DE9F0472DED028B84B082466CA1FCF754
:103C800077FF00284ED16BA15046FCF771FF00284A
:103C9000F8D169A15046FCF76BFF0028F2D167A16B
:103CA0005046FCF765FF0028ECD165A15046FCF7B3
:103CB0005FFFDFF890819FED648BD0B1D8F80400EE
:103CC000FCF7DEFC53EC182BFCF741FBFCF7EBFC9C
:103CD0008146C8F80400D8F81400FCF7D1FC064669
:103CE0000F46D8F81000FCF7CBFC04460D464846BA
:103CF0000DE057A15046FCF73BFFA0B1D8F81000EB
:103D0000FCF7BEFC53EC182BFCF721FB50E0FCF752
:103D1000B7FC8DE8F00041EC100B4EA053EC102BDB
:103D2000FFF7E8FA7DE050A15046FCF721FF40B1D3
:103D3000D8F81400FCF7A4FC53EC182BFCF707FB95
:103D400050E04AA15046FCF713FF20B3D8F8040016
:103D5000FCF796FC53EC182BFCF79AFBFCF7A3FC42
:103D60008146C8F80400D8F81400FCF789FC064620
:103D70000F46D8F81000FCF783FC04460D46484671
:103D8000FCF77EFC8DE8F00041EC100B31A053EC09
:103D9000102BFFF7AFFA36A15046FCF7E9FEA0B1B1
:103DA000D8F81000FCF76CFC53EC182BFCF770FBF8
:103DB000FCF779FC0446C8F81000D8F81400FCF7AA
:103DC0005FFC06460F46204616E02AA15046FCF747
:103DD000CFFEC0B1D8F81400FCF752FC53EC182BFE
:103DE000FCF756FBFCF75FFCC8F81400FCF748FC36
:103DF00006460F46D8F81000FCF742FC04460D4674
:103E0000D8F8040083E71CA15046FCF7B1FE002857
:103E100008D09FED1A0A88ED010A88ED040A88EDA2
:103E2000050A002004B0BDEC028BBDE8F08700005D
:103E300061000000620000006300000064000000F8
:103E400075000000000000209A9999999999A93F5E
:103E500069000000503D25662020493D2566202050
:103E6000443D25660D0A00006F0000006A00000056
:103E70006B0000006C0000007000000000000000FB
:103E8000184D194C298819A0FFF734FAE9881EA0AB
:103E9000FFF730FAA98923A0FFF72CFA698A27A037
:103EA000FFF728FA298B2CA0FFF724FA218830A0ED
:103EB000FFF720FAB4F8481035A0FFF71BFAB4F862
:103EC00090103BA0FFF716FAB4F8D81040A0FFF707
:103ED00011FAB4F8201146A0FFF70CFAC82000F040
:103EE00099FACFE7D4080020D00600204650535B53
:103EF0004C65667455704C6966745D20093D2025DB
:103F000064200D0A000000004650535B5269676848
:103F10007455704C6966745D20093D202564200D40
:103F20000A0000004650535B4C656674466C69702D
:103F30005D2009093D202564200D0A004650535B91
:103F40005269676874466C69705D2009093D2025D7
:103F500064200D0A000000004650535B4D69645315
:103F60006C69705D200909093D202564200D0A0057
:103F70004D6F746F446174615B4C65667455704C31
:103F80006966745D20093D202564200D0A0000004B
:103F90004D6F746F446174615B52696768745570EA
:103FA0004C6966745D203D202564200D0A000000E8
:103FB0004D6F746F446174615B4C656674466C69E7
:103FC000705D2009093D202564200D0A00000000D5
:103FD0004D6F746F446174615B5269676874466CBD
:103FE00069705D20093D202564200D0A0000000055
:103FF0004D6F746F446174615B4D6964536C69709B
:104000005D2009093D202564200D0A00DFF8ACB0D1
:1040100008B54FF4006A012251465846FDF79EFD4F
:10402000012291032648FDF799FD00F006FADFF81A
:104030009880244D4FF06409002608F16804009030
:10404000FDF792FD2968401A6860FDF78DFD286034
:1040500000F034F9D8F8000038B101225146584632
:10406000FDF77CFD00F0CCF807E0A8F864600022C2
:104070004FF480411248FDF771FD00204FEA09011D
:1040800000EB400204EB42034FF47A775B88401C5C
:104090007B43B3FBF1F324F812300A28F0DB002055
:1040A00000EB400104EB4101401C0E608E800A28A9
:1040B000F6DB6421684600F0B4F9C1E70010024065
:1040C00000140240340000206C08002010B5028863
:1040D00042800B885CBA0480A21AC368B2F5805F84
:1040E00004DD5B1EA2F50052C36006E012F5805F9E
:1040F00003DA5B1C02F50052C360826204EB4332B8
:10410000038C9FED0C1AD21A00EE102A0261F8EE11
:10411000C00A80EE810ADFED080A80ED050A80EE14
:10412000201A80ED061A4A8852BAC280498849BAD4
:10413000018110BD610BB6410000104210B5054968
:1041400001EBC004207A002803D0FDF70DFDE168E3
:10415000486010BD6C08002004490A685206FCD56E
:10416000024AC1B2121D11607047000000140140E4
:1041700001A0FFF7BFB80000476F310D0A00000033
:10418000EFF30580002800D0012070472DE908409A
:1041900001F026F8009000F0ABFD00F0C9FD3221DF
:1041A000684600F03EF9F3E7FDF7ECFCFEF706FD8C
:1041B000FEF706FBFEF7BAFAFEF770FAFEF792FA80
:1041C000FEF7AEFBFEF7F2FBFEF786FBFEF7D2FB37
:1041D000FFF762F84FF4FA742046FDF7C7FBFCF7CF
:1041E000B5FB2046FDF7C2FBFEF7B6FA00F020F95A
:1041F000FEE701460020842900D0C81C704700005B
:104200002DE9F0412A4C0025B4F86000401C80B232
:10421000A4F860003C2801D9A4F860502279254E0A
:1042200025484FF4C8774FF40061082A3DD2DFE8F3
:1042300002F03C040415151F3C28B4F86020012A44
:1042400002D03268556326E00022FDF787FC0CE0BF
:10425000FDF784FCA4F86450BDE8F081B4F8602058
:10426000012A1AD0072A18D015E030684763F3E70F
:10427000B4F86020012A10D0072A0ED00D2A0CD0E5
:1042800009E0B4F86020012A07D0072A05D00D2ADA
:1042900003D0132A01D00122DAE70022FDF75EFCE9
:1042A00034F8620F40086080DFE70022D0E70000AA
:1042B0006C080020700C0020001002402DE9F04135
:1042C0004FF00008464601254746134CFDF74CFCCD
:1042D00004EBC501CA689388C01A80B250800A7A7C
:1042E00072B1CA68128890420AD901204872887A4D
:1042F000761C404505DD083121608046257100E0CF
:104300004F726D1CEDB2072DE0D9002E01D1276050
:104310002771BDE8F08100006C0800202DE9FF4105
:10432000174D95ED020B51EC100BFCF7BCF9154E37
:104330008046706095ED040B51EC100BFCF7B3F95F
:10434000B06095ED060B044651EC100BFCF7ABF991
:10435000F060FCF795F906460F462046FCF790F909
:1043600004460D464046FCF78BF98DE8F00041EC21
:10437000100B05A053EC102BFEF7BCFFBDE8FF812E
:104380009803002000000020504F3A256620494F36
:104390003A256620444F3A25660D0A0070B50C4C4C
:1043A00094ED020B51EC100BFCF77DF9094D2861DF
:1043B00094ED040B51EC100BFCF775F9686194ED6A
:1043C000060B51EC100BFCF76EF9A86170BD0000F4
:1043D000980300200000002070B50C4C94ED020BF7
:1043E00051EC100BFCF75FF9094DE86194ED040BFB
:1043F00051EC100BFCF757F9286294ED060B51ECC9
:10440000100BFCF750F9686270BD000098030020A3
:104410000000002010B500B9012000F007FD0020C9
:1044200010BD10B501B9012100F026FD002010BD1E
:1044300010B500F067FD002010BD10B5FFF7A0FE1D
:1044400018B1BDE8104000F0D1BEBDE8104000F04A
:10445000C7BE7FB50D4604464169B0F9080081B179
:10446000A16971B1FFF7C5FED4E905128DE8070017
:10447000D4E900102B46226900F079FE039004B0C5
:1044800070BDFFF7B6FE03A9CDE90001208A2B46D7
:1044900082B2D4E9001000F03DFE012801D00020D6
:1044A000EDE70398EBE7000010B504462DED0A8B0D
:1044B00030EE608A30EE600A80ED048A80ED078A73
:1044C00090ED0B9AD0ED089AF0EEC08AB5EEC09A46
:1044D000F1EE10FA06D1B0EE480A39EE800A84ED0A
:1044E000080A39E0B0EEC90AF4EEC08AF1EE10FA1B
:1044F00032D2B0EE480A10EE100AFCF7C1F841ECD7
:104500001B0B19EE100AFCF7BBF841EC1A0BB0EECE
:10451000680A10EE100AFCF7B3F841EC1C0B19EE18
:10452000100AFCF7ADF853EC1C2BFBF7B1FF53EC72
:104530001A2BFCF725F853EC1B2BFBF7AFFF41ECD4
:104540001A0B19EE900AFCF79BF853EC1A2BFBF7A9
:10455000FEFEFCF7A8F8206294ED030AB5EEC00A4F
:10456000F1EE10FA0FD0D4ED080AF4EEC00AF1EE25
:1045700010FA06DCB1EE400AF4EEC00AF1EE10FAD1
:1045800001D284ED080AD4ED060AB0EE480A30EEF6
:10459000600A84ED090AD4ED0C0AF0EEE00AF4EEAC
:1045A000E08AF1EE10FA0CD210EE100AFCF768F86F
:1045B0009FED1D1B53EC112BFBF770FFFCF773F8FD
:1045C0006062B0EE480A84ED060A94ED000A94EDAC
:1045D000081A60EE080A94ED010A40EE010A94ED13
:1045E000020A94ED091A40EE010AC4ED050A94EDA1
:1045F0000A0AB5EEC00AF1EE10FA11D0F4EEC00AC4
:10460000F1EE10FA01DD84ED050AD4ED050AB1EEF4
:10461000400AF4EEC00AF1EE10FA01D284ED050A68
:10462000BDEC0A8B10BD00009A9999999999B93FF0
:10463000534C8CB0514D04F13400069005F1340018
:10464000059004F1D0004FF000084A4E4A4F04F1A3
:10465000680B04F19C0A05F16809019000F0C0FDA7
:104660000A9000F045FBD6ED050A97ED010A434894
:10467000FFF71AFFB6F9060000EE100A4048F8EE00
:10468000C00A95ED050AFFF70FFFB6F94E0000EEE0
:10469000100A0698F8EEC00A95ED050AB1EE400A38
:1046A000FFF702FFD6ED290A97ED040A0598FFF7F8
:1046B000FBFEB6F9960000EE100A5846F8EEC00A66
:1046C00095ED120AFFF7F0FEB6F9DE0000EE100AD3
:1046D0005046F8EEC00A95ED120AB1EE400AFFF717
:1046E000E3FED6ED4D0A97ED070A4846FFF7DCFEDC
:1046F000B6F9260100EE100A0198F8EEC00A95ED11
:104700001F0AFFF7D1FECDF8008094ED390ABDEE07
:10471000C00A10EE100A94ED2C0A03B2BDEEC00AD6
:1047200010EE100A94ED1F0A02B2BDEEC00A10EEA0
:10473000100A01B24FF4007000F048FA94ED050A37
:1047400000221146BDEEC00A10EE100A00B2009021
:1047500094ED120ABDEEC00A10EE100A03B240F248
:10476000FF1000F057FA00F0E3FA32210AA8FFF731
:1047700058FE73E7D006002050090020C400002036
:10478000600100202DE9F041184C0F46054666698E
:104790002068001D00F05AFA38B9206890F82C10F3
:1047A00001208840A1698143A161681C07D137B10C
:1047B0002168BDE8F0410E48091D00F08CBA206860
:1047C0003544B5424560216805D2A068BDE8F04196
:1047D000091D00F068BA6068091D00F064FA206BDA
:1047E000854200D22563BDE8F08100006000002012
:1047F0006C0E00202DE9F041054600F079FA2E4CB0
:104800002069401C206120682C4F10B1E06940B342
:104810002DE025602069012829D1002606EB8600BD
:1048200007EB800000F031FA761C072EF6D3234800
:104830008C3000F02AFA2148A03000F026FA1F48F8
:10484000B43000F022FA1D48C83000F01EFA1B48B0
:10485000DC3000F01AFA19488C3060601430A06027
:1048600005E02068E96AC06A884200D82560E06AED
:10487000401CE062E96A0120A26988401043A061FF
:1048800001EB810007EB8000291D00F024FA00F005
:104890004FFAE06900280CD02068E96AC06A8842B3
:1048A00007D207494FF080500860BFF34F8FBFF326
:1048B0006F8FBDE8F081000060000020900D0020A7
:1048C00004ED00E010B5044690F8510058B10128FD
:1048D0000CD002280FD0502080F31188BFF34F8FE7
:1048E000BFF36F8FFEE7206B00F036FA2046BDE87D
:1048F000104000F031BA10BD10484FF4705142071B
:1049000006D0C01D0D4920F00700411AC1F57051B5
:104910000B4A00230144C2E900030839103A21F090
:10492000070111604B600B600B1AC0E90013936024
:104930004FF000405360D06070470000800E0020B0
:10494000AC000020144E154CA6F1C8074FF080585B
:10495000DFF84C9012E000BF00F0CAF9F068C568BB
:10496000281D00F073F92069401E2061E068401E98
:10497000E06000F0DDF92846FFF7A4FFE0680028BA
:10498000EAD138680128F9D9C9F80080BFF34F8F00
:10499000BFF36F8FF2E70000580E00206000002088
:1049A00004ED00E02DE9F0479A46DDE909848146EF
:1049B0006FF00303206B03EB82021044089D20F08C
:1049C0000706700707D0502080F31188BFF34F8F80
:1049D000BFF36F8FFEE723180A5C83F834200A5C6C
:1049E00012B1401C1028F6D3002784F84370072D1D
:1049F00000D30625E562C4E91157201D00F050F9E7
:104A000004F1180000F04CF92461C5F1070064625C
:104A1000A061E76484F8507052464946304600F081
:104A2000BFF82060B8F1000F01D0C8F80040BDE821
:104A3000F087000030B5114900E011460A68824253
:104A4000FBD34B685C18844203D14068184448602B
:104A5000084643681C18944209D1084C103C24684D
:104A6000A24209D052681A4442600A681268026081
:104A7000814200D0086030BD0460F9E7AC0000203E
:104A800006484168096829B14168C968C968496828
:104A9000016370474FF0FF31FAE70000600000202B
:104AA00008484068401C4FF0500080F3118804D043
:104AB000BFF34F8FBFF36F8FFEE7BFF34F8FBFF38F
:104AC0006F8FFEE7B40000202DE9F0410546002776
:104AD00000F04EFA314E306808B9FFF70DFFF0686C
:104AE00005424BD1C5B3083568070ED005F0070065
:104AF000C0F108000544680707D0502080F31188F2
:104B0000BFF34F8FBFF36F8FFEE72DB37068854201
:104B100034D82248103001460C6801E020460C468B
:104B20006168A94202D221680029F7D131688C421C
:104B300024D007682168016060680837411B10298C
:104B40000FD96019420708D0502080F31188BFF3B5
:104B50004F8FBFF36F8FFEE710E041606560FFF796
:104B600069FF61687068401A7060B268904200D254
:104B7000B060F06801430020C4E9000100F0A2FB2E
:104B8000780707D0502080F31188BFF34F8FBFF311
:104B90006F8FFEE73846BDE8F08100009C000020E2
:104BA00010B5031F4FF080741C601B1F21F0010122
:104BB0001960191F044B0B6014390A60091F6FF04C
:104BC000020244380A6010BDA14A000830B40E4CFD
:104BD000029D20600020A060E060082020610B485A
:104BE0000C0A04704170110A8170C270190A0171B7
:104BF0004371290A8171C571024630BC0123024903
:104C00000348FCF7EBB80000B80600202A0000209B
:104C1000740900200A49009A086000208860C86072
:104C2000082008610748190A01714371110A81714E
:104C3000C2710246012302490348FCF7CFB80000C5
:104C4000B80600202A0000209C090020D0E901328B
:104C500001699A60D0E901235A604A68824201D111
:104C600082684A60002202610868401E0860086885
:104C700070470000034B036003F15400086080207C
:104C800010607047C4090020704700F108014FF020
:104C9000FF32C0E90112C16001610021016070476B
:104CA00000210161704730B50B685A1C02D000F139
:104CB000080202E0026904E02246546825689D4229
:104CC000FAD953684B6099608A6051600861016845
:104CD000491C016030BD42684A6093688B609368EC
:104CE0005960916008610168491C016070470000CB
:104CF000502080F31188BFF34F8FBFF36F8F0A49A5
:104D00004868401C486001280CD10848006810F031
:104D1000FF0F07D0502080F31188BFF34F8FBFF3F0
:104D20006F8FFEE770470000B400002004ED00E044
:104D30000849486828B1401E486001D180F31188B5
:104D40007047502080F31188BFF34F8FBFF36F8FF0
:104D5000FEE70000B400002070B5002827D0144DF5
:104D6000A0F108046168E868014207D1502080F38F
:104D70001188BFF34F8FBFF36F8FFEE722683AB100
:104D8000502080F31188BFF34F8FBFF36F8FFEE782
:104D90008143616000F0ECF860686968084468600D
:104DA0002046FFF747FEBDE8704000F08BBA70BDAB
:104DB0009C0000204FF0E020002101618161054945
:104DC0004FF47A720968B1FBF2F1491E4161072183
:104DD000016170475C00002010B5FBF74DFA1149E6
:104DE00010280ED300F1E02090F8F0030A789042EA
:104DF00007D2502080F31188BFF34F8FBFF36F8F1E
:104E0000FEE709480068896800F4E060884207D935
:104E1000502080F31188BFF34F8FBFF36F8FFEE7F1
:104E200010BD0000B40000200CED00E010B5020041
:104E300014D00F48806B38B1502080F31188BFF335
:104E40004F8FBFF36F8FFEE700F092F800211046FE
:104E5000FFF798FC00F036FA002807D105494FF01B
:104E600080500860BFF34F8FBFF36F8F10BD0000FD
:104E70006000002004ED00E070B50D4604000BD08A
:104E800095B11E4A906BB8B1502080F31188BFF3E2
:104E90004F8FBFF36F8FFEE7502080F31188BFF371
:104EA0004F8FBFF36F8FFEE7502080F31188BFF361
:104EB0004F8FBFF36F8FFEE700F05AF852692368F7
:104EC0005919934204D98B420AD9914202D807E07A
:104ED0008B42FAD9881A21600021FFF753FC00E0C9
:104EE000216000F0EFF9002807D105494FF080500C
:104EF0000860BFF34F8FBFF36F8F70BD600000205D
:104F000004ED00E010B586B00024039405AA04A9BE
:104F100003A80494FFF7AEFEDDE903010094CDE998
:104F2000011000230EA11048059A00F020F90F4946
:104F30000028486311D0502080F31188BFF34F8FB1
:104F4000BFF36F8F4FF0FF3008630120C8614C61E1
:104F500006B0BDE8104000F04DB806B010BD00002E
:104F600049444C450000000045490008600000200D
:104F70000248816B491C816370470000600000207B
:104F800010B51A4CA06B10B10120606210BD00205A
:104F90006062206821680068096B884204D8216833
:104FA00020683431FFF770FEA0691149B0FA80F033
:104FB000C0F11F0000EB800051F820206AB101EB26
:104FC000800000F10802416849684160914201D1C6
:104FD00049684160C868206010BD502080F3118886
:104FE000BFF34F8FBFF36F8FFEE70000600000201C
:104FF000900D00201CB537480168374A914207D10F
:10500000502080F31188BFF34F8FBFF36F8FFEE7FF
:1050100000683149491E884207D1502080F3118829
:10502000BFF34F8FBFF36F8FFEE72C4908780190D5
:10503000FF20087008788DF800009DF800009DF8AA
:10504000002000F0F000904207D0502080F311883B
:10505000BFF34F8FBFF36F8FFEE79DF80000204B2B
:1050600000F0500018700720986005E09DF80020BF
:1050700052008DF80020401E9DF800201206F5D445
:105080009860032807D0502080F31188BFF34F8F1A
:10509000BFF36F8FFEE74FF440709860019808707F
:1050A0000C482030016841F470010160016841F052
:1050B00070410160FFF77EFE00205860FBF7A4F806
:1050C0000848016841F040410160FBF789F8002081
:1050D0001CBD000000ED00E071C20F4100E400E0E3
:1050E000B400002034EF00E010B5502080F31188A8
:1050F000BFF34F8FBFF36F8F00F080F818B10449F2
:105100004FF080500860002080F3118810BD00002F
:1051100004ED00E02DE9FF5F8346DDE90E87994647
:1051200016468A469000FFF7CFFC05001CD054209D
:10513000FFF7CAFC040014D00020256384F8510056
:10514000CDE90240CDE900874B46324651465846EC
:10515000FFF728FC2046FFF74DFB012004B0BDE817
:10516000F09F2846FFF7F8FD4FF0FF30F6E7F0B567
:1051700085B0DDE90B640A9DA6B1DCB15427009728
:105180002663022684F85160002604AFCDE902466A
:10519000CDE90057FFF706FC2046FFF72BFB0498EC
:1051A00005B0F0BD502080F31188BFF34F8FBFF3DF
:1051B0006F8FFEE7502080F31188BFF34F8FBFF34E
:1051C0006F8FFEE70548C16919B1806B18B10020E7
:1051D00070470120704702207047000060000020E7
:1051E00001484069704700006000002010B5FFF7DB
:1051F000F3FD0148406910BD600000202DE9F04139
:105200002E4C0027A06B40B1206A401C2062606ACF
:1052100000B101273846BDE8F0816669761C6661F9
:1052200013D16068006838B1502080F31188BFF353
:105230004F8FBFF36F8FFEE76068A1686160A06069
:10524000A06A401CA062FFF71BFC206BDFF8708097
:10525000864209D36068006880B16068C068C5682C
:10526000686886420DD220632068C06A00EB800126
:1052700058F821000128CAD90127C8E74FF0FF30AC
:10528000F1E7281DFFF7E2FCA86A18B105F1180044
:10529000FFF7DCFCE86A0121A26981401143A161AA
:1052A00000EB800108EB8100291DFFF714FDE86A7F
:1052B0002168C96A8842CDD30127CBE7600000206E
:1052C000900D00202DE9F0472C4D00242746A86BB7
:1052D00038B1FFF70DFDA86B401EA863A86B40B165
:1052E00046E0502080F31188BFF34F8FBFF36F8FDC
:1052F000FEE72969224E0120D1B3A6F1B409804608
:105300003068E8B1F068C46804F11800FFF79EFC4B
:10531000201DFFF79BFCE06AAA6908FA00F111431F
:10532000A96100EB800109EB8100211DFFF7D3FC8F
:10533000E06A2968C96A8842E2D3C5F82480DFE7B9
:105340000CB1FFF79DFB2C6A44B14646FFF756FFB0
:1053500000B16E62641EF9D100202862686A38B11B
:105360000849012738070860BFF34F8FBFF36F8FDD
:10537000FFF7DEFC3846BDE8F08700006000002043
:10538000440E002004ED00E03C540008813E00087B
:10539000000000000000000080000000000000008D
:1053A000000000003054000831460008FDFF0000F6
:1053B00000000000000100000000000000000000EC
:1053C000245400088D410008FDFF0000000000008B
:1053D0000001000000000000000000001854000858
:1053E0000D400008FDFF00000000000080000000EC
:1053F0000000000000000000000610160006101655
:105400000000000000000000010203040607080974
:105410000000000001020304444554454354415335
:105420004B0000004C4F4749435441534B00000090
:105430005049445F5441534B00000000646566616D
:10544000756C745461736B00685400080000002090
:10545000C4000000343300082C550008C4000020AC
:10546000BC4D0000443300080000000000000000B4
:10547000000000000000000000000000000000002C
:10548000000000000000000000000000000000001C
:10549000000000000000000000000000000000000C
:1054A00000000000000000000000000000000000FC
:1054B00000000000000000000100000010000000DB
:1054C000000000000024F4000000000000000000C4
:1054D00000000000000000000000000000000000CC
:1054E00000000000000000000000000000000000BC
:1054F00000000000000000000000000000000000AC
:10550000000000000000000000000000000000009B
:10551000000000000000000000000000000000008B
:0C552000AAAAAAAA0000000000000000D7
:04000005080001AD41
:00000001FF
