:020000040800F2
:10000000A049002081020008AF220008611F0008FB
:10001000AD2200086D080008CD290008000000008E
:10002000000000000000000000000000C101000806
:1000300029090008000000001D020008B122000884
:100040009B0200089B0200089B0200089B0200081C
:100050009B0200089B0200089B0200089B0200080C
:100060009B0200089B0200089B0200089B020008FC
:100070009B0200089B0200089B0200089B020008EC
:100080009B0200089B0200089B0200089B020008DC
:100090009B0200089B0200089B0200089B020008CC
:1000A0009B0200089B0200089B0200089B020008BC
:1000B0009B0200089B0200089B0200089B020008AC
:1000C0009B0200089B0200089B0200089B0200089C
:1000D0009B0200089B0200089B0200089B0200088C
:1000E0009B0200089B0200089B0200089B0200087C
:1000F0009B0200089B0200089B0200089B0200086C
:100100009B0200089B0200089B0200089B0200085B
:100110009B0200089B0200089B0200089B0200084B
:100120009B020008A10800089B0200089B0200082F
:100130009B0200089B0200089B020008950800082B
:10014000710800087D080008890800089B02000863
:100150009B0200089B0200089B020008C1290008BE
:100160009B0200089B0200089B0200089B020008FB
:100170009B0200089B0200089B0200080000000090
:100180009B0200089B0200089B0200089B020008DB
:100190009B0200089B0200089B0200089B020008CB
:1001A00000000000000000009B020008DFF80CD0F7
:1001B00000F04AFB00480047512B0008A0490020EE
:1001C0002C4B19680868B0E8F04F80F30988BFF33A
:1001D0006F8F4FF0000080F311887047000000001F
:1001E00008480068006880F308884FF0000080F33A
:1001F000148862B661B6BFF34F8FBFF36F8F00DF15
:1002000000BF00BF08ED00E0DFF80C00016841F41A
:1002100070010160704700BF88ED00E0EFF30980D6
:10022000BFF36F8F134B1A681EF0100F08BF20ED3D
:10023000108A20E9F04F106009B44FF0500080F3AD
:100240001188BFF34F8FBFF36F8F03F0C9FA4FF0E0
:10025000000080F3118809BC19680868B0E8F04F05
:100260001EF0100F08BFB0EC108A80F30988BFF3AE
:100270006F8F704738000020EFF305807047000053
:100280000648804706480047FEE7FEE7FEE7FEE730
:10029000FEE7FEE7FEE7FEE7FEE7FEE74D23000888
:1002A000AD0100082DE9F05F0546002092469B460F
:1002B00088460646814640241BE02846414647467C
:1002C000224600F00AFA53465A46C01A914110D30A
:1002D00011461846224600F0F1F92D1A67EB010885
:1002E0004F4622460120002100F0E8F917EB0009F3
:1002F0004E41201EA4F10104DFDC484631462A4667
:100300004346BDE8F09F40EA01039B0703D009E0A4
:1003100008C9121F08C0042AFAD203E011F8013BF1
:1003200000F8013B521EF9D27047D2B201E000F84A
:10033000012B491EFBD270470022F6E710B5134689
:100340000A4604461946FFF7F0FF204610BD2DE986
:10035000FE4F804681EA0300C00F0C46009021F05A
:10036000004123F00045B8EB0200A94105D2404608
:10037000214690461C460B46024623F0004010439F
:1003800047D0270DC7F30A00C3F30A510290401A61
:10039000019040286BDAC3F3130040F4801B0098EF
:1003A000924620B10023D2EB030A63EB0B0B0198BA
:1003B0005946C0F14002504600F080F906460D460D
:1003C00050465946019A00F098F910EB0800614137
:1003D000002487EA115284EAE7731A4340D0009A56
:1003E00062B3019A012A4FEA075215DC001B61EB48
:1003F00002014FF0004202EA0752CDE90042001C20
:1004000041F5801132462B4600F0CFF903B0BDE82C
:10041000F08F40462146F9E7001B61EB0201001C0A
:1004200041F5801300185B412018A2F5001747EB37
:10043000030140EAD570B6196D4111E06D084FEA2D
:10044000360645EAC0754FEA0752001B61EB020110
:10045000001C41F5801149084FEA30000019514154
:1004600032462B4603B0BDE8F04F00F08FB900983C
:10047000012240000023D0EB020263EBE0730098FE
:1004800021464FEAE074B8EB000061EB0401E9E7B4
:1004900083F000435BE781F0004158E72DE9FE4F10
:1004A00081EA030404F0004421F0004100944FF07D
:1004B000000B23F0004350EA01045ED052EA03042B
:1004C0005BD0C3F30A54C1F30A552C44A4F2F334AD
:1004D0000194A0FB0254C1F3130141F48011C3F352
:1004E000130343F4801301FB024400FB034E840A10
:1004F000970A44EA815447EA8357A4FB07680295A8
:100500008D0A05FB07854FEA932C04FB0C54270545
:10051000029D4FEA065847EA1637B5EB08056EEB21
:10052000070C870E920E47EA811742EA8312A7FB57
:100530000201B6EB0B0164EB00042B0D43EA0C3314
:100540005E1844EB1C50DA465146E7FB0201C5F346
:1005500013044FEA0B3343EA14534FEA0432019C6D
:1005600043EA0603A4F10C040294009CCDE900B414
:1005700000F01BF903B0BDE8F08F00200146F9E759
:100580002DE9F04D81EA030404F0004B21F0004511
:1005900014464FF0000A23F0004150EA050220D033
:1005A00054EA01021DD0C5F30A570246C5F31303EE
:1005B000C1F31300C1F30A5640F4801543F48013CD
:1005C000A7EB0608101BD64608F2FD3873EB0500B2
:1005D00002D308F1010801E092185B41B8F1000F65
:1005E00003DA00200146BDE8F08D00204FF48011B1
:1005F000064684460EE0171B73EB050705D3121B56
:1006000063EB050306434CEA010C49084FEA30004E
:1006100092185B4150EA0107EDD152EA030012D073
:1006200082EA040083EA0501084305D0101BAB41B0
:1006300006D20122002306E000224FF0004302E030
:100640006FF0010253101AEB06004CEB085110EB4F
:100650000A0041EB0B01BDE8F04D00F097B800F047
:10066000004230F000400AD0C10D01F56071C0F3C6
:10067000160042EA0151C2084007114370470020AA
:100680000146704701F0004330B421F0004150EAC8
:10069000010206D00A0DA2F56072C1F31301002A0F
:1006A00002DC30BC00207047440F44EAC104C100A2
:1006B000E01830BC00EBC25000F031B8202A04DB57
:1006C000203A00FA02F1002070479140C2F1200365
:1006D00020FA03F3194390407047202A04DB203AA4
:1006E00021FA02F00021704721FA02F3D040C2F152
:1006F00020029140084319467047202A06DBCB1799
:10070000203A41FA02F043EAE07306E041FA02F3CC
:10071000D040C2F120029140084319467047002999
:10072000A8BF7047401C490008BF20F00100704777
:1007300010B4B0FA80FC00FA0CF050EA010404BFD7
:1007400010BC704749B1CCF1200421FA04F411FA2D
:100750000CF118BF012121430843A3EB0C01CB1D71
:100760004FEA00614FEA102042BF002010BC7047E2
:1007700000EBC35010440029A4BF10BC7047401CBC
:10078000490008BF20F0010010BC704710B5141ECE
:1007900073F1000408DA401C41F1000192185B413A
:1007A0001A4301D120F0010010BD2DE9F04D924611
:1007B0009B4611B1B1FA81F202E0B0FA80F2203228
:1007C0009046FFF77BFF04460F4640EA0A0041EAE5
:1007D0000B0153465A46084313D0114653EA010011
:1007E00019D0C8F140025046FFF777FF05460E4684
:1007F000504659464246FFF761FF084305D00120A5
:1008000004E020463946BDE8F08D0020054346EA65
:10081000E0762C4337430A986305E40AA0EB08000E
:100820000022FD0A44EA47540A3002D5002001465E
:10083000E9E7010510196941DDE908450019694139
:10084000BDE8F04DA2E70000064C074D06E0E06869
:1008500040F0010394E8070098471034AC42F6D307
:10086000FFF7A8FCA83C0008C83C0008FEE7000011
:10087000014800F034B90000BC040020014800F039
:100880002EB90000BC040020014800F028B9000087
:10089000BC040020014800F022B90000BC04002084
:1008A000014800F08DBB00005008002001681823AB
:1008B000CAB2103AB2FBF3F2054B6FF30901032AF7
:1008C0009B5CC36500D9091D81650846704700001F
:1008D000583C000810B5014600208B698A6A4FF029
:1008E000C07453B1B3F5005F15D072B1012A0CD0BA
:1008F000022A0AD0032A09D104E01AB1012A06D03B
:10090000022A03D1C96AC90100D5012010BDC96AF4
:10091000A142FAD010BD002AF7D0012AF2D0022A53
:10092000F3D0032AF3D010BD70477047F0B590F8AC
:1009300020500468A468012D05D0022D03D0416A1F
:1009400041F4802153E014F0406F01D1E5004BD514
:10095000C4F30164022C03D9416A41F4000146E06A
:100960000125A5401D608D684FF4C0739DB1CE6810
:1009700035434E6845EAC605066803EB0417F55192
:100980004FF4C275076805EB04150E697E51097DA9
:10099000012905D009E00E88CD6845EA4655EBE708
:1009A00001684E5946F480764E511179D2F80550BF
:1009B0004FF4C67641EA0525016806EB04168D5111
:1009C0001178D2F801204FF4C47541EA022102687F
:1009D00005EB04155151006803EB0411425842F035
:1009E000010242500020F0BD416A41F40011416211
:1009F0000120F0BD704730B590F82040012C05D0A3
:100A0000022C03D0416A41F480215DE00468002992
:100A100055D02469A40754D04FF4D874056804EB6A
:100A200001142D5915F00405956005682D594ED017
:100A3000ED08556005682C59C4F34004D4604FF4A8
:100A4000DA74056804EB01142D5905F00F051561E2
:100A500005682D59C5F30725956105682C59240CA7
:100A600054614FF4DC72046802EB0112A4581C704C
:100A70000468A458240A5C700468A458240C9C7070
:100A80000468A258120EDA704FF4DE72046802EBAA
:100A90000112A4581C710468A458240A5C710468EB
:100AA000A458240C9C710468A258120EDA710068D4
:100AB00081B1016941F020010161002030BDE4688D
:100AC000A8E7416A41F400114162012030BD6D0D7B
:100AD0001560AFE7C16841F02001C160EDE72DE985
:100AE000F05F0546006800244669D0F804908768E6
:100AF000D0F80CB0D0F810A0D0F81880F10748D08A
:100B0000F90714D001218160B80703D5284600F009
:100B10003FFA0CE0780702D54FF4006407E038078D
:100B200002D54FF4805402E0284600F030FAF80570
:100B300016D529684FF480708860B80503D528461B
:100B400000F028FA0CE0780502D544F4005407E0E0
:100B5000380502D544F4804402E0284600F019FA32
:100B6000F80316D529684FF480308860B80303D5A0
:100B7000284600F011FA0CE0780302D544F4004452
:100B800007E0380302D544F4803402E0284600F040
:100B900002FA300707D55FEACB6004D52968102038
:100BA00044F40074C86070074FF0080707D55FEA87
:100BB0000B7004D52868C760284600F0ABF9B00771
:100BC00006D52868C068800702D0284600F0A4F93E
:100BD000700607D55FEACA6004D52968102044F47E
:100BE00080640861B00607D55FEA0A7004D52868FA
:100BF0000761284600F0C8F9F00606D528680069A4
:100C0000800702D0284600F0C0F9B00308D55FEA9B
:100C1000C96005D5296810204860284600F0B6F95B
:100C2000F00307D55FEA097004D5286847602846B5
:100C300000F0B3F9300446D55FEA497040D5F005BD
:100C400004D55FEAC87001D044F00104B00504D5B2
:100C50005FEA887001D544F00204700504D55FEAAC
:100C6000487001D544F00404300529D518F0700F00
:100C700026D008F07000402815D006DC102809D0D6
:100C800020280AD0302816D10AE050280ED060283B
:100C900011D10EE044F008040DE044F010040AE025
:100CA00044F0200407E044F0400404E044F08004F1
:100CB00001E044F480742868816921F07001816149
:100CC000296804204860002C05D0686A20436862C7
:100CD0002846FFF78FFEBDE8F09F70B5040003D0F3
:100CE00094F8200010B104E0012070BD204600F00F
:100CF00081F82068016821F00201016000F086FBA4
:100D00000546052604E000F081FB401B0A2811D8A7
:100D1000206840688007F6D42068016841F001012E
:100D2000016000F073FB05460BE000F06FFB401B19
:100D30000A2806D9606A40F40030606284F82060B6
:100D4000D2E720684068C007EFD0207E01282068E5
:100D500001683DD021F080010160607E012820689B
:100D6000016838D021F040010160A07E0128206890
:100D7000016833D021F020010160E07E0128206865
:100D800001682ED041F010010160207F0128206809
:100D9000016829D021F008010160607F01282068E6
:100DA000016824D021F004010160D4E90201084364
:100DB000D4E90412114308436168491E08432168BD
:100DC000C86100206062012084F82000002070BD0E
:100DD00041F08001C0E741F04001C5E741F020014A
:100DE000CAE721F01001CFE741F00801D4E741F054
:100DF0000401D9E7F0B587B0044614216846FFF72F
:100E00009BFA3F4B3F48DFF8F4E01968D4F800C084
:100E10003C4A03250226092710300024491CF445CA
:100E20001DD11960012907D1016841F000710160ED
:100E3000006800F000700590106840F00800106035
:100E40001068CDE9005600F00800CDE9047069464D
:100E50002D48CDE9024500F0EDF907B0F0BDDFF80F
:100E6000ACE0F445F9D1D0F800C04CF0806CC0F88B
:100E700000C0D0F800C001290CF0806CCDF814C07F
:100E8000196007D1016841F000710160006800F04D
:100E900000700590106840F002001060106802AB0E
:100EA00000F0020005906020CDE9000683E8B00064
:100EB0006946174800F0BEF9002205213F2000F0E6
:100EC00017FB3F2000F006FB00220521402000F028
:100ED0000FFB402000F0FEFA00220521412000F027
:100EE00007FB412000F0F6FA00220521422000F025
:100EF000FFFA422000F0EEFAAFE700000064004085
:100F00001400002030380240000C0240006800400D
:100F1000000402407047000010B504460068144900
:100F200092B0884218D10EAB6A4600211148FFF7F3
:100F300062FD0098A0F2012004280DD80E49C0B22D
:100F400008700E4900EBC00001EBC0000EA901F0D3
:100F5000A5FD052001F0DAFD09492068884205D188
:100F600010AB07AA00210748FFF745FD12B010BDDE
:100F70000064004094040020000000205002002083
:100F800000680040BC0400207047704770477047FD
:100F900070477047704770477047704790F835103A
:100FA000022903D08021416501207047052180F886
:100FB00035100068016821F00101016000207047D0
:100FC0002DE9F84304464FF00009CDF8009063483E
:100FD0004FF41651A56D0068B0FBF1F72E6894F838
:100FE0005C10082000FA01F131420FD021680A6834
:100FF00052070BD50A6822F004020A6094F85C10CC
:101000008840A860606D40F00100606594F85C1055
:101010004FF0010808FA01F0304208D02168496910
:10102000090604D5A860606D40F00200606594F880
:101030005C1004208840304208D021680968890784
:1010400004D5A860606D40F00400606594F85C1001
:1010500010208840304218D021680968090714D54B
:10106000A86020680168490304D50068000308D51A
:10107000A16C07E00168C90503D4016821F00801EB
:101080000160216C09B12046884794F85C1020204B
:101090008840304231D021680968C9062DD5A86042
:1010A00094F8350005282068016806D0490347D523
:1010B000006800031DD4616C1CE021F01601016082
:1010C0002068416921F080014161206C08B9A06C61
:1010D00020B12068016821F00801016094F85C10DB
:1010E0003F208840A86084F8349084F83580216DD2
:1010F0001FE0E16B09B120468847606D00282BD0C6
:10110000606DC00714D0052084F8350020680168A0
:1011100021F0010101600098401C0090B84203D802
:1011200020680068C007F6D184F8349084F83580D0
:10113000E16C002910D001B02046BDE8F04308471B
:101140000168C905D5D4016821F01001016084F857
:10115000349084F83580CCE7BDE8F8833400002073
:101160002DE9F041044600F051F906465CB1002536
:1011700084F83450022084F835002068016821F09A
:10118000010101600DE00120BDE8F08100F03EF9B1
:10119000801B052805D920206065032084F83500D0
:1011A000F2E720680068C007F0D122681168204883
:1011B0000140D4E901031843D4E90336334318430B
:1011C00063691843A3691843E3691843236A184302
:1011D0000843616A042903D1D4E90B131943084376
:1011E000106020684069666A20F0070130460E43AF
:1011F000012704280CD1A06A0643E06A40B12046CA
:10120000FFF768FB20B14020606584F83570BAE7CD
:10121000206846612046FFF749FB94F85C203F2197
:1012200091408160656584F835700020ACE700006E
:101230003F8010F02DE9F84FDFF890B100224FF019
:1012400001084FF0030A4FF00F090BF1040E00BF25
:101250000B6808FA02F42340A3426ED14D68022DB8
:1012600001D0122D0ED1D50800EB850CDCF82050F2
:101270005607F70E09FA07F6B5430E69BE402E432E
:10128000CCF82060066855000F790AFA05FC07F0D3
:10129000030726EA0C06AF40374307604E68012E6D
:1012A00005D0022E03D0112E01D0122E0ED1876848
:1012B000CE6827EA0C07AE403E4386604668A643E8
:1012C0000C79C4F30014944034434460C4688E68BD
:1012D00024EA0C04AE402643C6604C68E4006FD597
:1012E0003B4C256845F480452560246822F00305C1
:1012F00004F480440094374C2E19D6F8084895071A
:101300002F0F09FA07F5AC43334DA84201D1002550
:101310002EE0324DA84201D1012529E0304DA842EE
:1013200001D1022524E02F4DA84201D103251FE061
:101330002D4DA84202D104251AE041E02B4DA842D0
:1013400001D1052514E02A4DA84201D106250FE060
:10135000284DA84201D107250AE0274DA84201D116
:10136000082505E0254DA84201D1092500E00A2500
:10137000BD402543C6F80858DBF800405D464E687E
:101380009C43F60300D51C432C60DEF800407546F4
:101390004E689C43B60300D51C432C600B4D0835AA
:1013A0002C684E689C43F60200D51C432C60074D08
:1013B0000C352C684E689C43B60200D51C432C604B
:1013C000521C102AFFF444AFBDE8F88F003C0140E6
:1013D0004438024000300140000002400004024056
:1013E00000080240000C02400010024000140240BD
:1013F00000180240001C024000200240002402406D
:101400000AB1816170470904FBE700000148806868
:1014100070470000280000200248816802781144CB
:1014200081607047280000200B4810B5016841F426
:1014300000710160016841F480610160016841F45C
:1014400080710160032000F073F80F2000F006F8AF
:1014500000F024F8002010BD003C024070B50D4D96
:1014600004464FF47A712878B1FBF0F00A49096814
:10147000B1FBF0F000F05CFB48B9102C07D2002261
:101480002146501E00F034F800206C6070BD012031
:1014900070BD000028000020340000200C4882B0FD
:1014A000016841F480410160006800F480400090D0
:1014B0000748001F016841F0805101600068002268
:1014C00000F0805000900F21901E02B000F010B884
:1014D00044380240002809DB00F01F02012191403E
:1014E0004009800000F1E020C0F8001170470000C2
:1014F000F0B40E4B1B680C46C3F30223C3F107057F
:10150000042D00D90425191D072901D2002300E06C
:10151000DB1E012606FA05F1491E214099409E4036
:10152000761E16403143F0BC01F051BA0CED00E0DC
:10153000064900F0070208684FF6FF03184040EA2A
:101540000220034A10430860704700000CED00E0E1
:101550000000FA052DE9F0470E46050065D0DFF8DA
:101560001481D8F80000F7B200F00F00B04207D2A3
:1015700088F80070D8F8000000F00F00B04254D195
:1015800028683D4C810712D5400703D5206840F4F8
:10159000E05020602878000703D5206840F46040C0
:1015A00020602068A96820F0F000084320602878B7
:1015B000C0072DD0304968680839012812D00228A8
:1015C00013D0032811D00968890700292DDA216872
:1015D00021F0030101432160FFF718FF814641F22A
:1015E000883A0EE009688903EFE709688901ECE7AA
:1015F000FFF70CFFA0EB0901514502D90320BDE81C
:10160000F0872068696800F00C00B0EB810FEFD123
:10161000D8F80010404601F00F01B14207D9077019
:10162000006800F00F00B04201D00120E7E7287801
:10163000400705D52068E96820F4E05008432060A1
:101640002878000706D52068296920F4604040EA20
:10165000C100206000F036F82168084AC1F3031188
:10166000515CC840064908600F20FFF7F7FE0020D4
:10167000C5E70000003C024008380240603C00081A
:10168000340000200448054900680968044AC1F391
:101690008221515CC8407047340000200838024065
:1016A000703C00080448054900680968044AC1F311
:1016B0004231515CC8407047340000200838024075
:1016C000703C0008154810B5006810F00C02144872
:1016D00013D01449042A0FD0082A0ED10F4C241F0E
:1016E0002268236802F03F025B0207D52068C0F33E
:1016F0008810A0FB010106E0084610BD2168C1F377
:101700008811A1FB00010023FEF7CCFD2168C1F385
:101710000141491C4900B0FBF1F010BD08380240FE
:101720000024F400001BB7002DE9F84F050076D027
:101730002878DFF8F8B2BE4CC00749D0DBF80010BB
:101740005846C1F38101012908D00068C0F3810027
:1017500002280AD1201D0068400206D520688003B7
:1017600036D568680028E2D032E06868B0F5803F7E
:1017700010D0B0F5A02F206810D020F48030206069
:10178000206820F4802020606868A0B1FFF73EFE4A
:1017900006460CE0206840F48030F4E740F48020F6
:1017A0002060F7E7FFF732FE801B642873D82068BB
:1017B0008003F7D50CE0FFF729FE064605E000BFE1
:1017C000FFF724FE801B6428F0D820688003F7D43C
:1017D0002878DFF8608280074FF000093ED5DBF8FB
:1017E0000010584611F00C0F09D00068C0F38100BA
:1017F00002280BD18D48001F0068400206D42068E3
:10180000800715D5E868012809D111E0E868B8B16A
:101810000120C8F80000FFF7F9FD064605E002E1E7
:10182000FFF7F4FD801B0228C0D820688007F7D599
:101830002068296920F0F80040EAC10020600DE02E
:10184000C8F80090FFF7E2FD064604E0FFF7DEFD72
:10185000801B02281FD820688007F7D4287800074B
:1018600022D5724E744869696C3671B101210160EC
:10187000FFF7CCFD074604E0FFF7C8FDC01B0228B8
:1018800009D830688007F7D50EE0C0F80090FFF760
:10189000BDFD074605E083E0FFF7B8FDC01B022849
:1018A0007ED830688007F7D42878400768D5DFF8FD
:1018B0007CA100270AF1380ADAF80000C0000BD436
:1018C000DAF8001041F08051CAF80010DAF8000090
:1018D000012700F080500090584E3068C00510D4A9
:1018E000306840F480703060FFF790FD009005E0B4
:1018F000FFF78CFD0099401A022851D83068C005C6
:10190000F6D54A4EA868683601280FD005283068F9
:1019100010D020F001003060306820F0040030600A
:10192000A868B8B1FFF772FD00900FE0306840F092
:101930000100F4E740F004003060F7E7FFF766FDD0
:101940000099411A41F28830814264D8306880079A
:10195000F4D50EE0FFF75AFD009007E0FFF756FDC3
:101960000099411A41F28830814254D8306880078A
:10197000F4D42FB1DAF8001021F08051CAF8001029
:10198000A869C0B3DBF80010C1F3810102294AD075
:101990000228484607D0C8F86000FFF737FD00E08E
:1019A00039E005463AE04746C8F86000FFF72EFDEB
:1019B000064604E0FFF72AFD801B02282BD820688A
:1019C0008001F7D4D5E907010843A96A1C4A4908F0
:1019D00002EB01416A6A41EA8211084395F82C1032
:1019E00040EA01611148001F016001203866FFF7DD
:1019F0000DFD054605E014E0FFF708FD401B022839
:101A000009D820688001F7D50BE000BFFFF7FEFC86
:101A1000401B022802D90320BDE8F88F206880010E
:101A2000F4D40020F8E70120F6E70000083802406F
:101A30000038024000004742800E474200700040DC
:101A40000000FFFF70B5040005D00025A56294F8E2
:101A5000510010B106E0012070BD84F850502046BE
:101A600000F030F8022084F851002068016821F06D
:101A700040010160D4E901010843D4E90312114394
:101A8000084361690843218B01F400710843E1694F
:101A90000843216A0843A16A084321680860A069D5
:101AA000042101EA1040616A084321684860206807
:101AB000C16921F40061C1616565012084F85100AC
:101AC000002070BD10B586B0044614216846FEF7AC
:101AD00033FC14492068884221D113480021026850
:101AE00042F480120260006800F4801005900E48F5
:101AF0001438026842F020020260006800F0200002
:101B000005904FF4607000900220CDE901010320A0
:101B100003900520049069460448FFF78BFB06B04C
:101B200010BD000000500140443802400014024043
:101B300010B5401EB0F1807F01D3012010BD4FF0E1
:101B4000E02460610F21601700F041FF0020A061D8
:101B500007202061002010BD10B586B00446142176
:101B60006846FEF7E9FB0E492068884215D10D480A
:101B70000021026842F080020260006800F08000EC
:101B80000590402000900220CDE901010920CDE917
:101B9000031069460448FFF74DFB06B010BD000076
:101BA0000018004030380240001C024070B5044666
:101BB00090F83C000D4601280DD0012684F83C60C9
:101BC000022084F83D0042B1042A18D0082A2AD005
:101BD0000C2A4DD139E0022070BD206800F044FC91
:101BE0002068816941F0080181612068816921F0E4
:101BF00004018161206881692A69114311E020682C
:101C000000F062FC2068816941F400618161206814
:101C1000816921F480618161206881692A6941EAD2
:101C20000221816124E0206800F084FC2068C16901
:101C300041F00801C1612068C16921F00401C1615E
:101C40002068C1692A69114311E0206800F0A6FCF0
:101C50002068C16941F40061C1612068C16921F453
:101C60008061C1612068C1692A6941EA0221C161BC
:101C700084F83D60002084F83C0070BD10B504007D
:101C800003D094F83D0010B107E0012010BD002002
:101C900084F83C00204600F00DF8022084F83D0056
:101CA000211D206800F07CFB012084F83D0000200D
:101CB00010BD000008B500680649884208D10648F2
:101CC000016841F040010160006800F040000090B0
:101CD00008BD0000001800404038024008B5C16B44
:101CE000082903D1006801684068009008BD000021
:101CF00070B5026804461068D168536910F00F0F80
:101D000051D003F0010501F4907635435DD0C20750
:101D100005D0CA0503D5E26B42F00102E263420737
:101D200005D5DA0703D0E26B42F00202E2638207D4
:101D300005D5DA0703D0E26B42F00402E263020742
:101D400005D5DA0703D0E26B42F00802E263E26BEA
:101D5000002A34D0800604D5880602D5204600F03B
:101D60005BFC20684069E16BC0F3801001F0080162
:101D70000143204624D000F041FC20684169490617
:101D80001AD5416921F040014161606BA0B11B4946
:101D90000165606BFFF702F9002810D0606B016DE0
:101DA000BDE87040084783060FD58B060DD5204649
:101DB000BDE8704000F030BC2046FFF78FFF70BDDB
:101DC000FFF78CFF0020E06370BD030606D50B060D
:101DD00004D52046BDE8704000F0C0BD4006F3D5F4
:101DE0004806F1D5D168204621F04001D16020217C
:101DF00084F8391000F0B3F870BD0000ED2500083C
:101E000070B5040004D094F83900002510B106E044
:101E1000012070BD84F83850204600F023F82420BB
:101E200084F839002068C16821F40051C16020465F
:101E300000F03EFC2068016921F4904101612068B6
:101E4000416921F02A0141612068C16841F40051D3
:101E5000C160E563202084F8390084F83A0000204E
:101E600070BD0000F0B587B0064614216846FEF745
:101E700063FADFF8CCC03068002532490222012322
:101E80000324082760451AD12E481030056845F014
:101E900080450560006800F080400590086840F0CB
:101EA000100008600868694600F010000590E00125
:101EB0008DE89D002448FFF7BDF907B0F0BDDFF8BD
:101EC0008CC06045F9D11F481430D0F800C04CF0E8
:101ED000200CC0F800C0006800F0200005900868E1
:101EE00040F0400008600868694600F04000059036
:101EF0004FF484408DE89D001548FFF79BF9164C80
:101F0000144820608005C4E901054FF48060C4E9ED
:101F1000035080106561C4E9065025622046656261
:101F2000FFF71EF908B1FEF700FD746300220521DA
:101F30004720A663FFF7DCFA4720FFF7CBFABCE7A0
:101F40000078004030380240001002400014014088
:101F50000018024028640240500800207047704773
:101F6000FEE70000104810B50E49016003214160F2
:101F700000214FF400228160C0E903124FF44012A7
:101F800042610176012242768176C17601774177FE
:101F9000FEF7A3FE002803D0BDE81040FEF7C5BC45
:101FA00010BD00000064004094040020104810B5EB
:101FB0000E4901600321416000214FF4002281603D
:101FC000C0E903124FF440124261017601224276C9
:101FD0008176C17601774177FEF77FFE002803D036
:101FE000BDE81040FEF7A1BC10BD00000068004035
:101FF000BC040020094808B5016841F48001016073
:102000000068002200F48000009005213920FFF7CD
:102010006FFABDE808403920FFF75CBA303802405B
:1020200010B59CB01C2216496846FEF76CF90021D9
:10203000684600F05AFE134C11491C2220601C31E6
:1020400007A8FEF760F9002107A800F04EFE0C4932
:1020500060601C2238310EA8FEF755F900210EA849
:1020600000F043FE0649A0601C22543115A8FEF77B
:102070004AF9002115A800F038FEE0601CB010BD40
:10208000E83B0008180000202DE9F04387B0142138
:102090006846FEF751F93C480024016841F002010E
:1020A0000160016801F002010591016841F0400101
:1020B0000160016801F040010591016841F00801EB
:1020C0000160016801F008010591016841F4807127
:1020D0000160016801F480710591016841F080019F
:1020E0000160016801F080010591016841F0200163
:1020F0000160016801F020010591016841F01001C3
:1021000001600068DFF8848000F0100044F24006AF
:102110000590002231464046FFF772F9DFF87090D3
:102120004FF40067002239464846FFF769F9012558
:10213000CDE90054694617480294FFF77BF80096F2
:10214000CDE90154694640460394FFF773F84FF414
:10215000E050CDE9000469460F480294FFF76AF8A1
:10216000E803CDE9000469460C480294FFF762F8E1
:102170000097CDE90154694648460394FFF75AF8A1
:1021800007B0BDE8F0830000303802400014024080
:102190000010024000200240001C0240000C0240DF
:1021A000104810B50E4901604FF482714160002162
:1021B0008160C1604FF400720161C0E905123022F4
:1021C000C0E90721416281620A21C162FFF73AFC3E
:1021D000002803D0BDE81040FEF7A7BB10BD0000EB
:1021E000005001403807002010B588B01C21684617
:1021F000FEF7A2F810480F490024C0E900148460DB
:10220000C46004618461FFF739FD08B1FEF78DFBFE
:102210006020CDE900040294002269460648049437
:10222000FFF7C4FC08B1FEF780FB0348FFF794FCFE
:1022300008B010BD00180040900700200C4810B5F1
:102240000A4901604FF4E1314160002181600C22B4
:10225000C160C0E904128161C161FFF7D1FD0028AE
:1022600003D0BDE81040FEF760BB10BD0078004011
:10227000D00700200C4810B50A4901604FF4E13145
:102280004160002181600C22C160C0E904128161BB
:10229000C161FFF7B5FD002803D0BDE81040FEF78F
:1022A00044BB10BD0014014010080020FEE7704739
:1022B00010B5FFF7B1F801F0B5FB012803D0BDE878
:1022C000104001F041BB10BD30B593B030216846DD
:1022D000FEF732F814210CA8FEF72EF81948002555
:1022E000016841F080510160006800F08050119059
:1022F0001548016841F4404101600068022400F47F
:102300004040119001200090000401908001CDE92F
:10231000064006200890A820CDE9090404200B906F
:102320006846FFF701FA0CA90F2081E831004FF44D
:10233000A0500F90E002109005210CA8FFF70AF9B9
:1023400013B030BD403802400070004010480168B2
:1023500041F4700101600F48016841F00101016022
:102360000C4A00210832116002680B4B1A400260CF
:10237000031D0A4A1A60026822F48022026005489E
:102380000C3001600249580680390860704700002F
:1023900088ED00E000380240FFFFF6FE1030002418
:1023A000F0B50268254C264D264E274F274B4FF09F
:1023B000804CA04209D0604507D0A84205D0B04269
:1023C00003D0B84201D0984204D122F0700E4A687E
:1023D00042EA0E02A0421BD0604519D0A84217D095
:1023E000B04215D0B84213D0984211D0184DA8422F
:1023F0000ED0184DA8420BD0174DA84208D0174D4B
:10240000A84205D0164DA84202D0164DA84203D1CD
:1024100022F44075CA682A434D6922F080022A439B
:1024200002608A68C2620A688262A04201D0984251
:1024300001D10969016301214161F0BD0000014042
:102440000004004000080040000C0040000401406F
:102450000040014000440140004801400018004095
:10246000001C004000200040F0B5026A22F001028A
:102470000262036A42688469124E24F073050C6894
:102480002C4323F002058B682B430D4DA84201D04D
:10249000B04205D123F00807CB683B4323F0040387
:1024A000A84201D0B04205D14D6922F440721543D3
:1024B0008A692A4342608461496841630362F0BDCE
:1024C0000000014000040140F0B5026A22F0100251
:1024D0000262026A436884690D6824F4E64444EAAF
:1024E00005248D6822F0200242EA05120F4D104E9D
:1024F000A84201D0B04206D1CF6822F0800242EA61
:10250000071222F04002A84201D0B04207D14D6923
:1025100023F4406343EA85038D6943EA85034360FE
:102520008461496881630262F0BD000000000140DF
:1025300000040140F0B5026A22F480720262026A6D
:102540004368C46922F4007224F073050C68124ECB
:102550002C438D6842EA05220E4DA84201D0B042BC
:1025600006D1CF6822F4006242EA072222F4806298
:10257000A84201D0B04207D14D6923F4405343EA49
:1025800005138D6943EA05134360C4614968C1635B
:102590000262F0BD000001400004014030B5026A53
:1025A00022F480520262046A4268C3690D6823F40F
:1025B000E64343EA05238D6824F4005444EA0534D5
:1025C000084DA84202D0084DA84204D14D6922F41A
:1025D000804242EA85124260C36149680164046234
:1025E00030BD0000000001400004014010B5806BC8
:1025F0000021C185C184FFF771FB10BD0168CA6865
:1026000022F49072CA6001684A6922F001024A61AC
:10261000202180F83A10704710B590F83A1022291E
:1026200001D0022010BD8168B1F5805F11D0016931
:10263000002901681FD0496801F07F03816A4A1CA4
:1026400082620B70C18D491E0904090CC18518D026
:102650002BE00269816A002A0268526805D0D2B272
:102660000A80816A491C8162ECE7C2F308020A8091
:10267000816A891CF7E74A68816A4B1C83620A7089
:10268000E0E70168CA6822F02002CA600168CA68EF
:1026900022F48072CA6001684A6922F001024A612C
:1026A000202180F83A10FFF759FC002010BD0000EF
:1026B0002DE9F041044600680169E26821F44051C7
:1026C000114301612169A068E2690843616911430E
:1026D00022680843D16849F20C6399430143D160F1
:1026E00020684169A26921F4407111434161E269A6
:1026F0006425B2F5004F9748974922684FF0320899
:102700003FD08A4201D082427CD1FEF7CBFF00EB62
:10271000C00101EB001061688900B0FBF1F6FEF723
:10272000C1FF00EBC00101EB001061688900B0FB44
:10273000F1F0B0FBF5F06FF01801484306EB8001B3
:1027400008EB0110B0FBF5F000F0F006FEF7AAFF71
:1027500000EBC00101EB001061688900B0FBF1F0F3
:10276000B0FBF5F006EB0016FEF79CFF00EBC00196
:1027700001EB001061688900B0FBF1F7FEF792FFF2
:10278000D2E08A4201D082423DD1FEF78BFF00EBBE
:10279000C00101EB001061684900B0FBF1F0B0FB33
:1027A000F5F00601FEF77EFF00EBC00101EB001023
:1027B00061684900B0FBF1F7FEF774FF00EBC00160
:1027C00001EB001061684900B0FBF1F0B0FBF5F0DF
:1027D0006FF01801484307EB800108EBC100B0FB24
:1027E000F5F000F0F80006EB4006FEF75BFF00EBAB
:1027F000C00101EB001061684900B0FBF1F7FEF782
:1028000051FF3CE055E0FEF73DFF00EBC00101EB5E
:10281000001061684900B0FBF1F0B0FBF5F0060173
:10282000FEF730FF00EBC00101EB001061684900CA
:10283000B0FBF1F7FEF726FF00EBC00101EB001043
:1028400061684900B0FBF1F0B0FBF5F06FF01801E2
:10285000484307EB800108EBC100B0FBF5F000F046
:10286000F80006EB4006FEF70DFF00EBC00101EBA0
:10287000001061684900B0FBF1F7FEF703FF00EBC1
:10288000C00101EB001061684900B0FBF1F0B0FB42
:10289000F5F06FF01801484307EB800108EBC10029
:1028A000B0FBF5F000F00700216830448860BDE817
:1028B000F081FEF7E7FE00EBC00101EB001061685C
:1028C0008900B0FBF1F6FEF7DDFE00EBC00101EB85
:1028D000001061688900B0FBF1F0B0FBF5F06FF01B
:1028E0001801484306EB800108EB0110B0FBF5F03E
:1028F00000F0F006FEF7C6FE00EBC00101EB001091
:1029000061688900B0FBF1F0B0FBF5F006EB001652
:10291000FEF7B8FE00EBC00101EB00106168890012
:10292000B0FBF1F7FEF7AEFE00EBC00101EB0010CB
:1029300061688900B0FBF1F0B0FBF5F06FF01801B1
:10294000484307EB800108EB0110B0FBF5F000F005
:102950000F00A9E7001401400010014090F8391061
:10296000212901D0022070478168B1F5805F016A9A
:102970000BD04A1C0262026809785160C18C491E62
:102980000904090CC1840ED017E009880268C1F35C
:102990000801516001690029016A02D0491C0162E5
:1029A000ECE7891CFBE70168CA6822F08002CA6074
:1029B0000068C16841F04001C1600020704700001C
:1029C0000148FFF795B9000010080020FEE709074D
:1029D000090E002804DB00F1E02080F800147047A5
:1029E00000F00F0000F1E02080F8141D704702E0B5
:1029F00008C8121F08C1002AFAD17047704700208A
:102A000001E001C1121F002AFBD17047C82000F06D
:102A10004DF9FBE701221D4F08B5D6023146384675
:102A2000FEF7EEFC0122DFF8688095032946404658
:102A3000FEF7E6FC00F04DF9B346BA46A946464615
:102A4000144C0027144D4FF47A780090FEF7DEFC0A
:102A50002168401A6060FEF7D9FC206000F0F6F8AB
:102A6000286838B1012259465046FEF7C9FC00F0EB
:102A70008FF806E0A5F86C70002249463046FEF754
:102A8000BFFC4146684600F018F9DFE7001002403D
:102A9000001402400C000020B803002010B502888A
:102AA00042800B885CBA0480A21AC368B2F5805FCA
:102AB00004DD5B1EA2F50052C36006E012F5805FE4
:102AC00003DA5B1C02F50052C360826204EB4332FE
:102AD000038C9FED0C1AD21A00EE102A0261F8EE58
:102AE000C00A80EE810ADFED080A80ED050A80EE5B
:102AF000201A80ED061A4A8852BAC280498849BA1B
:102B0000018110BD610BB6410000104210B50549AE
:102B100001EBC004207A002803D0FEF777FCE168BF
:102B2000486010BDB8030020EFF30580002800D0F6
:102B3000012070472DE9084000F082FF009000F06E
:102B400007FD00F025FD0521684600F0B6F8F3E723
:102B5000FEF76AFCFFF7B8FBFFF796FAFFF74AFAB1
:102B6000FFF700FAFFF722FAFFF73EFBFFF782FBC1
:102B7000FFF716FBFFF762FBFFF752FA00F0A4F82D
:102B8000FEE701460020842900D0C81C70470000E1
:102B90002DE9F0412A4C0025B4F86800401C80B2B1
:102BA000A4F868003C2801D9A4F868502279254E81
:102BB00025484FF4C8774FF40061082A3DD2DFE87A
:102BC00002F03C040415151F3C28B4F86820012AC3
:102BD00002D03268556326E00022FEF711FC0CE0BB
:102BE000FEF70EFCA4F86C50BDE8F081B4F8682044
:102BF000012A1AD0072A18D015E030684763F3E796
:102C0000B4F86820012A10D0072A0ED00D2A0CD063
:102C100009E0B4F86820012A07D0072A05D00D2A58
:102C200003D0132A01D00122DAE70022FEF7E8FBE5
:102C300034F86A0F40086080DFE70022D0E7000028
:102C4000B803002090070020001002402DE9F04159
:102C50004FF00008464601254746134CFEF7D6FBC9
:102C600004EBC501CA689388C01A80B250800A7A02
:102C700072B1CA68128890420AD901204872887AD3
:102C8000761C404505DD083121608046257100E055
:102C90004F726D1CEDB2082DE0D9002E01D12760D6
:102CA0002771BDE8F0810000B803002010B500B91D
:102CB000012000F0EBFC002010BD10B501B901218E
:102CC00000F00AFD002010BD10B500F04BFD002003
:102CD00010BD10B5FFF728FF18B1BDE8104000F097
:102CE000B5BEBDE8104000F0ABBE7FB50D46044652
:102CF0004169B0F9080081B1A16971B1FFF741FFE5
:102D0000D4E905128DE80700D4E900102B462269AA
:102D100000F05DFE039004B070BDFFF732FF03A921
:102D2000CDE90001208A2B4682B2D4E9001000F0E0
:102D300021FE012801D00020EDE70398EBE7000019
:102D400010B504462DED0A8B30EE608A30EE600A35
:102D500080ED048A80ED078A90ED0B9AD0ED089AF9
:102D6000F0EEC08AB5EEC09AF1EE10FA06D1B0EEE0
:102D7000480A39EE800A84ED080A39E0B0EEC90A43
:102D8000F4EEC08AF1EE10FA32D2B0EE480A10EE3C
:102D9000100AFDF764FC41EC1B0B19EE100AFDF75D
:102DA0005EFC41EC1A0BB0EE680A10EE100AFDF75B
:102DB00056FC41EC1C0B19EE100AFDF750FC53ECCD
:102DC0001C2BFDF765FB53EC1A2BFDF7D9FB53ECDD
:102DD0001B2BFDF763FB41EC1A0B19EE900AFDF774
:102DE0003EFC53EC1A2BFDF7B2FAFDF74BFC2062C8
:102DF00094ED030AB5EEC00AF1EE10FA0FD0D4ED4F
:102E0000080AF4EEC00AF1EE10FA06DCB1EE400A50
:102E1000F4EEC00AF1EE10FA01D284ED080AD4ED06
:102E2000060AB0EE480A30EE600A84ED090AD4EDD5
:102E30000C0AF0EEE00AF4EEE08AF1EE10FA0CD2A1
:102E400010EE100AFDF70BFC9FED1D1B53EC112B30
:102E5000FDF724FBFDF716FC6062B0EE480A84ED36
:102E6000060A94ED000A94ED081A60EE080A94ED43
:102E7000010A40EE010A94ED020A94ED091A40EEAF
:102E8000010AC4ED050A94ED0A0AB5EEC00AF1EE96
:102E900010FA11D0F4EEC00AF1EE10FA01DD84ED63
:102EA000050AD4ED050AB1EE400AF4EEC00AF1EECF
:102EB00010FA01D284ED050ABDEC0A8B10BD0000AA
:102EC0009A9999999999B93F534C8CB0514D04F105
:102ED0003400069005F13400059004F1D0004FF065
:102EE00000084A4E4A4F04F1680B04F19C0A05F1B0
:102EF0006809019000F0A4FD0A9000F029FBD6EDCE
:102F0000050A97ED010A4348FFF71AFFB6F90600D4
:102F100000EE100A4048F8EEC00A95ED050AFFF7EA
:102F20000FFFB6F94E0000EE100A0698F8EEC00A40
:102F300095ED050AB1EE400AFFF702FFD6ED290A2A
:102F400097ED040A0598FFF7FBFEB6F9960000EE30
:102F5000100A5846F8EEC00A95ED120AFFF7F0FE87
:102F6000B6F9DE0000EE100A5046F8EEC00A95ED04
:102F7000120AB1EE400AFFF7E3FED6ED4D0A97EDD7
:102F8000070A4846FFF7DCFEB6F9260100EE100AF4
:102F90000198F8EEC00A95ED1F0AFFF7D1FE94EDF7
:102FA0002C0ABDEEC00A10EE100A00B2009094ED9B
:102FB0001F0ABDEEC00A10EE100A94ED120A03B209
:102FC000BDEEC00A10EE100A94ED050A02B2BDEE85
:102FD000C00A10EE100A01B24FF4007000F042FA7D
:102FE000CDF8008094ED390A00231A46BDEEC00AE0
:102FF00010EE100A01B240F2FF1000F033FA00F0B8
:10300000C7FA05210AA8FFF758FE73E7500200200F
:103010007004002098000020340100202DE9F041C8
:10302000184C0F46054666692068001D00F03EFA00
:1030300038B9206890F82C1001208840A16981439C
:10304000A161681C07D137B12168BDE8F0410E4885
:10305000091D00F070BA20683544B542456021680A
:1030600005D2A068BDE8F041091D00F04CBA6068C7
:10307000091D00F048FA206B854200D22563BDE8A7
:10308000F0810000380000208C0900202DE9F0417B
:10309000054600F05DFA2E4C2069401C2061206836
:1030A0002C4F10B1E06940B32DE025602069012864
:1030B00029D1002606EB860007EB800000F015FA08
:1030C000761C072EF6D323488C3000F00EFA2148E8
:1030D000A03000F00AFA1F48B43000F006FA1D488C
:1030E000C83000F002FA1B48DC3000F0FEF9194845
:1030F0008C3060601430A06005E02068E96AC06A26
:10310000884200D82560E06A401CE062E96A01203C
:10311000A26988401043A06101EB810007EB8000A9
:10312000291D00F008FA00F033FAE06900280CD0FD
:103130002068E96AC06A884207D207494FF0805088
:103140000860BFF34F8FBFF36F8FBDE8F0810000C1
:1031500038000020B008002004ED00E010B504465F
:1031600090F8510058B101280CD002280FD05020FF
:1031700080F31188BFF34F8FBFF36F8FFEE7206B93
:1031800000F01AFA2046BDE8104000F015BA10BD54
:1031900010484FF47051420706D0C01D0D4920F071
:1031A0000700411AC1F570510B4A00230144C2E9DE
:1031B00000030839103A21F0070111604B600B60E1
:1031C0000B1AC0E9001393604FF000405360D060C9
:1031D00070470000A009002084000020144E154C08
:1031E000A6F1C8074FF08058DFF84C9012E000BFFE
:1031F00000F0AEF9F068C568281D00F057F92069A5
:10320000401E2061E068401EE06000F0C1F92846E1
:10321000FFF7A4FFE0680028EAD138680128F9D94F
:10322000C9F80080BFF34F8FBFF36F8FF2E7000044
:10323000780900203800002004ED00E02DE9F04777
:103240009A46DDE9098481466FF00303206B03EBA6
:1032500082021044089D20F00706700707D0502016
:1032600080F31188BFF34F8FBFF36F8FFEE72318F2
:103270000A5C83F834200A5C12B1401C1028F6D393
:10328000002784F84370072D00D30625E562C4E9C2
:103290001157201D00F034F904F1180000F030F946
:1032A0002461C5F107006462A061E76484F850708E
:1032B00052464946304600F0BFF82060B8F1000F92
:1032C00001D0C8F80040BDE8F087000030B51149D2
:1032D00000E011460A688242FBD34B685C188442C6
:1032E00003D1406818444860084643681C1894425B
:1032F00009D1084C103C2468A24209D052681A44F3
:1033000042600A6812680260814200D0086030BDE5
:103310000460F9E78400002006484168096829B183
:103320004168C968C9684968016370474FF0FF3157
:10333000FAE700003800002008484068401C4FF0C1
:10334000500080F3118804D0BFF34F8FBFF36F8F0D
:10335000FEE7BFF34F8FBFF36F8FFEE78C000020B7
:103360002DE9F0410546002700F032FA314E306871
:1033700008B9FFF70DFFF06805424BD1C5B308351A
:1033800068070ED005F00700C0F108000544680783
:1033900007D0502080F31188BFF34F8FBFF36F8F9A
:1033A000FEE72DB37068854234D8224810300146BC
:1033B0000C6801E020460C466168A94202D22168EF
:1033C0000029F7D131688C4224D007682168016058
:1033D00060680837411B10290FD96019420708D0CF
:1033E000502080F31188BFF34F8FBFF36F8FFEE73C
:1033F00010E041606560FFF769FF61687068401A1E
:103400007060B268904200D2B060F0680143002062
:10341000C4E9000100F086FB780707D0502080F354
:103420001188BFF34F8FBFF36F8FFEE73846BDE8BB
:10343000F08100007400002010B5031F4FF080746D
:103440001C601B1F21F001011960191F044B0B6048
:1034500014390A60091F6FF0020244380A6010BD77
:103460003933000830B40E4C029D20600020A0606B
:10347000E060082020610B480C0A04704170110ABA
:103480008170C270190A01714371290A8171C57175
:10349000024630BC012302490348FDF747BA000049
:1034A000380200200100002094040020D0E90132FD
:1034B00001699A60D0E901235A604A68824201D1C9
:1034C00082684A60002202610868401E086008683D
:1034D00070470000034B036003F154000860802034
:1034E00010607047E4040020704700F108014FF0BD
:1034F000FF32C0E90112C160016100210160704723
:1035000000210161704730B50B685A1C02D000F1F0
:10351000080202E0026904E02246546825689D42E0
:10352000FAD953684B6099608A60516008610168FC
:10353000491C016030BD42684A6093688B609368A3
:103540005960916008610168491C01607047000082
:10355000502080F31188BFF34F8FBFF36F8F0A495C
:103560004868401C486001280CD10848006810F0E9
:10357000FF0F07D0502080F31188BFF34F8FBFF3A8
:103580006F8FFEE7704700008C00002004ED00E024
:103590000849486828B1401E486001D180F311886D
:1035A0007047502080F31188BFF34F8FBFF36F8FA8
:1035B000FEE700008C00002070B5002827D0144DD5
:1035C000A0F108046168E868014207D1502080F347
:1035D0001188BFF34F8FBFF36F8FFEE722683AB1B8
:1035E000502080F31188BFF34F8FBFF36F8FFEE73A
:1035F0008143616000F0ECF86068696808446860C5
:103600002046FFF763FEBDE8704000F08BBA70BD46
:10361000740000204FF0E020002101618161054924
:103620004FF47A720968B1FBF2F1491E416107213A
:10363000016170473400002010B5FCF71DFE1149F0
:1036400010280ED300F1E02090F8F0030A789042A1
:1036500007D2502080F31188BFF34F8FBFF36F8FD5
:10366000FEE709480068896800F4E060884207D9ED
:10367000502080F31188BFF34F8FBFF36F8FFEE7A9
:1036800010BD00008C0000200CED00E010B5020021
:1036900014D00F48806B38B1502080F31188BFF3ED
:1036A0004F8FBFF36F8FFEE700F092F800211046B6
:1036B000FFF7B4FC00F036FA002807D105494FF0B7
:1036C00080500860BFF34F8FBFF36F8F10BD0000B5
:1036D0003800002004ED00E070B50D4604000BD06A
:1036E00095B11E4A906BB8B1502080F31188BFF39A
:1036F0004F8FBFF36F8FFEE7502080F31188BFF329
:103700004F8FBFF36F8FFEE7502080F31188BFF318
:103710004F8FBFF36F8FFEE700F05AF852692368AE
:103720005919934204D98B420AD9914202D807E031
:103730008B42FAD9881A21600021FFF76FFC00E064
:10374000216000F0EFF9002807D105494FF08050C3
:103750000860BFF34F8FBFF36F8F70BD380000203C
:1037600004ED00E010B586B00024039405AA04A976
:1037700003A80494FFF7AEFEDDE903010094CDE950
:10378000011000230EA11048059A00F020F90F49FE
:103790000028486311D0502080F31188BFF34F8F69
:1037A000BFF36F8F4FF0FF3008630120C8614C6199
:1037B00006B0BDE8104000F04DB806B010BD0000E6
:1037C00049444C4500000000DD310008380000206D
:1037D0000248816B491C816370470000380000205B
:1037E00010B51A4CA06B10B10120606210BD002012
:1037F0006062206821680068096B884204D82168EB
:1038000020683431FFF770FEA0691149B0FA80F0EA
:10381000C0F11F0000EB800051F820206AB101EBDD
:10382000800000F10802416849684160914201D17D
:1038300049684160C868206010BD502080F311883D
:10384000BFF34F8FBFF36F8FFEE7000038000020FB
:10385000B00800201CB537480168374A914207D1AB
:10386000502080F31188BFF34F8FBFF36F8FFEE7B7
:1038700000683149491E884207D1502080F31188E1
:10388000BFF34F8FBFF36F8FFEE72C49087801908D
:10389000FF20087008788DF800009DF800009DF862
:1038A000002000F0F000904207D0502080F31188F3
:1038B000BFF34F8FBFF36F8FFEE79DF80000204BE3
:1038C00000F0500018700720986005E09DF8002077
:1038D00052008DF80020401E9DF800201206F5D4FD
:1038E0009860032807D0502080F31188BFF34F8FD2
:1038F000BFF36F8FFEE74FF4407098600198087037
:103900000C482030016841F470010160016841F009
:1039100070410160FFF77EFE00205860FCF774FCE8
:103920000848016841F040410160FCF759FC002063
:103930001CBD000000ED00E071C20F4100E400E09A
:103940008C00002034EF00E010B5502080F3118887
:10395000BFF34F8FBFF36F8F00F080F818B10449A9
:103960004FF080500860002080F3118810BD0000E7
:1039700004ED00E02DE9FF5F8346DDE90E879946FF
:1039800016468A469000FFF7EBFC05001CD0542039
:10399000FFF7E6FC040014D00020256384F85100F2
:1039A000CDE90240CDE900874B46324651465846A4
:1039B000FFF744FC2046FFF769FB012004B0BDE897
:1039C000F09F2846FFF7F8FD4FF0FF30F6E7F0B51F
:1039D00085B0DDE90B640A9DA6B1DCB154270097E0
:1039E0002663022684F85160002604AFCDE9024622
:1039F000CDE90057FFF722FC2046FFF747FB04986C
:103A000005B0F0BD502080F31188BFF34F8FBFF396
:103A10006F8FFEE7502080F31188BFF34F8FBFF305
:103A20006F8FFEE70548C16919B1806B18B100209E
:103A300070470120704702207047000038000020C6
:103A400001484069704700003800002010B5FFF7BA
:103A5000F3FD0148406910BD380000202DE9F04118
:103A60002E4C0027A06B40B1206A401C2062606A87
:103A700000B101273846BDE8F0816669761C6661B1
:103A800013D16068006838B1502080F31188BFF30B
:103A90004F8FBFF36F8FFEE76068A1686160A06021
:103AA000A06A401CA062FFF737FC206BDFF8708033
:103AB000864209D36068006880B16068C068C568E4
:103AC000686886420DD220632068C06A00EB8001DE
:103AD00058F821000128CAD90127C8E74FF0FF3064
:103AE000F1E7281DFFF7E2FCA86A18B105F11800FC
:103AF000FFF7DCFCE86A0121A26981401143A16162
:103B000000EB800108EB8100291DFFF714FDE86A36
:103B10002168C96A8842CDD30127CBE7380000204D
:103B2000B00800202DE9F0472C4D00242746A86B53
:103B300038B1FFF70DFDA86B401EA863A86B40B11C
:103B400046E0502080F31188BFF34F8FBFF36F8F93
:103B5000FEE72969224E0120D1B3A6F1B4098046BF
:103B60003068E8B1F068C46804F11800FFF79EFC03
:103B7000201DFFF79BFCE06AAA6908FA00F11143D7
:103B8000A96100EB800109EB8100211DFFF7D3FC47
:103B9000E06A2968C96A8842E2D3C5F82480DFE771
:103BA0000CB1FFF7B9FB2C6A44B14646FFF756FF4C
:103BB00000B16E62641EF9D100202862686A38B1D3
:103BC0000849012738070860BFF34F8FBFF36F8F95
:103BD000FFF7DEFC3846BDE8F08700003800002023
:103BE0006409002004ED00E09C3C00080D2A000858
:103BF0000000000000000000800000000000000045
:103C000000000000903C0008C92E0008FDFF0000E5
:103C100000000000000100000000000000000000A3
:103C2000843C0008352B0008FDFF00000000000068
:103C3000000100000000000000000000783C0008C7
:103C4000152A0008FDFF00000000000080000000B1
:103C5000000000000000000000061016000610160C
:103C6000000000000000000001020304060708092C
:103C700000000000010203044445544543544153ED
:103C80004B0000004C4F4749435441534B00000048
:103C90005049445F5441534B000000006465666125
:103CA000756C745461736B00C83C00080000002000
:103CB00098000000EE290008603D000898000020F0
:103CC00008490000FE290008000000000000000074
:103CD00000000000000000000000000000000000E4
:103CE00000000000000000000000000000000000D4
:103CF0000100000010000000000000000024F4009B
:103D000000000000000000000000000000000000B3
:103D100000000000000000000000000000000000A3
:103D20000000000000000000000000000000000093
:103D30000000000000000000000000000000000083
:103D40000000000000000000000000000000000073
:103D50000000000000000000AAAAAAAA00000000BB
:04000005080001AD41
:00000001FF
