:020000040800F2
:1000000060250020FD0100089333000855300008EA
:1000100091330008E90B0008AF3B00080000000026
:100020000000000000000000000000006501000862
:100030008911000800000000A9010008E537000848
:10004000170200081702000817020008170200082C
:10005000170200081702000817020008170200081C
:100060001702000817020008170200081510000800
:1000700017020008211000081702000817020008E4
:10008000170200081702000817020008F90B000801
:10009000ED0B0008170200081702000817020008FD
:1000A00017020008170200081702000817020008CC
:1000B00017020008170200081702000817020008BC
:1000C00017020008170200081702000817020008AC
:1000D000170200081702000817020008493B000831
:1000E00017020008170200081702000800000000AD
:1000F0000000000000000000000000000000000000
:1001000000000000000000001702000817020008AD
:10011000170200081702000817020008170200085B
:10012000170200081702000817020008170200084B
:10013000170200080000000000000000170200087D
:10014000170200081702000817020008170200082B
:10015000DFF80CD000F074FC00480047B5480008F8
:1001600060250020224B19680868B0E8F00F80F382
:100170000988BFF36F8F4FF0000080F311884EF0B5
:100180000D0E70470000000006480068006880F30C
:10019000088862B661B6BFF34F8FBFF36F8F00DF81
:1001A00000BF00BF08ED00E0EFF30980BFF36F8FE1
:1001B0000F4B1A6820E9F00F106008B54FF050009F
:1001C00080F31188BFF34F8FBFF36F8F05F054FC9E
:1001D0004FF0000080F31188BDE8084019680868F6
:1001E000B0E8F00F80F30988BFF36F8F704700BF4E
:1001F0005C000020EFF30580704700000648804750
:1002000006480047FEE7FEE7FEE7FEE7FEE7FEE7FB
:10021000FEE7FEE7FEE7FEE771380008510100083F
:100220002DE9F05F0546002092469B46884606462B
:10023000814640241BE0284641464746224600F0BE
:1002400020F853465A46C01A914110D31146184619
:10025000224600F00FFB2D1A67EB01084F4622469D
:100260000120002100F006FB17EB00094E41201E83
:10027000A4F10104DFDC484631462A464346BDE886
:10028000F09F202A04DB203A21FA02F00021704777
:1002900021FA02F3D040C2F12002914008431946EE
:1002A000704740EA01039B0703D009E008C9121F09
:1002B00008C0042AFAD203E011F8013B00F8013B20
:1002C000521EF9D27047D2B201E000F8012B491E4C
:1002D000FBD270470022F6E710B513460A460446E3
:1002E0001946FFF7F0FF204610BDF0B480EA010286
:1002F000D40F4200B2EB410F02D20246084611462B
:100300004A0042D0C30DDDB2C1F3C752AD1A202D51
:1003100035DAC1F3160141F4000204B15242C5F1CD
:10032000200602FA06F12A411044B3EBD05F23D035
:10033000C4B1012DA0EBC35009DCF0BC4FF000426A
:1003400002EAC352DBB200F5000000F0BDBA400083
:1003500000F1807000EBC350A0F1807040EAD170D2
:10036000490009E0490841EAC071A0EBC35000F51B
:100370000000400800EBC350F0BC00F09CBA6142A2
:10038000012202EB4101001BF6E7F0BC704781F04F
:100390000041AAE780F00040A7E730B480EA0102FC
:1003A00002F0004530F0004221F0004013D090B13F
:1003B000C30DD40DC2F31601C0F31600E41A41F4C4
:1003C000000140F400027D34914201D3641C00E03E
:1003D0004900002C02DA30BC002070474FF40000C6
:1003E0000023914201D3891A034340084FEA410197
:1003F000F7D151B1914202D14FF0004105E002D254
:100400004FF0010101E06FF0010103EBC4502844FB
:1004100030BC00F050BA2DE9FE4F804681EA03005F
:10042000C00F0C46009021F0004123F00045B8EBCE
:100430000200A94105D24046214690461C460B4683
:10044000024623F00040104347D0270DC7F30A00AF
:10045000C3F30A510290401A019040286BDAC3F3AB
:10046000130040F4801B0098924620B10023D2EB89
:10047000030A63EB0B0B01985946C0F1400250464A
:1004800000F0F8F906460D4650465946019A00F02C
:1004900000FA10EB08006141002487EA115284EA57
:1004A000E7731A4340D0009A62B3019A012A4FEAD7
:1004B000075215DC001B61EB02014FF0004202EA1B
:1004C0000752CDE90042001C41F5801132462B460F
:1004D00000F037FA03B0BDE8F08F40462146F9E757
:1004E000001B61EB0201001C41F5801300185B4109
:1004F0002018A2F5001747EB030140EAD570B619A2
:100500006D4111E06D084FEA360645EAC0754FEAC5
:100510000752001B61EB0201001C41F580114908E4
:100520004FEA30000019514132462B4603B0BDE876
:10053000F04F00F0F7B90098012240000023D0EB03
:10054000020263EBE073009821464FEAE074B8EBD7
:10055000000061EB0401E9E783F000435BE781F011
:10056000004158E72DE9FE4F81EA030404F00044FE
:1005700021F0004100944FF0000B23F0004350EABB
:1005800001045ED052EA03045BD0C3F30A54C1F302
:100590000A552C44A4F2F3340194A0FB0254C1F395
:1005A000130141F48011C3F3130343F4801301FBDF
:1005B000024400FB034E840A970A44EA815447EA46
:1005C0008357A4FB076802958D0A05FB07854FEA50
:1005D000932C04FB0C542705029D4FEA065847EA6A
:1005E0001637B5EB08056EEB070C870E920E47EA3F
:1005F000811742EA8312A7FB0201B6EB0B0164EB01
:1006000000042B0D43EA0C335E1844EB1C50DA4611
:100610005146E7FB0201C5F313044FEA0B3343EAEB
:1006200014534FEA0432019C43EA0603A4F10C047C
:100630000294009CCDE900B400F083F903B0BDE85A
:10064000F08F00200146F9E72DE9F04D81EA03041F
:1006500004F0004B21F0004514464FF0000A23F04F
:10066000004150EA050220D054EA01021DD0C5F332
:100670000A570246C5F31303C1F31300C1F30A5628
:1006800040F4801543F48013A7EB0608101BD646F0
:1006900008F2FD3873EB050002D308F1010801E010
:1006A00092185B41B8F1000F03DA00200146BDE863
:1006B000F08D00204FF48011064684460EE0171B93
:1006C00073EB050705D3121B63EB050306434CEAE6
:1006D000010C49084FEA300092185B4150EA0107CB
:1006E000EDD152EA030012D082EA040083EA050148
:1006F000084305D0101BAB4106D20122002306E0BF
:1007000000224FF0004302E06FF0010253101AEB99
:1007100006004CEB085110EB0A0041EB0B01BDE861
:10072000F04D00F0FFB8C10F80EAE0700844CA073E
:100730009623002100F0C8B896230022114600F04D
:10074000C3B80EB5C10F80EAE0700844CA070021A3
:1007500040F233438DE80E000A460B4600F0F1F8F4
:1007600003B000BD00F0004220F00040C10DC0F316
:10077000160040F400007F2901DA00207047962916
:1007800003DCC1F19601C84001E096398840002A97
:10079000F4D04042704770B5C1F30A5201F00045F1
:1007A0000024C1F3130140F2FF3341F480119A4257
:1007B00001DA002070BD40F233439A42A2F2334284
:1007C00003DC5242FFF75DFD00E090402C43F1D086
:1007D000404270BD00F0004230F000400AD0C10D30
:1007E00001F56071C0F3160042EA0151C2084007EA
:1007F0001143704700200146704701F0004330B4B8
:1008000021F0004150EA010206D00A0DA2F5607203
:10081000C1F31301002A02DC30BC00207047440FF2
:1008200044EAC104C100E01830BC00EBC25000F043
:1008300042B80000002801DBC0F10040002901DBC4
:10084000C1F100418142704730B50B46014600209E
:100850002022012409E021FA02F59D4205D303FA82
:1008600002F5491B04FA02F52844151EA2F1010203
:10087000F1DC30BD202A04DB203A00FA02F100202E
:1008800070479140C2F1200320FA03F319439040CE
:100890007047202A06DBCB17203A41FA02F043EAE0
:1008A000E07306E041FA02F3D040C2F12002914029
:1008B0000843194670470029A8BF7047401C4900EB
:1008C00008BF20F00100704710B4B0FA80FC00FAB5
:1008D0000CF050EA010404BF10BC704749B1CCF1E0
:1008E000200421FA04F411FA0CF118BF012121436C
:1008F0000843A3EB0C01CB1D4FEA00614FEA102027
:1009000042BF002010BC704700EBC35010440029C8
:10091000A4BF10BC7047401C490008BF20F0010074
:1009200010BC704710B5141E73F1000408DA401CA7
:1009300041F1000192185B411A4301D120F00100FE
:1009400010BD2DE9F04D92469B4611B1B1FA81F2EE
:1009500002E0B0FA80F220329046FFF78BFF0446A7
:100960000F4640EA0A0041EA0B0153465A46084343
:1009700013D0114653EA010019D0C8F14002504685
:10098000FFF77FFC05460E46504659464246FFF7A4
:1009900071FF084305D0012004E020463946BDE838
:1009A000F08D0020054346EAE0762C4337430A9851
:1009B0006305E40AA0EB08000022FD0A44EA47545C
:1009C0000A3002D500200146E9E701051019694106
:1009D000DDE9084500196941BDE8F04DA2E7C1F322
:1009E0000A52C1F3130140F2FF3341F480119A42DD
:1009F00002DA00200146704740F233439A42A2F2E5
:100A0000334202DC5242FFF73CBCFFF733BF000029
:100A100030B5041E71F1000404DB4FF00044404285
:100A200064EB0101141E73F1000405DB1C464FF05A
:100A30000043524263EB0403994208BF904230BD29
:100A4000064C074D06E0E06840F0010394E807001B
:100A500098471034AC42F6D3FFF77EFBE8660008F7
:100A60000867000830B50A4B00221146094C5A604D
:100A700005E000BF54F82250521C2944D2B28242F1
:100A8000F8D33220B1FBF0F0586080B230BD0000E6
:100A900038000020700B002070B5044600688168A3
:100AA000C943C9071CD1816821F00101816001F0AF
:100AB0000BFC05460FE000BF01F006FC401B0228BE
:100AC00009D9A06A40F01000A062E06A40F001007D
:100AD000E062012070BD20688068C043C007EBD091
:100AE000002070BD10B50146406A826A12F0500FB6
:100AF00005D0006A026BBDE8104008461047816AC5
:100B000041F40071816201688968C1F3424107299B
:100B10000CD1C16851B9816A21F480718162816A06
:100B2000C90403D4816A41F00101816200F014FC20
:100B300010BD10B5406A816A41F040018162C16A0E
:100B400041F00401C16200F009FC10BD10B5406A1B
:100B500000F003FC10BD0000F8B500260446009626
:100B600000688168C943C90728D0816841F0010144
:100B70008160134813490068B0FBF1F000E0401EAB
:100B800000900028FBD101F09FFB054611E000BF5B
:100B900001F09AFB401B02280BD9A06A40F010001C
:100BA000A062E06A40F00100E06284F82460012065
:100BB000F8BD20688068C043C007E9D10020F8BDB7
:100BC0004C00002040420F00064910B5322201F1CE
:100BD000C80000F0FBFC0348BDE81040C83000F03E
:100BE00095BC0000700B0020FEE70000014800F0FB
:100BF000EDBD0000AC0C0020014800F0E7BD000096
:100C0000AC0C002010B5074800F0A2F805480168B8
:100C10004A6942F002024A610068416941F00101FB
:100C2000416110BDAC0C002010B5002958D0826B7A
:100C30004FF4D873046803EB0113E45814F0040470
:100C400094600468E4584DD0E40854600468E358A4
:100C500003F00203D3604FF4DA73046803EB01136B
:100C6000E45804F00F04146111620468E358C3F3FC
:100C70000723D3614FF4DC73046803EB0113E458DA
:100C800014750468E458240A54750468E458240C64
:100C900094750468E3581B0ED3754FF4DE73046833
:100CA00003EB0113E45814760468E458240A5476DC
:100CB0000468E458240C94760468E3581B0ED37639
:100CC0000368202289B11A610268536923F0500336
:100CD000536190F83C20222A0DD0322A0BD00FE02D
:100CE000426BA5E7640D1460B0E7DA6002685369EF
:100CF00023F00A03ECE70268536923F40F435361BE
:100D000012220123002990F83C1006D0522915D058
:100D1000622916D0722906D115E042290ED0622927
:100D200008D0722908D080F83C3000BF00F050FF96
:100D3000002010BD322107E0522105E080F83C2060
:100D4000F4E7222100E0422180F83C10EEE70000A9
:100D500070B58AB00646164830631C3070630024B4
:100D60000125CDE9065444F220000594009044F298
:100D70004000019044F260000290089546F2200085
:100D8000039004946946304600F0A6FCCDE9065471
:100D900046F240000595CDE90004089504940294BC
:100DA00069463046039400F097FC0AB070BD00001D
:100DB000C000002070B50C46054664A100F006F99D
:100DC00018B1204603F086FEB9E061A1284600F084
:100DD000FDF818B1204603F0C1FEB0E05DA1284641
:100DE00000F0F4F818B1204603F0FCFEA7E05AA189
:100DF000284600F0EBF818B1204603F021FF9EE0F2
:100E000056A1284600F0E2F80028DDD154A128467A
:100E100000F0DCF80028D7D152A1284600F0D6F81F
:100E20000028D1D150A1284600F0D0F80028CBD11D
:100E30004EA1284600F0CAF80028C5D14CA128468A
:100E400000F0C4F800287AD14AA1284600F0BEF884
:100E5000002874D148A1284600F0B8F800286ED1C7
:100E600046A1284600F0B2F8002868D144A12846DF
:100E700000F0ACF8002862D142A1284600F0A6F8A4
:100E800000285CD140A1284600F0A0F8002856D1E7
:100E90003EA1284600F09AF8002850D13CA12846EF
:100EA00000F094F800284AD13AA1284600F08EF8C4
:100EB000002844D138A1284600F088F800283ED107
:100EC00036A1284600F082F8C8BB35A1284600F0BC
:100ED0007DF8A0BB33A1284600F078F878BB32A19A
:100EE000284600F073F850BB30A1284600F06EF899
:100EF00010B103F0CBFC22E02DA1284600F066F8EB
:100F0000E8B92CA1284600F061F8C0B92AA128460A
:100F100000F05CF898B929A1284600F057F870B99C
:100F200027A1284600F052F848B926A1284600F02B
:100F30004DF820B924A1284600F048F808B1002057
:100F400070BD2146284603F0CDFAF8E72A310000AB
:100F50002A3200002A3300002A3400002A3500001B
:100F60002A3600002A3700002A3800002A390000FB
:100F7000233100002332000023330000233400001B
:100F800023350000233600004031000040320000CD
:100F9000403300004034000040350000403600007F
:100FA0004037000040380000403900002431000084
:100FB00024320000243300002434000024360000D2
:100FC00024370000243800002439000030B50C46D6
:100FD000054602F0EBFB0346204602F0E7FB8342A6
:100FE0000AD1002004E0295C225C914204D1401C1B
:100FF0009842F8DB012030BD002030BD0022835C28
:1010000023B18B54521C642AF9DB00E08B5401207D
:1010100070470000014800F0BBBE0000680C0020D3
:1010200008B5064800F0B4FE0548007800F064F802
:101030000448006801684068009008BD2C1000203A
:1010400060010020EC0F002030B590F840500124E2
:10105000AC40C56B6C60046863604368102B036828
:1010600003D099600068C26030BD9A600068C160BA
:1010700030BD00002DE9F04781460027012602F02F
:1010800095FB050003D00024DFF864802CE00020ED
:10109000BDE8F087621C2146484602F08FFB15A18F
:1010A000FFF794FF78B122463946484602F086FBA6
:1010B00002F0F4FAFFF78EFB08EBC602671CC2E9E8
:1010C0000001761C0FE0281B01280CD12A46394666
:1010D000484602F073FB02F0E1FAFFF77BFB08EBF6
:1010E000C602C2E90001641CAC42D3DB3046CFE744
:1010F000300300202000000070B52149214B282832
:101100000A780BD012B19854521C0A7029280BD1BE
:101110000024D0B225461C540C700BE0002AF2D1FA
:10112000282018700120087070BD58194078585553
:101130006D1CEDB2134802F039FB401EA842F4DCEE
:10114000104802F033FB18440E4A00F8024C503AA3
:10115000A2F114010B4802F078FA0A485038FFF760
:1011600089FF014607486438FFF724FE054900203F
:1011700050390C54401CC0B26428FAD370BD000032
:1011800004000020640200207047704770B50F4EC5
:1011900001244021304601F089F8FFF7CDFA2946B5
:1011A000FFF7A3F805462046FFF7C6FA0146284692
:1011B000FFF7F3F8641CE4B20B2CEAD3044988422D
:1011C00001DA012070BD002070BD00000010014058
:1011D000CDCC4C3E02460020431E115C202904D099
:1011E00011B1401C6428F8DB1846704710B501F0B7
:1011F00033FF01F057FF02F0A9F9FFF7C7FF01F035
:101200002BFF114C012807D001F04CFF012815D00D
:1012100002F09CF9032106E001F044FF012804D00C
:1012200002F094F90221617410BD02F08FF90128D7
:1012300002D00020607410BD0420FBE702F086F9A4
:101240000128F7D00520F5E7580B002010B503F072
:10125000BDFABDE8104003F08BBD0000F8B50024D6
:10126000009490F824202546012A12D0012280F80B
:1012700024204A681F23072A0DD20668776B521E66
:1012800002EB820293409F430B6893401F437763B6
:1012900019E00220F8BD06680D2A0AD2376BD21F6A
:1012A00002EB820293409F430B6893401F433763D6
:1012B00009E0F76A0D3A02EB820293409F430B6804
:1012C00093401F43F7620A68072306680A2A0AD375
:1012D000F7680A3A02EB420293409F438B689340BF
:1012E0001F43F76008E0376902EB420293409F43D7
:1012F0008B6893401F4337610A68102A01D0112A76
:1013000020D1124B02689A4217D193681B0219D45C
:10131000936843F4000393600968102912D10C49C3
:101320000C4A0968B1FBF2F101EB8101490000E0D0
:10133000491E00910029FBD104E0816A41F020019F
:101340008162012480F824502046F8BD0024014029
:101350004C00002040420F0070477047704700006B
:101360002DE9F0414FF0000704003D467ED0A06A11
:10137000002628B9E66284F82460204600F07EF852
:101380002046FFF789FBA16A01F01001014304D058
:10139000A06A40F01000A06268E0A16A21F48851C0
:1013A00041F00201A1626268E169E3680A4347EA29
:1013B00043010A43A1684FF48077B94208D001295C
:1013C00006D00021D4F814C0BCF1010F02D00AE00D
:1013D0003946F7E7F3B1A36A43F02003A362E36A57
:1013E00043F00103E3622368D3F804C02CF4694C92
:1013F0004CEA010CC3F804C023689968DFF870C098
:1014000001EA0C0111439960A168B9420BD001298E
:1014100009D00CE0DFF85CC0A3690CEB43330B434D
:1014200043F40061DFE7218A0D05A5F580152168E9
:10143000CB6A23F470032B43CB62216889680E4B7F
:101440001940914208D1E662A16A21F0020141F0FF
:101450000101A162BDE8F081A06A20F0020040F025
:101460001000A062E06A40F00100E0620120F1E7B4
:10147000FDF7E1FF00E0FFFFFE0E1FFF70B586B035
:1014800000250646009501950295039500681A49C6
:1014900088422ED11949886940F4007088618869B2
:1014A00000F400700490886940F004008861886945
:1014B000694600F00400049002200090032001908F
:1014C0000F4800F015FE104C0E48C4E900058020BE
:1014D000C4E9025080002061800060612020C4E9DE
:1014E0000605204600F078FD08B1FFF74EFE346295
:1014F000666206B070BD000000240140001002408A
:101500000008014008000240680C002070B5044645
:1015100090F8240001280DD0012084F824002046F2
:10152000FFF71AFB02004FF0000005D084F82400FA
:10153000104670BD022070BDA16A40F2012399439C
:1015400041F48071A1621F4D23681F49AB4218D13D
:101550000E6816F4702F14D0A66A46F48016A662A0
:101560000E68760505D5A66A26F4005646F4805620
:10157000A662A66AF6040AD5E66A26F00606E662C0
:1015800006E0A66A26F48016A6625E68E9E7E062D5
:1015900084F824006FF00200186020688368C3F3A9
:1015A0004243072B05D1A84208D1096811F4702FD6
:1015B00004D0816841F480118160B9E7816841F409
:1015C000A001F9E700280140042401402DE9F0477B
:1015D000894604463B4900683B4F0E1D90468842B1
:1015E00001D0B84207D1306810F4702F03D0012524
:1015F0002846BDE8F08794F8240001280CD001208B
:1016000084F824002046FFF7A7FA05004FF00000F9
:1016100004D084F82400EBE70220EAE7A16A40F650
:101620000162914341F48071A1622168B94218D1ED
:10163000326812F4702F14D0A16A41F48011A162B3
:101640003168490505D5A16A21F4005141F4805162
:10165000A162A16AC9040AD5E16A21F00601E1622A
:1016600006E0A26A22F48012A2624968E9E7E06219
:1016700084F82400216A15488862216A1448C862E7
:10168000216A1448086321686FF00200086020682E
:10169000816841F480718160216843464A464C313B
:1016A000206A00F0DBFC20688168C1F34241072911
:1016B000816803D041F48011816099E741F4A00171
:1016C000FAE700000024014000280140E50A000874
:1016D0004D0B0008330B0008F0B50C7D012303FA15
:1016E00004F20468D4F800524E6A25F47C5503EBEA
:1016F00006231D43C4F800520368D3F81C429443E8
:10170000C3F81C424FF41073CD691C1DBDB90568A8
:10171000D5F80C629643C5F80C628E894D684F6906
:1017200066F31F45066803EBC707F5510E890D6880
:101730004F6966F31F45066804EBC707F551CD698D
:10174000012D17D10568D5F80C621643C5F80C6257
:101750000E884D684F6966F31F45066803EBC703A3
:10176000F5500D89CB684E6965F31F43056804EB9E
:10177000C6042B518B69002B0368D3F8044211D0A7
:1017800054EA0204C3F804420B69002B0368D3F83F
:10179000144209D054EA0204C3F81442096A012928
:1017A00004D009E09443EDE79443F5E70168D1F8EC
:1017B0001C321343C1F81C320068D0F8001221F02B
:1017C0000101C0F800120020F0BD70472DE9F04182
:1017D000044600680026C168C1F300134169C1F3E3
:1017E000C002102113B10AB14E01C1602068026924
:1017F0004369C2F30012C3F380131AB113B146F464
:1018000080660161216848694FF00105C043C00747
:101810004ED18A687648904323D000208B68754A61
:101820009A4320D000228F68734BBB431DD0002306
:10183000104318433CD088688A68C0F340008B6826
:10184000C2F3402203F001031043184329D04A6930
:10185000204622F001024A6194F83C10122906D079
:101860000AE00120DAE70122DDE70123E0E7016871
:101870004A6922F40F424A6190F83C10422908D08C
:10188000522908D0722908D080F83C5000F07EFA26
:1018900009E0222102E0322100E0622180F83C10C0
:1018A000F4E746F4006620688168544A1143816079
:1018B0002168C868496910F0030FC1F3400104D0E2
:1018C00019B100212046FFF7AFF92168086949697D
:1018D00010F0030FC1F3001104D019B1012120460B
:1018E000FFF7A2F9206C30432064206881694269C7
:1018F00011F0010F4369C2F30022C3F3C03305D0D6
:1019000022B11BB1216C41F0010121648169C1F355
:1019100040034169C1F340224169C1F3C0312BB199
:1019200022B119B1216C41F0020121648169C1F336
:10193000800341694269C1F38021C2F3C0322BB1F7
:1019400021B11AB1216C41F004012164816911F0C7
:10195000700F08D000224169C1F3C0234169C1F36F
:10196000C03112B121E00122F5E7F3B1E9B181699B
:1019700001F0700140292FD006DC102909D0202960
:101980000BD030290DD123E0502929D0602908D16E
:101990002AE0216C41F0080102E0216C41F01001C5
:1019A0002164816921F070018161206C00280DD0D3
:1019B00021680420486084F83C502068416948F65A
:1019C0005B72914341612046FFF7FFFEBDE8F08165
:1019D000216C41F02001E3E7216C41F04001DFE799
:1019E000216C41F08001DBE7216C41F48071D7E785
:1019F00001000004000100080000011009050100B9
:101A00002DE9F04104004FF0000504D094F83C00AB
:101A1000002618B107E00120BDE8F08184F83D60A0
:101A2000204600F083F8022084F83C00206801681A
:101A300021F0020101602068016841F001010160AC
:101A400000F042FC07464FF0030804E000F03CFCC5
:101A5000C01B0A2853D820684068C007F6D0216808
:101A60004868C00758D0A069012801D145F0800519
:101A7000E06901282FD025F04000226A012A2DD0EC
:101A800020F02000626A012A2BD020F01000A26A08
:101A9000012A29D020F00800E26A012A27D020F08C
:101AA00004000A6822F0FC0202430A60D4E9020141
:101AB0000843D4E90412114308436168491E0843EE
:101AC0002168C8612068016821F00101016000F00F
:101AD000FBFB054618E045F04000CEE740F0200053
:101AE000D0E740F01000D2E740F00800D4E740F023
:101AF0000400D6E700F0E8FB401B0A2804D904F8EC
:101B00003C8F0320667087E720684068C007F1D1EA
:101B100020684068C00703D0042084F83C007AE7BE
:101B20002664012084F83C00002075E710B586B0DB
:101B3000002100910191029103910068204988429F
:101B40003BD12048C16941F00071C161C16901F018
:101B500000710491816941F00801816180691A4C2A
:101B600000F0080004904FF4807000906946204611
:101B700000F0BEFA6015009002200190032003904F
:101B80006946204600F0B4FA1048416821F4C0418B
:101B900041F0E06141F480414160002205211320C1
:101BA00000F032FC132000F023FC00220521142059
:101BB00000F02AFC142000F01BFC06B010BD000051
:101BC0000064004000100240000C01400000014091
:101BD00010B5204A016891423AD1406B40F203238C
:101BE0001D4900681D4CA0F20322984218D004DC65
:101BF000901C05D0012825D10AE0FE2A22D117E049
:101C00001548103002F0AAFD6088401C608019E081
:101C10001148303002F0A2FD2089401C208111E0E3
:101C20000D48503002F09AFDE089401CE08109E047
:101C300009480B491438027D0A70407D4870A08A1B
:101C4000401CA08207480068416941F002014161DF
:101C500010BD000000640040F0000020B80A002021
:101C6000580B0020AC0C002070B50368996849013E
:101C700005D49968090102D49968C9007ED590F805
:101C80003D10012907D0012180F83D1099684901D4
:101C900003D5002207E0022070BD9968090101D533
:101CA000012200E002224FF4C07101EB02115C58E6
:101CB00004F001045C50036B9C68ECB30668755833
:101CC0002543DC685B6844EAC3031D437550036B1E
:101CD0001C7C04F00F041C614FF4C273046803EB16
:101CE0000213E55825F00F05E5500468E558066B2A
:101CF00036693543E550036B4FF4C47505EB0215A7
:101D00001C7DD3F8153044EA032304686351036B48
:101D10004FF4C67505EB02121C7ED3F8193044EA65
:101D200003230468A35090F83C20222A10D0322AC2
:101D300010D0622A23D000E001E012220BE00468F8
:101D40006558DE681B88354345EA43536350BEE758
:101D5000422200E0522280F83C200022026480F8F7
:101D60003D200268535843F0010353500068416915
:101D700048F6017211434161002070BD01E07222FA
:101D8000E9E7042180F83C100120F6E770470000E5
:101D90002DE9F05FC16B0A6801680B68046C4FF0B5
:101DA000040808FA04F8844D844E854FDFF814C205
:101DB000DFF81492DFF814A2DFF814B2DFF814E2AF
:101DC00018EA020F65D05FEA437862D50A68920686
:101DD00003D40A6822F004020A60DFF8F0814FF4AD
:101DE0008062016808F1140813011402414524D9E6
:101DF000A9420DD0B1420FD0B9421AD0614515D0D9
:101E0000494515D0514501D1120312E0594501D180
:101E100004220EE0714501D140220AE06D4D1435D7
:101E2000A94206D06B4A2832914201D11A4600E0FD
:101E300022466749091F0A6029E0A94213D0B1422E
:101E400015D0B94220D061451BD049451BD0514522
:101E500002D14FF4800217E0414502D14FF0806279
:101E600012E0594501D104220EE0714501D1402212
:101E70000AE0584D1435A94206D0564A28329142FC
:101E800001D11A4600E022464B4908394A60C16A2E
:101E900071E04FF0020808FA04F818EA020F70D057
:101EA0005FEA83786DD50A68920606D40A6822F044
:101EB0000A020A60012180F82110DFF810814FF436
:101EC0000072016808F1140813011402414524D975
:101ED000A9420DD0B1420FD0B9421AD0614515D0F8
:101EE000494515D0514501D1120312E0594501D1A0
:101EF00002220EE0714501D120220AE0354D143551
:101F0000A94206D0334A2832914201D11A4600E054
:101F100022462F49091F0A6029E0A94213D0B14285
:101F200015D0B94220D061451BD049451BD0514541
:101F300002D14FF4001217E0414502D14FF0007278
:101F400012E0594501D102220EE0714501D1202253
:101F50000AE0204D1435A94206D01E4A283291428B
:101F600001D11A4600E02246134908394A6000218F
:101F700080F82010816A00291CD0BDE8F05F084776
:101F8000FFE70825A540154214D01A0712D50A68A4
:101F900022F00E020A6090F84020C36B012101FA82
:101FA00002F25A60816380F82110002180F820102D
:101FB000016BE0E7BDE8F09F080002401C00024012
:101FC0003000024044000240580002406C000240D1
:101FD000080402401C04024030B560B11C4A03688A
:101FE0001421934209D21B4A1A44B2FBF1F1890031
:101FF000016419490AE0012030BD154A52421A44D1
:10200000B2FBF1F18900016411490839C163022171
:1020100080F821101A6843F6F0718A43F0E9011440
:102020002143D0E902452C432143046921434469FB
:102030002143846921431143196000214162816277
:10204000C16201634163012242770177084630BDD6
:1020500008040240F8FFFDBF0000024070B50446CE
:1020600090F82000002501280CD0012084F82000E1
:1020700094F821600020012E06D084F8200002256B
:10208000284670BD022070BD022684F82160A0633E
:102090002068066826F0010606602046FEF7D4FF99
:1020A000E06A00282068016802D041F00E0106E0D5
:1020B00021F0040101602068016841F00A0101601B
:1020C0002068016841F001010160D9E770B504465C
:1020D00000F0FAF80546601C02D004480078044479
:1020E00000F0F2F8401BA042FAD370BD500000206F
:1020F0002DE9F84FDFF890A100220AF1040B1446F5
:1021000001274FF00F090BF1040E00BF0B6807FA0F
:1021100004F52B40AB4274D1DFF870C14E68A6EBDA
:102120000C0866452BD00DDC032E34D005DC36B30D
:10213000012E19D0022E2FD11BE0112E16D0122EF7
:102140002AD119E0B8F5881F19D006DCB8F5803F10
:1021500015D0B8F5801F1FD111E0B8F5001F0ED0C3
:10216000B8F5041F18D10AE0CA6815E0CA68121D44
:1021700012E0CA6808320FE0CA680C320CE08A68C4
:102180002AB1012A4FF0080203D0456104E004227D
:1021900002E0056100E00022FF2B01D8064601E0C5
:1021A00000F104064FEA840501D9A5F12005D6F80F
:1021B00000C009FA05F82CEA080C02FA05F54CEA09
:1021C000050CC6F800C04D68ED0057D5304DAE691E
:1021D00046F00106AE61AD6924F0030605F0010585
:1021E00000952C4D06EB050CDCF80850A6074FEACD
:1021F000167809FA08F6B543274EB04202D10026F8
:1022000010E03BE0254EB04201D101260AE0244E09
:10221000B04201D1022605E0224EB04201D1032690
:1022200000E0042606FA08F62E43CCF808604D6854
:10223000DAF80060ED03554601D51E4300E09E43E9
:102240002E604D68DBF80060AD035D4601D51E438E
:1022500000E09E432E604D68DEF80060ED0275469A
:1022600001D51E4300E09E432E604D68AD020E4D29
:102270002E6801D51E4300E09E432E60641C102C86
:10228000FFF444AFBDE8F88F0004014000001110D6
:10229000001002400000014000080140000C014015
:1022A00000100140001401400C0401408068084007
:1022B00000D001207047C2684A40C26070470AB12E
:1022C000016170470904FBE701488068704700001E
:1022D0005000002070B5040011D021684CF6CC40AD
:1022E0000860216845F255500860D4E9000141605A
:1022F0002168A0688860FFF7E7FF054609E0012034
:1023000070BD00BFFFF7E0FF401B302801D903205C
:1023100070BD2068C0680028F4D121684AF6AA2060
:102320000860002070BD00684AF6AA210160002004
:10233000704700000248816802781144816070474C
:1023400050000020074810B5016841F010010160FD
:10235000032000F079F80F2000F006F800F024F8D0
:10236000002010BD0020024070B50D4D04464FF412
:102370007A712878B1FBF0F00A490968B1FBF0F0F6
:1023800000F074FD48B9102C07D200222146501EDF
:1023900000F03AF800206C6070BD012070BD0000B4
:1023A000500000204C0000200F4808B5816941F022
:1023B00001018161816901F001010091C16941F070
:1023C0008051C161C069002200F0805000900F214F
:1023D000901E00F019F80548416821F0E06141F0D5
:1023E0000071416008BD0000001002400000014083
:1023F00000F01F02012191404009800000F1E0201F
:10240000C0F8001170470000F0B40E4B1B680C467A
:10241000C3F30223C3F10705042D00D90425191DB8
:10242000072901D2002300E0DB1E012606FA05F190
:10243000491E214099409E40761E16403143F0BC13
:1024400000F0A8BF0CED00E0064900F007020868A4
:102450004FF6FF03184040EA0220034A1043086089
:10246000704700000CED00E00000FA052DE9F8438C
:10247000044600785B4DC0074FF0010951D0E86970
:102480000026C00008D4E86940F08050E861E8699F
:10249000012600F08050009053480168C90512D40D
:1024A0000168804641F480710160FFF70DFF074627
:1024B00005E000BFFFF708FFC01B642877D8D8F8F5
:1024C0000000C005F6D5286A10F440701ED0A1881F
:1024D00001F44071814219D0286A444920F44070C7
:1024E000C1F8009000220A602862C0070ED0FFF7F2
:1024F000EBFE074641F2883805E000BFFFF7E4FE37
:10250000C11B414553D8286A8007F7D5286A6168FE
:1025100020F44070084328621EB1E86920F0805022
:10252000E8612078800705D56868A16820F44040FC
:10253000084368602078400705D5E86AE16820F420
:1025400000300843E8622078000705D5E86A216971
:1025500020F480200843E862E86A800302D4E86A35
:10256000400333D52868C00028D42868400105D529
:10257000E86AA16900F0F000884225D1E86AA16903
:1025800020F0F0000843E862E86A616920F47040D6
:102590000843E8621649C1F87090FFF795FE0646B9
:1025A00008E004E0FFF790FE801B642802D90320B6
:1025B000BDE8F88328688000F4D507E0E86A61691F
:1025C00000F47040884201D00120F1E72078C00675
:1025D00005D56868E16920F4800008436860002040
:1025E000E6E7000000100240007000404004424254
:1025F000000042422DE9F047DFF83C8105460E46D7
:10260000D8F8000000F00700B0420CD2D8F8001053
:1026100021F007013143C8F80010D8F8000000F09D
:102620000700B04263D12878444C800705D5606824
:10263000A96820F0F000084360602878C00745D002
:102640006868012816D02168022816D08907002959
:102650004DDA616821F0030101436160FFF734FE48
:102660006968074641F2883001290FD00229814666
:1026700019D027E021688903E9E78901E7E700BF6E
:10268000FFF722FEC11B494501D918E08146606869
:10269000C0F381000128F3D118E000BFFFF714FE5A
:1026A000C11B49450BD86068C0F381000228F5D1F1
:1026B0000CE000BFFFF708FEC11B494502D903200B
:1026C000BDE8F087606810F00C0FF3D1D8F8001067
:1026D000404601F00701B1420BD9016821F0070122
:1026E00031430160006800F00700B04201D00120D2
:1026F000E6E72878400705D56068E96820F4E060DF
:10270000084360602878000706D56068296920F4CE
:10271000605040EAC100606000F036F86168084A25
:10272000C1F30311515CC840064908600F20FFF750
:102730001BFE0020C4E70000002002400010024001
:10274000AC6600084C000020044805490068496850
:10275000044AC1F30221515CC84070474C0000207C
:1027600000100240BC66000804480549006849683A
:10277000044AC1F3C221515CC84070474C0000209C
:1027800000100240BC660008F0B524A289B00FCA50
:1027900004AC84E80F0025A10FC98DE80F0027487D
:1027A000416801F00C02042A04D0082A04D024480D
:1027B00009B0F0BD2348FBE704AAC1F38343C90372
:1027C000D45C28D5C16AC26A01F00F011DF801105E
:1027D000D20316D5C26AC06AC2F30312521CA2FB0E
:1027E0000123C0F30320801CA0FB0415154F002615
:1027F000A1FB070C05FB07C501FB0651FDF710FD0A
:1028000003E010486043B0FBF1F09DF81D10A142B9
:10281000CED14008CCE70C486043C9E7000004056E
:102820000607080900000000000D00000102030473
:1028300005060708090A0B0C0D0E0F1000100240C8
:1028400000127A00001BB70000093D002DE9F84F87
:1028500004460078EA4DC00748D06868C0F381009C
:10286000012807D06868C0F38100022809D1686890
:10287000C00306D52868800338D5A06800286FD02B
:1028800034E0A068B0F5803F0BD010B1B0F5A02FB8
:1028900011D0286820F480302860286820F4802037
:1028A00002E0286840F480302860A06888B1FFF713
:1028B0000BFD064609E0286840F480202860F0E718
:1028C000FFF702FD801B642878D828688003F7D5BD
:1028D0000CE0FFF7F9FC064605E000BFFFF7F4FC4B
:1028E000801B6428F0D828688003F7D42078C54E70
:1028F00080074FF001094FF000073CD5686810F0E1
:102900000C0F07D06868C0F38100022809D16868FD
:10291000C00306D42868800715D5606901281FD137
:1029200011E06069B8B1C6F80090FFF7CDFC8046B1
:1029300006E000BFFFF7C8FCA0EB08000228C3D8E0
:1029400028688007F6D52868A16920F0F80040EAD9
:10295000C10028600FE03760FFF7B6FC804607E053
:102960002DE100BFFFF7B0FCA0EB08000228ABD8B8
:1029700028688007F6D4207800072ED5A248E169A0
:10298000E9B1C0F80090FFF79FFC804606E000BF69
:10299000FFF79AFCA0EB0800022895D8686A800728
:1029A000F6D59A484FF4FA510068B0FBF1F0009068
:1029B00000BF0098411E0091FAD20EE0B0E007601F
:1029C000FFF782FC804605E0FFF77EFCA0EB0800E5
:1029D000022887D8686A8007F6D42078400763D534
:1029E000E8694FF00008C00009D4E86940F0805061
:1029F000E861E8694FF0010800F0805000908448D9
:102A00000168C90512D40168834641F480710160F0
:102A1000FFF75AFC824605E0FFF756FCA0EB0A00E0
:102A200064287DD8DBF80000C005F5D520690128B1
:102A30000AD008B1052813D0286A20F001002862C6
:102A4000286A20F0040002E0286A40F001002862B1
:102A5000206941F2883B98B1FFF736FC82460BE0D3
:102A6000286A40F004002862EEE700BFFFF72CFC64
:102A7000A0EB0A01594553D8286A8007F6D50CE027
:102A8000FFF722FC824605E0FFF71EFCA0EB0A01DF
:102A9000594545D8286A8007F6D4B8F1000F03D00D
:102AA000E86920F08050E861E06AD0B36968C90342
:102AB00007D56968C1F38101022902D1E96AC90316
:102AC0007DD4022808D0E86A20F48030E862B76636
:102AD000FFF7FAFB80463BE02868C00005D5E86AAE
:102AE000616B00F0F000884269D1B766FFF7ECFB3C
:102AF000804605E0FFF7E8FBA0EB0800642874D8E7
:102B000028680001F6D4E86A616B20F0F000084301
:102B1000E862E86A216B20F470600843E86201E033
:102B200063E018E0C6F86890FFF7CEFB804605E04A
:102B3000FFF7CAFBA0EB0800642856D828680001FC
:102B4000F6D508E0FFF7C0FBA0EB080064284CD8DE
:102B500028680001F6D4206A90B36968C1F3810146
:102B600002294AD00228376603D0FFF7ADFB04469E
:102B70003EE0FFF7A9FB074605E000BFFFF7A4FB17
:102B8000C01B022831D828688001F7D4606AB0F5EC
:102B9000803F09D1E86A61680843E862E86AE16851
:102BA00020F00F000843E862D4E90901084369688E
:102BB00021F4741108436860C6F8609001E01CE0DD
:102BC00019E0FFF781FB044605E000BFFFF77CFB3F
:102BD000001B022809D828688001F7D50BE000BF48
:102BE000FFF772FB001B022802D90320BDE8F88F13
:102BF00028688001F4D40020F8E70120F6E70000FF
:102C00000010024000004242800442424C0000207A
:102C10000070004070B5040005D00025A56294F84E
:102C2000510010B106E0012070BD84F850502046DC
:102C300000F030F8022084F851002068016821F08B
:102C400040010160D4E901010843D4E903121143B2
:102C5000084361690843218B01F400710843E1696D
:102C60000843216A0843A16A084321680860A069F3
:102C7000042101EA1040616A084321684860206825
:102C8000C16921F40061C1616565012084F85100CA
:102C9000002070BD00B585B0002100910191029126
:102CA000039100681349884221D11348816941F496
:102CB00080518161816901F480510491816941F001
:102CC000080181618069694600F0080004902820AD
:102CD000009002200190032003900848FFF708FAB3
:102CE0000748416841F0E06141F00101416005B0F1
:102CF00000BD00000030014000100240000C014007
:102D0000000001402DE9F84F044690F850000026DD
:102D1000994617460D4601280DD04FF0010B84F857
:102D200050B0FFF7D1FA804694F85100B24601281E
:102D300004D0022694E00220BDE8F88F002D7BD05D
:102D4000002F79D0032084F85100C4F854A02563E3
:102D5000A786E786C4F838A0A4F83CA0A4F83EA053
:102D6000C4F844A0C4F840A0A068B0F5004F04D156
:102D70002068016841F480410160206801684906CB
:102D800003D4016841F040010160E068B0F5006FD4
:102D9000606804D030B3E08E012823D03EE010B14B
:102DA000E08E01281AD135F8021B206805E0206862
:102DB0008168890706D535F8021BC160E08E401E88
:102DC000E0860BE0B9F1000F34D0B9F1FF3F05D038
:102DD000FFF77AFAA0EB080149452BD2E08E0028D4
:102DE000E5D11EE0216815F8010B087306E02068A4
:102DF0008168890706D515F8011B0173E08E401E16
:102E0000E0860BE0B9F1000F14D0B9F1FF3F05D017
:102E1000FFF75AFAA0EB080149450BD2E08E0028D3
:102E2000E5D14B46012202212046CDF8008000F07A
:102E3000C1FB10B1032613E011E04246494620468B
:102E400000F0A8FB18B101262020606508E0A0680A
:102E500018B92068C16880680090606D00B10126D3
:102E600084F851B084F850A0304665E710B5401E94
:102E7000B0F1807F01D3012010BD4FF0E0246061EC
:102E80000F21601700F086FA0020A0610720206162
:102E9000002010BD08B5C16B082903D10068016886
:102EA0004068009008BD70B5040004D094F8390063
:102EB000002510B106E0012070BD84F8385020468E
:102EC00000F022F8242084F839002068C16821F439
:102ED0000051C160204600F07FFD2068016921F4A7
:102EE000904101612068416921F02A014161206817
:102EF000C16841F40051C160E563202084F83900C5
:102F000084F83A00002070BD70B586B000250646F2
:102F100000950195029503950068224988423FD1AA
:102F20002149C86940F48020C861C86900F4802044
:102F30000490886940F00800886188691B4C00F0A3
:102F400008000490081500900220019003200390CF
:102F500069462046FFF7CCF8E014CDE90005694644
:102F600020460295FFF7C4F8124C1148C4E9000549
:102F70008020C4E9025020202561C4E90550204684
:102F8000E561FFF729F808B1FEF7FFF87463002246
:102F9000052127206662FFF737FA2720FFF728FA76
:102FA00006B070BD0048004000100240000C014017
:102FB000300002402C100020F8B5044690F83A008A
:102FC00020283CD1C1B3BAB394F83800012836D0D8
:102FD000012084F83800A162A2850025E563222043
:102FE00084F83A00636B17489862636B1648D8629E
:102FF000636B16481863606B134645630846666B3F
:10300000216802463046091DFFF728F8206801684C
:103010004168009184F83850C16841F48071C16002
:103020002068416941F0010141612068416941F036
:10303000400141610020F8BDFFE70120FBE70220CD
:10304000F9E700002B39000867390008E13800086B
:1030500070477047FEE700002DE9F04101240F4F53
:10306000660231463846FFF721F9FDF765FB294630
:10307000FDF73BF905462046FDF75EFB0146284675
:10308000FDF78BF9641CE4B20B2CEAD304498842A7
:1030900002DA0120BDE8F0810020FBE700100140CA
:1030A000CDCC4C3E2DE9F04101240F4F2602314694
:1030B0003846FFF7FBF8FDF73FFB2946FDF715F90A
:1030C00005462046FDF738FB01462846FDF765F921
:1030D000641CE4B20B2CEAD30449884202DA0120D2
:1030E000BDE8F0810020FBE700100140CDCC4C3E54
:1030F0003EB500241048009401940E4902940160EA
:103100000125C0E90245446105614FF46021446036
:10311000C161FEF725F908B1FEF737F80095CDE952
:10312000015469460448FEF799F8002801D0FEF7DB
:103130002CF83EBD00240140380C0020104810B58A
:103140000E4901600321416000214FF4A0228160FB
:10315000C0E903124FF48002C0E905210122C0E951
:10316000072141628162C162FEF74AFC002803D058
:10317000BDE81040FEF709B810BD00000064004033
:10318000AC0C00200D4808B5416941F001014161D6
:103190004069002200F00100009005210B20FFF79C
:1031A00033F90B20FFF724F9002205210D20FFF74A
:1031B0002BF9BDE808400D20FFF71AB900100240B6
:1031C00010B596B01C2211496846FDF76AF8002137
:1031D000684601F070FF0E4C0C491C2220601C3127
:1031E00007A8FDF75EF8002107A801F064FF074972
:1031F00060601C2238310EA8FDF753F800210EA89C
:1032000001F059FFA06016B010BD0000586600081C
:10321000400000202DE9F04385B000242C480094A4
:10322000019402940394816941F0200181618169D4
:1032300001F020010491816941F0100181618169EF
:1032400001F010010491816941F0040181618169FB
:1032500001F004010491816941F0080181618069F4
:103260001C4F00F0080004900022F0213846FFF7C0
:1032700026F8DFF86480012253214046FFF71FF84B
:10328000032001258DE83100DFF85090694648465B
:10329000FEF72EFFF0200226CDE90005CDE902461B
:1032A00069463846FEF724FF5320CDE90005CDE9F5
:1032B000024669464046FEF71BFF4FF470708DE8EA
:1032C000310069464846FEF713FF05B0BDE8F083BC
:1032D0000010024000080140000C014000100140B5
:1032E000094810B507490160032141604FF4967108
:1032F0008160FEF7EFFF002803D0BDE81040FDF726
:1033000044BF10BD00300040880F0020114810B5A8
:103310000F4901604FF4827141604FF400418160B8
:103320000021C1604FF400720161C0E9051228223A
:10333000C0E90721416281620A21C162FFF76AFC8C
:10334000002803D0BDE81040FDF71FBF10BD0000EE
:1033500000300140940F00200C4810B50A4901606C
:103360004FF4E1314160002181600C22C160C0E96D
:1033700004128161C161FFF796FD002803D0BDE80A
:103380001040FDF702BF10BD00480040EC0F0020C8
:10339000FEE770470907090E002806DA00F00F0063
:1033A00000F1E02080F8141D704700F1E02080F863
:1033B0000014704710B53220FDF754FB1349A0F6F6
:1033C0007742132A486001D200220A80A0F2B73265
:1033D000132A01D201220A80A0F2EB62132A01D241
:1033E00002220A80A0F6B5221D2A01D203220A80F9
:1033F000A0F6AD021D2A01D204220A8008B90520D8
:103400000880BDE810403220FEF760BE3800002082
:1034100038B5FFF7CFFF002001F066FC34480424E4
:103420000088032860D2DFE800F00205350001F0D3
:1034300029FC59E02FA20221012001F029FD304D85
:1034400000940023EA880E21012001F0B1FD022141
:103450002CA2084601F01CFD00942A8800230E21AE
:10346000022001F0A5FD2AA20221032001F010FD97
:103470000094AA8900230E21032001F099FD27A2C0
:103480000221042001F004FD009400230E216A8A29
:10349000042027E024A20321012001F0F9FCFFF71A
:1034A000DBFD024600230E210120009401F080FD87
:1034B00020A20321022001F0EBFCFFF7F3FD0246FE
:1034C00000230E210220009401F072FD03211CA2B2
:1034D000084601F0DDFC00F039F8024600230E2119
:1034E0000320009401F064FDBDE8384001F0F4BC15
:1034F0003800002052464C495020465053000000EE
:10350000D60A00204C464C4950204650530000003B
:103510004D534C4950204650530000004D415249F4
:1035200044204650530000004C4546545F474E53DC
:10353000000000004D4944445F474E530000000026
:10354000524947545F474E530000000070B50F4E7C
:10355000012480213046FEF7A9FEFDF7EDF829464B
:10356000FCF7C3FE05462046FDF7E6F8014628466F
:10357000FCF713FF641CE4B20B2CEAD30449884225
:1035800001DA012070BD002070BD00000010014074
:10359000CDCC4C3E38B50B4600920446002280212B
:1035A00000F008F8002804D0606D40F0200060654D
:1035B000032038BD2DE9F0411D4617460E4604464E
:1035C000DDF8188035E0681C33D02DB1FEF77CFEA5
:1035D000A0EB0800A8422CD32068416821F0E0014C
:1035E00041606068B0F5827F0BD1A068B0F5004FF4
:1035F00002D0B0F5806F04D12068016821F040014D
:103600000160A06AB0F5005F0AD1206801684DF63C
:10361000FF72114001602068016841F400510160AF
:10362000012084F85100002084F850000320BDE8F8
:10363000F0812068806836EA000004D00020B8429B
:10364000C1D10020F3E70120F9E7F0B514460E469A
:103650000746FDF7BFFD0346384600F0A7F80146D0
:10366000002002E03A5C3254401C9842FADB00250C
:10367000F554581C06E0A0EB030C3A5CA444401C33
:103680000CF8012C8842F6DB65545B1C04D13146F2
:103690003846FDF7B3FC2570F0BD00002DE9FE4F64
:1036A000804600208246834604460546CDF8080041
:1036B00018F8001059B1A1F130020A2A03D32E29BB
:1036C00001D02D2903D1401CC0B20A28F0D3814675
:1036D000002605E018F806102E2903D0761CF6B255
:1036E0008642F7D3002716E018F807002D2818D0D7
:1036F0003038FDF726F8CDE900010022284B50466E
:103700005946FCF72FFFDDE90023FCF784FE8246D3
:103710008B467F1CFFB2B742E6D37F1CFEB20196F8
:1037200019E001200290F4E718F8060030380A2862
:1037300013D2FDF706F8074600910022184B2046E9
:103740002946FCF70FFF3A46009BFCF764FE761C07
:1037500004460D46F6B24E45E6D301980026DFF842
:103760004480A9EB000709E042460F4B204629465A
:10377000FCF7F8FE761C04460D46F6B2B742F3DCC1
:1037800022462B4650465946FCF745FE029A0AB19E
:1037900081F0004103B0BDE8F04FFDF72EB8000006
:1037A000000024409A9999999999B93F01460020BF
:1037B0000A5C401C002AFBD1401E704770B50B46C6
:1037C000074C04E0E618C55C761A5B1C3570934222
:1037D000F8DB00202244511A0870014870BD000037
:1037E000C802002010B5FEF7A5FD02F019FA012865
:1037F00003D0BDE8104002F0A7B910BD70B59CB071
:1038000038216846FCF766FD14210EA8FCF762FD1E
:10381000202113A8FCF75EFD09200090012500245B
:103820004FF480300795CDE902040226CDE9086007
:10383000059501940001CDE90A046846FFF706F8F2
:103840000F20CDE90E06A802CDE9104002210EA8F6
:103850001294FEF7CFFEE8031590139613A8FEF717
:1038600005FE024805671CB070BD00000000424222
:103870001048016841F00101016041680E4A1140A1
:10388000416001680D4A11400160016821F4802106
:103890000160416821F4FE014160016821F0A051FE
:1038A00001604FF47F0181600021C1620449C003BF
:1038B00008607047001002400000FFF0FFFFF6FEB6
:1038C00008ED00E010B501F025FF04490020486034
:1038D000BDE810404FF07E5001F018BC340B0020C2
:1038E00070B5446A2068406994F83910C0F3C0107C
:1038F0000025212904D118B1E584204600F046F8BE
:103900002068406994F83A10C0F38010222904D14D
:1039100018B1E585204600F02BF8E06B40F0100070
:10392000E0632046FFF7B6FA70BD10B50146406A65
:1039300009680968890613D40021C1850168CA682D
:1039400022F48072CA6001684A6922F001024A6169
:1039500001684A6922F040024A61202180F83A1049
:10396000FFF776FB10BD10B5406AFFF772FB10BD84
:103970000168CA6822F49072CA6001684A6922F03C
:1039800001024A61202180F83A1070470168CA6834
:1039900022F0C002CA60202180F839107047000070
:1039A00000680A4982B088420ED10948006801685F
:1039B000C943C90608D4016840680090012205493E
:1039C000034802B0FFF7F8BA02B070470048004061
:1039D000EC0F0020600100202DE9F0410446006852
:1039E0000169E26821F44051114301612169A06835
:1039F0000843616908432168CA6841F20C639A432D
:103A00000243CA6020684169A26921F440711143F0
:103A100041614C4920686425322688423CD1FEF73A
:103A2000A3FE00EBC00101EB001061688900B0FB50
:103A3000F1F7FEF799FE00EBC00101EB00106168A1
:103A4000B0468900B0FBF1F0B0FBF5F06FF0180163
:103A5000484307EB800106EB0110B0FBF5F000F0E6
:103A6000F006FEF781FE00EBC00101EB001061687B
:103A70008900B0FBF1F0B0FBF5F006EB0016FEF7A5
:103A800073FE00EBC00101EB001061688900B0FB20
:103A9000F1F7FEF769FE3BE0FEF756FE00EBC001D2
:103AA00001EB001061688900B0FBF1F7FEF74CFEF6
:103AB00000EBC00101EB00106168B0468900B0FB6B
:103AC000F1F0B0FBF5F06FF01801484307EB80010F
:103AD00006EB0110B0FBF5F000F0F006FEF734FE47
:103AE00000EBC00101EB001061688900B0FBF1F050
:103AF000B0FBF5F006EB0016FEF726FE00EBC0016A
:103B000001EB001061688900B0FBF1F7FEF71CFEC5
:103B100000EBC00101EB001061688900B0FBF1F01F
:103B2000B0FBF5F06FF01801484307EB800108EB9C
:103B30000110B0FBF5F0216800F00F003044886000
:103B4000BDE8F081003801400148FFF729BF0000BF
:103B5000EC0F00200123024A0249034800F006B896
:103B6000600100202C100020EC0F00202DE9F04116
:103B7000044600680F461D46416816463846FEF763
:103B80006DFA2068416941F0400141612068C168D7
:103B900041F01001C1602A4631462046FFF70CFA79
:103BA0002068416941F001014161BDE8F081FEE713
:103BB0000FB4054B10B503A9044A029800F0DCF8D5
:103BC00010BC5DF814FB000075480008BC00002024
:103BD00037B514460846064B6A46214600F0CCF835
:103BE00004466946002000F05EFC20463EBD000011
:103BF000A744000802E008C8121F08C1002AFAD131
:103C000070477047002001E001C1121F002AFBD15C
:103C1000704700002DE9FF5FDDE90220010DDDF8AE
:103C200038B0024318D044F61050A1F2FF3141439E
:103C30000D140F98012820D0A5EB0B00401C5FEA63
:103C4000000A4FF00004474EDFF81C91A046504692
:103C500016D5CAF1000728E00F98012443A20128D5
:103C600008D0002100980F9BC0E90021C0E9024361
:103C7000BDE8FF9F6FEA0B01F4E7CBF10000DEE740
:103C8000074612E0F80707D0224633464046494629
:103C9000FCF768FC804689462246334610461946A2
:103CA000FCF760FC04460E467F10002FEAD1DDE9E8
:103CB0000201BAF1000F42464B4602DAFCF752FC11
:103CC00001E0FCF7C1FC04460E460022284BFCF73D
:103CD0009FFE03D84FF0FF30014607E00022254B3E
:103CE00020463146FCF797FBFCF779FE102409E0EB
:103CF000002C0ADB0A220023FCF792FA019B3032E7
:103D00001A55641E50EA0102F2D1641C019AC4F1F2
:103D1000110314440F9A012A03D0012208430DD144
:103D20000AE0084304D000204FF0110B0F9080E709
:103D3000A3EB0B056D1E0DE05B4504DD4FF00002AB
:103D400005F1010504E003DA4FF00002A5F10105D9
:103D5000002AECD000980F99C0E90231C0E9004573
:103D600086E70000000024400000F03F3000000023
:103D70000000F0430000E03F2DE9FF4F95B09B4667
:103D80008946064600250FE2252877D100242746DC
:103D9000F84A0121059400E0044316F8013F203B56
:103DA00001FA03F01042F7D130782A2811D06FF0D1
:103DB0002F033078A0F13002092A16D8059A44F072
:103DC000020402EB820203EB42021044761C0590CF
:103DD000EFE759F8042B0592002A03DA504244F425
:103DE0000054059044F00204761C30782E2816D139
:103DF00016F8010F44F004042A280DD06FF02F02AA
:103E00003078A0F13003092B09D807EB870302EBC8
:103E10004303C718761CF3E759F8047B761C307807
:103E20006C280FD006DC4C2817D068280DD06A28E3
:103E300014D104E0742810D07A280FD10DE044F496
:103E400000140AE044F4801401E044F44014727851
:103E5000824202D104F58014761C761C30786628E4
:103E60000BD013DC582877D009DC002875D0452802
:103E7000F6D04628F4D047281AD19DE118E06328EF
:103E800035D0642879D0652812D195E1702873D097
:103E900008DC6728F1D069286FD06E280DD06F2814
:103EA00006D1B5E073282CD0752875D0782874D049
:103EB0005A46179990476D1C75E1C4F302500228C9
:103EC00009D003280DD0D9F8001004280DD00D60BA
:103ED00009F1040967E1D9F80010EA17C1E90052B5
:103EE000F6E7D9F800100D80F2E70D70F0E719F849
:103EF000041B8DF8001000208DF80100EA46012017
:103F000003E059F804AB4FF0FF3061074FF00001B8
:103F100002D40DE008F101018846B9420FDA80456C
:103F2000F8DB1AF808100029F4D108E008F10101C3
:103F300088468142FADB1AF808100029F6D1059864
:103F40005B46A0EB080721463846179A00F094FA22
:103F5000284400EB080507E04DE029E10DE01AF8E0
:103F6000010B5A4617999047B8F10108F7D25B4602
:103F700021463846179A13E142E00A220092C4F320
:103F800002524FF0000A022A08D059F804CB032A43
:103F90004FEAEC710AD00DE029E02AE009F10701AF
:103FA00021F00702F2E802C1914609E00FFA8CFC09
:103FB0004FEAEC71042A03D14FFA8CFC4FEAEC7102
:103FC000002907DA0A460021DCF1000C61EB02014E
:103FD0002D2202E0220504D52B228DF80420012297
:103FE00003E0E20701D02022F7E7904659E00A21DA
:103FF00002E010220DE010214FF0000A00910BE0CA
:1040000010224FF0000A44F004040827009203E055
:1040100008224FF0000A0092C4F30252022A05D08F
:1040200059F804CB0021032A08D009E009F107015F
:1040300021F00702F2E802C1914605E01FFA8CFC6C
:10404000042A01D10CF0FF0C4FF00008220728D5FC
:10405000702806D0009B83F0100353EA0A0305D0B2
:104060000EE040228DF80420012208E05CEA010203
:1040700006D030228DF804208DF8050002229046EB
:10408000009B83F0080353EA0A030AD15CEA0102A9
:1040900001D1620705D530228DF804204FF00108C8
:1040A0007F1E582804D034A003900EA802900DE083
:1040B00036A0F9E753466046009AFCF7B1F884460B
:1040C0000398825C0298401E029002705CEA010034
:1040D000F0D1029806A9081A00F1200A600702D55B
:1040E00024F4803400E00127574502DDA7EB0A00E5
:1040F00000E0002000EB0A01009005984144401ABE
:104100000590E00306D45B462146179A059800F017
:10411000B3F90544002706E001A85A46C05D179987
:1041200090476D1C7F1C4745F6DBE0030CD55B46D2
:104130002146179A059800F09FF9054404E03020C5
:104140005A46179990476D1C0099481E0090002907
:10415000F5DC08E0029802995A460078491C029161
:10416000179990476D1CBAF10001AAF1010AF1DC20
:1041700065E100000928010030313233343536372B
:1041800038396162636465660000000030313233A3
:104190003435363738394142434445460000000043
:1041A00000F058F90544761C307800287FF4ECAD17
:1041B00019B02846BDE8F08F620700D4062709F140
:1041C000070222F0070CFCE80223E14603F0004856
:1041D0005FEA080C02D00FF2702C0DE05FEA045C7D
:1041E00002D50FF2682C07E05FEAC47C02D00FF220
:1041F000602C01E0AFF2700C4FF0FF3823F0004369
:10420000CDF850C065280CD006DC452809D04628DA
:104210001DD047283DD13DE0662818D067287ED1C3
:1042200038E00021112F01DB112000E0781CCDE9DE
:10423000000106A90EA8FFF7EDFCDDE90F010E9ABB
:1042400003910021009207F1010A04914DE04FF023
:1042500000400097CDE9011006A90EA8FFF7DAFC8F
:10426000DDE90F0203920E9B11990022DDF80CA0EC
:104270000093049211B9791C00EB010AB7EB0A0014
:1042800004D4C0F1FF3007F1010A0490AAEB070043
:10429000019044E0012F00DA01270021112F01DDF8
:1042A000112000E03846CDE9000106A90EA8FFF76D
:1042B000B1FCDDE90F010E9A0391002104910092F7
:1042C000BA4621070CD40399514500DA8A46BAF15F
:1042D000010F05DD009AAAF10101515C302908D0D7
:1042E000B84202DA10F1040F06DA0121CDE901101B
:1042F00015E0AAF10101E9E7002805DC0499014471
:104300000491AAEB000102E0411C514500DD8A4600
:104310000499401A401C01904FF000400290200781
:1043200004D40198504501DBCDF8048000208DF8BD
:104330004F0002980DF14F07B0F1004F25D02B2010
:104340000E9002984FF0020800280CDA40420290CA
:104350002D200E9007E00A210298FCF775FA303103
:10436000029007F8011DB8F10001A8F10108F2DC84
:1043700002980028EFD1791E0E980870307800F06E
:10438000200040F0450007F8020D12A8C01B00F104
:1043900007081498007800B1012000EB0A01019889
:1043A00001EBE07105984144401A401E0590E0037E
:1043B00006D45B462146179A059800F05DF805443F
:1043C0001498007818B15A46179990476D1CE0036D
:1043D00024D55B462146179A059800F04DF8054410
:1043E0001CE00498002807DBDDE90301884203DDB7
:1043F0000098405C179901E0179930205A46904781
:10440000049805F10105401C04900198401E01909C
:1044100004D12E205A46179990476D1CBAF100011D
:10442000AAF1010ADDDC05E017F8010B5A461799DD
:1044300090476D1CB8F10001A8F10108F4DC5B465F
:104440002146179A0598ABE62D0000002B000000CE
:10445000200000002DE9F041044600251E461746C5
:10446000880404D405E039462020B0476D1C641E42
:10447000F9D52846BDE8F0812DE9F0410446002534
:104480001E469046C80301D5302700E02027880447
:1044900004D505E041463846B0476D1C641EF9D589
:1044A0002846BDE8F0810A68531C0B601070704705
:1044B00010B504460848816908484068FBF767FF63
:1044C0000749086120F000402146FCF7B3F901D804
:1044D000012010BD002010BD00010020340B002081
:1044E000940100202DE9F04107463EA1FCF76EFD46
:1044F00000286AD13CA13846FCF768FD002864D149
:104500003AA13846FCF762FD00285ED138A1384652
:10451000FCF75CFD002858D136A13846FCF756FD63
:10452000354C364D364E38B16068FCF753F92A46A3
:104530003346FBF770FF25E032A13846FCF746FD15
:1045400038B16069FCF746F92A463346FBF763FF4A
:1045500028E02DA13846FCF739FD38B12069FCF779
:1045600039F92A463346FBF756FF2BE027A1384698
:10457000FCF72CFD50B16068FCF72CF92A46334655
:10458000FBF7EAFFFCF739F960601EE020A138462E
:10459000FCF71CFD50B16069FCF71CF92A46334654
:1045A000FBF7DAFFFCF729F960610EE019A1384644
:1045B000FCF70CFD60B12069FCF70CF92A46334684
:1045C000FBF7CAFFFCF719F920610020BDE8F08174
:1045D00011A13846FCF7FAFC0028F7D000206060F3
:1045E0002061E1E76100000062000000630000005C
:1045F0006400000075000000040000209A99999959
:104600009999A93F690000006F0000006A0000004E
:104610006B0000006C000000700000001A4D1B4C85
:104620001B4E1C4F1CA0FFF7C3FA298820A0FFF7E0
:10463000BFFAE98824A0FFF7BBFA698A28A0FFF730
:10464000B7FAE1782CA0FFF7B3FAA1782EA0FFF714
:10465000AFFA217831A0FFF7ABFA617C34A0FFF705
:10466000A7FAB06DFCF7B6F802460B4635A0FFF787
:104670009FFA01213846FDF71EFEFCF7B7FD6420C6
:1046800000F0FAFCCEE70000D60A0020580B00200C
:1046900000010020000C01402323465053205245C6
:1046A00056454E4C454E54203A2023230D0A000017
:1046B0006670735B4C656674466C69705D203D2066
:1046C00025640D0A000000006670735B526967681C
:1046D00074466C69705D203D2025640D0A00000061
:1046E0006670735B4D617374657249445D203D2053
:1046F00025640D0A000000006C6F6F705F636E74BC
:104700003D2025640D0A00002E7461736B5F636E9B
:1047100074203D2025640D0A000000002E6665749B
:1047200063685F6D6F6465203D2025640D0A00009D
:104730002E636C61775374617465203D2025640D90
:104740000A00000043757272656E74416E676C6595
:10475000203D20252E32660D0A00000070B502882B
:10476000044682800D46007F4FF4805140B1288876
:1047700040BA821A20808A420DDD2169491E0FE06D
:104780000122227700202061288840BA6080884278
:1047900000D9226170BD216912F5805F01DA491CE0
:1047A000216100EB41306188401A6061FBF7BBFF7B
:1047B0000549FBF7F2FDA061688840BA208168884E
:1047C00040BA608170BD0000832DD84310B5094CFC
:1047D000002210212046FDF772FD002240212046D4
:1047E000FDF76DFD20460022BDE810402021FDF7B9
:1047F00066BD000000080140084910B50648486041
:104800004FF07E50FFF754FE002803D003490120EB
:104810002431887410BD0000000034C3340B002024
:104820000B4810B54178002910D0017821B1012939
:104830000CD1007930B101E000F036F8BDE810404D
:10484000FFF740B8BDE8104000F0A6BE10BD000064
:10485000580B0020064910B5044848604FF07E50C0
:10486000FFF726FE002800D0012010BD0000B4C2D2
:10487000340B002004490A685206FCD5024AC1B232
:10488000121D1160704700000048004001A0FFF7B2
:104890008FB90000476F310D0A000000EFF305806B
:1048A000002800D00120704718210148FBF712BDF5
:1048B000580B0020FDF746FDFEF7A0FFFEF7AAFC0F
:1048C000FEF73CFCFEF75EFCFEF746FDFEF710FC33
:1048D000FEF71CFDFCF796F9C820FDF7F7FBFFF784
:1048E00039F9C820FDF7F2FBFCF7B0FCC820FDF752
:1048F000EDFBFCF769F9C820FDF7E8FB0122114642
:104900000648FDF7DCFCC820FDF7E0FBFEF7E8FCFD
:10491000FEF756FC00F0BEFBFEE70000000C014075
:10492000194C08B5194EA4F1240540F2113800BF06
:1049300001F084F9009000F059FF227D607D202174
:1049400002433046FDF7BBFCE27C40213046FDF7D8
:10495000B6FCA27C10213046FDF7B1FCFFF760FFEA
:104960006868FBF7FFFE07B22869FBF7FBFE01B2A0
:1049700000233A46404600F085FE00F057FF05212F
:10498000684600F080FBD3E7580B00200008014088
:1049900001460020842900D0C81C7047DFF8C4A05D
:1049A00008B50122022154465046FDF788FC012239
:1049B00011462046FDF783FC00F071FBDFF8A8806C
:1049C0004FF06409294D002608F16804CDF8000075
:1049D000FDF77AFC6968401AA860FDF775FC68600D
:1049E00000F048F8D8F8000028B100220221504613
:1049F000FDF765FC01E0A8F86460FEF709FD002002
:104A00004FEA090200EB400104EB41034FF47A77CF
:104A10005B88401C7B43B3FBF2F324F8113005287C
:104A2000F0DB2088B0F5C87F01D9012028700E4A3C
:104A30000020863200EB400102EB410304EB410110
:104A4000401C0F681F608F889F800E608E80052835
:104A5000F0DB0748FDF767FC6421684600F013FBB4
:104A6000B6E70000000C0140500A0020280000209A
:104A7000880F00202DE9F0414FF00008464601253F
:104A80004746134CFDF720FC04EBC501CA68938828
:104A9000C01A80B250800A7A72B1CA6812889042F5
:104AA0000AD901204872887A761C404505DD083114
:104AB00021608046257100E04F726D1CEDB2072D1C
:104AC000E0D9002E01D127602771BDE8F0810000F8
:104AD000500A00202DE9FF41144DD5E90201FBF7F2
:104AE0008CFE134C6060D5E90401FBF786FEA060E4
:104AF000D5E90601FBF781FEE0600EA0FFF758F84C
:104B0000E068FBF767FE07468846A068FBF762FE91
:104B100005460E466068FBF75DFE8DE8E001024643
:104B20000B4609A0FFF744F8BDE8FF8130030020E1
:104B300004000020232323232323232323232323AD
:104B4000232323230D0A0000504F3A256620494FA6
:104B50003A256620444F3A25660D0A002DE9FF41AB
:104B6000144DD5E90201FBF748FE134C2061D5E94D
:104B70000401FBF742FE6061D5E90601FBF73DFE4B
:104B8000A0610EA0FFF714F8A069FBF723FE07460B
:104B900088466069FBF71EFE05460E462069FBF756
:104BA00019FE8DE8E00102460B4609A0FFF700F868
:104BB000BDE8FF81300300200400002023232323CD
:104BC0002323232323232323232323230D0A00002A
:104BD00050493A25662049493A25662044493A25F4
:104BE000660D0A007CB50AA0FEF7E2FF0D4E306AA2
:104BF000FBF7F0FD04460D46F069FBF7EBFD0246BE
:104C00000B4609A0CDE90045FEF7D2FF7CBD0000B0
:104C10002323232323232323232323232323232364
:104C20000D0A0000040000206D61786F7574313A40
:104C30002566206D61786F7574323A25660D0A001D
:104C4000054910B5D1E90401FBF7A5FDFBF76BFDA4
:104C50000249886110BD00003003002004000020DC
:104C600007490523B0FBF3F00A88521C92B2904228
:104C70000A804FF0000001D8088001207047000032
:104C8000340000202DE9F047002000F02DF8DFF877
:104C9000549000245FF0000609EBC60000EBD4003E
:104CA000002507784FFA86F8380604EB050041B274
:104CB00001D5012200E00022404600F035F87806D8
:104CC0006D1C070EEDB2082DEED3761CF6B2802EC9
:104CD000E2D30834E4B2402CDCD3BDE8F04700F066
:104CE000FBB8000058620008F0B500210D4BFF260C
:104CF0000C46002201280FD003EBC20580B16F5C87
:104D0000C7F1FF076F54521CD2B2802AF2D3491C5C
:104D1000C9B20829EDD3F0BD03EBC2056E54F2E72A
:104D20006C54F0E75006002070B5802817D2002997
:104D300015DB3F2913DCCB1701EB5375C5F3C70314
:104D400025F007050124094E491B8C4006EBC000E5
:104D5000012A05D0C15C022A05D0A143C15470BD0F
:104D6000C15C2143FAE76140F8E7000050060020EB
:104D700010B5464C002240212046FDF7A0FA4FF422
:104D8000FA70FDF7A3F9012240212046FDF797FABA
:104D90000021AE2000F05CF90021084600F058F92F
:104DA0000021102000F054F90021402000F050F9BB
:104DB0000021812000F04CF90021CF2000F048F9BB
:104DC0000021A12000F044F90021C82000F040F9A2
:104DD0000021A62000F03CF90021A82000F038F9BD
:104DE00000213F2000F034F90021D32000F030F9F9
:104DF0000021084600F02CF90021D52000F028F908
:104E00000021802000F024F90021D92000F020F9B1
:104E10000021F12000F01CF90021DA2000F018F93F
:104E20000021122000F014F90021DB2000F010F91D
:104E30000021402000F00CF90021202000F008F9AA
:104E40000021022000F004F900218D2000F000F97B
:104E50000021142000F0FCF80021A42000F0F8F854
:104E60000021A62000F0F4F80021AF2000F0F0F8B7
:104E70000021AF2000F0ECF80020FFF735FF002103
:104E8000BDE81040084600F041B80000000C0140A9
:104E90000FB430B5A1B00C46054680216846FBF73B
:104EA00019FA681E042813D2142C11D8002C0FD024
:104EB00027AA68462699FEF78BFEC4F11500C0B2FA
:104EC00000210DF800106A462146284600F0A9F896
:104ED00021B030BC5DF814FB70B50B4E00242146A8
:104EE000002000F013F8002506EBC5000121005D4D
:104EF00000F0AEF86D1CEDB2802DF5D3641CE4B269
:104F0000082CECD370BD00005006002010B5801CAA
:104F1000C4B2B031C8B2002100F09AF8102040EAC3
:104F20001410002100F094F804F0F000BDE81040E7
:104F3000002100F08DB800002DE9F04F01EB410198
:104F400000EB400049068006040E203A4FEA116942
:104F5000D0B2164900EB4000A046002501EB800BC3
:104F600000261BF805704FFA89FA380601D5012290
:104F700000E0002261B25046FFF7D6FE7806641CBE
:104F8000070EE4B2A4EB08000C2809D0761CF6B298
:104F9000082EEAD36D1CEDB20C2DE1D3BDE8F08FE5
:104FA00009F10100444600F0FF09F3E7E45D000861
:104FB0002DE9F04700269946174688468246344632
:104FC000089D2AE0281B401E0A22C1B2012000E0F1
:104FD0005043491EC9B2FBD2B7FBF0F00A21B0FB27
:104FE000F1F201FB120026B9691E8C4201DA30B1E0
:104FF00001263030C2B208EB0400C1B208E008EB71
:105000000400B9F1000FC1B201D0302200E020222B
:105010005046FFF791FF641CE4B2AC42D2D3BDE826
:10502000F087F0B517460C46064600250CE02146F1
:105030003046FFF781FF641CE4B2142C02D900242F
:10504000761CF6B26D1CEDB27A5D002AEFD1F0BD90
:1050500013B5074809B1012200E000221021FDF735
:105060002EF90A23012269460248FDF74BFE1CBDBA
:10507000000C0140940F002010B500B9012000F091
:1050800051FC002010BD10B501B9012100F070FCE9
:10509000002010BD10B500F0B1FC002010BD10B50F
:1050A000FFF7FCFB18B1BDE8104000F0CDBDBDE836
:1050B000104000F0C3BD7FB50D4604464169B0F90C
:1050C000080081B1A16971B1FFF762FCD4E9051252
:1050D0008DE80700D4E900102B46226900F077FD27
:1050E000039004B070BDFFF753FC03A9CDE90001A4
:1050F000208A2B4682B2D4E9001000F03BFD012843
:1051000001D00020EDE70398EBE7000010B504465E
:105110000848816D08480069FBF739F90749486478
:1051200020F000402146FBF785FB01D8012010BD8F
:10513000002010BD00010020340B0020940100204D
:105140002DE9F041184C0F460546E6682068001D21
:1051500000F0FEFA38B9206890F82C100120884041
:10516000216981432161681C07D137B12168BDE8FD
:10517000F0410E48091D00F02DBB20683544B542B2
:105180004560216805D2A06BBDE8F041091D00F023
:1051900009BB606B091D00F005FBA06A854200D2C7
:1051A000A562BDE8F08100005C0000204C110020E9
:1051B0002DE9F041054600F019FB2E4CA068401C7B
:1051C000A06020682C4F10B1606940B32DE02560CD
:1051D000A068012829D1002606EB860007EB800095
:1051E00000F0D2FA761C072EF6D323488C3000F05C
:1051F000CBFA2148A03000F0C7FA1F48B43000F0C5
:10520000C3FA1D48C83000F0BFFA1B48DC3000F07C
:10521000BBFA19488C3060631430A06305E0206845
:10522000E96AC06A884200D82560606A401C6062F2
:10523000E96A0120226988401043206101EB810066
:1052400007EB8000291D00F0C5FA00F0EFFA606955
:1052500000280CD02068E96AC06A884207D2074952
:105260004FF080500860BFF34F8FBFF36F8FBDE8E2
:10527000F08100005C0000207010002004ED00E0D0
:1052800070B5114E114C17E000F0EEFB3068B8B16C
:1052900000F046FD00F0AAFAF068C568281D00F08D
:1052A00057FAA068401EA0606068401E606000F071
:1052B000BDFA284600F00CF860680028E4D170BD03
:1052C00000F02EFDF8E70000381100205C000020FF
:1052D00010B5044690F8510058B101280CD00228AE
:1052E0000FD0502080F31188BFF34F8FBFF36F8F23
:1052F000FEE7206B00F0AEFA2046BDE8104000F05B
:10530000A9BA10BD10484FF48051420706D0C01D05
:105310000D4920F00700411AC1F580510B4A0023C6
:105320000144C2E900030839103A21F00701116075
:105330004B600B600B1AC0E9001393604FF0004004
:105340005360D0607047000060110020A80000206A
:10535000074C4FF08056074DFFF792FF2068012859
:10536000FAD92E60BFF34F8FBFF36F8FF4E70000C1
:105370007010002004ED00E02DE9F0479A46DDE9C9
:10538000098481466FF00303206B03EB8202104413
:10539000089D20F00706700707D0502080F3118881
:1053A000BFF34F8FBFF36F8FFEE723180A5C83F8BC
:1053B00034200A5C12B1401C1028F6D3002784F870
:1053C0004370072D00D30625E562C4E91157201D5F
:1053D00000F0E5F904F1180000F0E1F92461C5F1ED
:1053E00007006462A061E76484F850705246494641
:1053F000304600F0BFF82060B8F1000F01D0C8F8C7
:105400000040BDE8F087000030B5114900E01146CA
:105410000A688242FBD34B685C18844203D140681F
:1054200018444860084643681C18944209D1084C47
:10543000103C2468A24209D052681A4442600A68AB
:1054400012680260814200D0086030BD0460F9E754
:10545000A80000200648416B096829B1416BC96862
:10546000C9684968816270474FF0FF31FAE7000070
:105470005C00002008484068401C4FF0500080F35A
:10548000118804D0BFF34F8FBFF36F8FFEE7BFF3D8
:105490004F8FBFF36F8FFEE7B00000202DE9F04182
:1054A0000546002700F0E0FA314E306808B9FFF7F2
:1054B00029FFF06805424BD1C5B3083568070ED007
:1054C00005F00700C0F108000544680707D0502028
:1054D00080F31188BFF34F8FBFF36F8FFEE72DB3BB
:1054E0007068854234D82248103001460C6801E0CB
:1054F00020460C466168A94202D221680029F7D1F2
:1055000031688C4224D007682168016060680837E0
:10551000411B10290FD96019420708D0502080F391
:105520001188BFF34F8FBFF36F8FFEE710E041602C
:105530006560FFF769FF61687068401A7060B26863
:10554000904200D2B060F06801430020C4E900013D
:1055500000F0E6FB780707D0502080F31188BFF3F6
:105560004F8FBFF36F8FFEE73846BDE8F081000034
:105570009800002010B5031F4FF080741C601B1FA3
:1055800021F001011960191F024B0B6014394038DA
:105590000A6010BD7554000870B5344C32480125BE
:1055A000E060A178A4F1240006291ED2DFE801F012
:1055B000032A3A454D57FFF74DF9E078022638B1F6
:1055C000012813D000F0A6F801280ED1052027E00D
:1055D00000F0AEF8012808D10A20FFF741FB0128AE
:1055E00003D1E078401CE070A67070BDE57400F057
:1055F0009FF80128F9D14FF4FA70FFF731FB00282A
:10560000EFD170BD00F062F80128FAD1E0780128EE
:1056100002D11748806DA060A079401CA07109E0FC
:10562000A07070BDFFF7E8F80CE09620FFF718FBBC
:105630000128F6D1A078401CF2E70E4941600E48DF
:10564000FEF736FF0028F0D170BD0C4941600C48D0
:10565000FEF72EFF0028F7D00020A074E0E7FFF748
:1056600023F9257170BD00000000FA43580B00209B
:10567000000100200000A0C10000A0400000B4C252
:10568000000020420F4B30B41C6B20601C6B0020CC
:10569000A0601C6BE0601C6B082020610A48018040
:1056A0001C6B017821751C6B4178617502801A6B47
:1056B00001789175196B4078C87530BC1846FCF7B5
:1056C000D3BA0000AC0C00200000002070B50E48DA
:1056D0000E49A0F12404437C0D4A2069062B05D213
:1056E000DFE803F0100E0A070305002070BD01205B
:1056F00070BDFAF7FAFD01E0FAF749FE2061F4E720
:105700001146F6E71146F7E7580B0020CDCCCC3D0B
:10571000CDCC4C3D054910B5002008614FF07E50BE
:10572000FFF7F4FC002800D0012010BD340B00204E
:105730000648064910B52439806808614FF080405A
:10574000FFF7E4FC002800D0012010BD580B00201A
:10575000D0E9013201699A60D0E901235A604A68B0
:10576000824201D182684A60002202610868401EBC
:1057700008607047034B036003F154000860802009
:1057800010607047340D002000F108014FF0FF3227
:10579000C0E90112C1600161002101607047002170
:1057A0000161704730B50B685A1C02D000F1080245
:1057B00002E0026904E02246546825689D42FAD955
:1057C00053684B6099608A60516008610168491CA8
:1057D000016030BD42684A6093688B60936859608D
:1057E000916008610168491C01607047502080F396
:1057F0001188BFF34F8FBFF36F8F0A494868401C71
:10580000486001280CD10848006810F0FF0F07D04D
:10581000502080F31188BFF34F8FBFF36F8FFEE7E7
:1058200070470000B000002004ED00E0084948681F
:1058300028B1401E486001D180F311887047502084
:1058400080F31188BFF34F8FBFF36F8FFEE7000027
:10585000B000002070B5002827D0144DA0F1080436
:105860006168E868014207D1502080F31188BFF3D6
:105870004F8FBFF36F8FFEE722683AB1502080F35D
:105880001188BFF34F8FBFF36F8FFEE781436160D5
:1058900000F0EAF860686968084468602046FFF72D
:1058A000B3FDBDE8704000F03BBA70BD9800002029
:1058B00006484FF47A710068B0FBF1F14FF0E02038
:1058C000491E416107210161704700004C00002022
:1058D00010B5FAF78FFC114910280ED300F1E02023
:1058E00090F8F0030A78904207D2502080F3118894
:1058F000BFF34F8FBFF36F8FFEE7094800688968D9
:1059000000F4E060884207D9502080F31188BFF38B
:105910004F8FBFF36F8FFEE710BD0000B000002077
:105920000CED00E010B5020014D00F48006B38B148
:10593000502080F31188BFF34F8FBFF36F8FFEE7C6
:1059400000F092F800211046FFF7FAFB00F0E8F9AA
:10595000002807D105494FF080500860BFF34F8FF2
:10596000BFF36F8F10BD00005C00002004ED00E06D
:1059700070B50D4604000BD095B11E4A106BB8B13E
:10598000502080F31188BFF34F8FBFF36F8FFEE776
:10599000502080F31188BFF34F8FBFF36F8FFEE766
:1059A000502080F31188BFF34F8FBFF36F8FFEE756
:1059B00000F05AF8D26823685919934204D98B42EF
:1059C0000AD9914202D807E08B42FAD9881A21609D
:1059D0000021FFF7B5FB00E0216000F0A1F90028ED
:1059E00007D105494FF080500860BFF34F8FBFF3D8
:1059F0006F8F70BD5C00002004ED00E010B586B034
:105A00000024039405AA04A903A80494FFF7B2FE96
:105A1000DDE903010094CDE9011000230EA1104837
:105A2000059A00F0D4F80F490028C86211D0502020
:105A300080F31188BFF34F8FBFF36F8F4FF0FF30AC
:105A4000886201204861CC6006B0BDE8104000F0DB
:105A500041B806B010BD000049444C4500000000AC
:105A6000515300085C0000200248016B491C01638F
:105A7000704700005C0000201448016B11B1012147
:105A8000C16170470021C1610169B1FA81F1C1F1C1
:105A90001F0101EB81020E4951F822306BB101EB7D
:105AA000820101F108034A6852684A609A4201D1B2
:105AB00052684A60D16801607047502080F31188B5
:105AC000BFF34F8FBFF36F8FFEE700005C00002035
:105AD000701000201CB5194908780190FF2008704B
